:100000000C946A000C9481160C945A160C9492006D
:100010000C9492000C9492000C9492000C94920018
:100020000C9492000C9492000C9444180C9492003E
:100030000C9492000C94C7170C9492000C949200AC
:100040000C9410160C9492000C94DE150C94B815B8
:100050000C9492000C9492000C9492000C949200D8
:100060000C94A8160C9492007C3C3E5E2B3D3F2FD6
:100070005B5D3B2C2A225C0000000000250028006C
:100080002B000000000023002600290000000008CB
:10009000000201000003040700000000000000004F
:1000A00000000000240027002A000102040810209C
:1000B00040800102040810200102040810200404FA
:1000C0000404040404040202020202020303030300
:1000D0000303C31811241FBECFEFD8E0DEBFCDBF8E
:1000E00027E0ACE1B2E001C01D92AE35B207E1F706
:1000F00012E0A0E0B1E0E0E9F3E402C005900D9267
:10010000AC31B107D9F710E0CAE6D0E004C02197BE
:10011000FE010E945D20C936D107C9F70E94581917
:100120000C94C6210C940000AF92BF92CF92DF9244
:10013000EF92FF920F931F93CF93DF936C017B019C
:100140008B01040F151FEB015E01AE18BF08C0172D
:10015000D10759F06991D601ED91FC910190F081A0
:10016000E02DC6010995892B79F7C501DF91CF9163
:100170001F910F91FF90EF90DF90CF90BF90AF90C5
:100180000895089508950895FC01538D448D252FF9
:1001900030E0842F90E0821B930B541710F0CF9621
:1001A000089501970895FC01918D828D981761F053
:1001B000A28DAE0FBF2FB11D5D968C91928D9F5F6A
:1001C0009F73928F90E008958FEF9FEF0895FC0149
:1001D000918D828D981731F0828DE80FF11D858DFC
:1001E00090E008958FEF9FEF0895FC01918D228D8F
:1001F000892F90E0805C9F4F821B91098F73992714
:1002000008958CE895E00E94F50021E0892B09F41F
:1002100020E0822F089580E090E0892B29F00E9451
:10022000010181110C9400000895FC01A48DA80F18
:10023000B92FB11DA35ABF4F2C91848D90E0019628
:100240008F739927848FA689B7892C93A089B18948
:100250008C91837080648C93938D848D981306C0E9
:100260000288F389E02D80818F7D80830895EF924D
:10027000FF920F931F93CF93DF93EC0181E0888F60
:100280009B8D8C8D98131AC0E889F989808185FF30
:1002900015C09FB7F894EE89FF896083E889F989D2
:1002A00080818370806480839FBF81E090E0DF91D4
:1002B000CF911F910F91FF90EF900895F62E0B8D27
:1002C00010E00F5F1F4F0F731127E02E8C8D8E11E2
:1002D0000CC00FB607FCFACFE889F989808185FF49
:1002E000F5CFCE010E941501F1CFEB8DEC0FFD2F64
:1002F000F11DE35AFF4FF0829FB7F8940B8FEA8904
:10030000FB8980818062CFCFCF93DF93EC01888D12
:100310008823B9F0AA89BB89E889F9898C9185FD80
:1003200003C0808186FD0DC00FB607FCF7CF8C910E
:1003300085FFF2CF808185FFEDCFCE010E941501B0
:10034000E9CFDF91CF910895833081F028F4813097
:1003500099F08230A9F008958730A9F08830C9F06B
:100360008430B1F4809180008F7D03C08091800043
:100370008F7780938000089584B58F7784BD08952A
:1003800084B58F7DFBCF8091B0008F778093B000D4
:1003900008958091B0008F7DF9CFCF93DF93282F00
:1003A00030E0F901E457FF4F8491F901E655FF4F22
:1003B000D491F901E254FF4FC491CC23A1F08111F3
:1003C0000E94A401EC2FF0E0EE0FFF1FEE57FF4F4D
:1003D000A591B491EC91ED2381E090E009F480E0E7
:1003E000DF91CF91089580E090E0FACF1F93CF93F3
:1003F000DF93282F30E0F901E457FF4F8491F90192
:10040000E655FF4FD491F901E254FF4FC491CC233C
:10041000A9F0162F81110E94A401EC2FF0E0EE0F3D
:10042000FF1FE858FF4FA591B4918FB7F894EC9156
:10043000111108C0D095DE23DC938FBFDF91CF91DF
:100440001F910895DE2BF8CFCF93DF9390E0FC014E
:10045000E655FF4F249182549F4FFC0184918823DD
:10046000D1F090E0880F991FFC01E056FF4FA59155
:10047000B491FC01E858FF4FC591D49161110EC0B1
:100480009FB7F8948C91E22FE0958E238C9328816E
:10049000E223E8839FBFDF91CF9108958FB7F8944F
:1004A000EC91E22BEC938FBFF6CF3FB7F89480919D
:1004B000DF029091E002A091E102B091E20226B544
:1004C000A89B05C02F3F19F00196A11DB11D3FBF8C
:1004D000BA2FA92F982F8827BC01CD01620F711D5B
:1004E000811D911D42E0660F771F881F991F4A9555
:1004F000D1F708958F929F92AF92BF92CF92DF92E1
:10050000EF92FF924B015C010E9455026B017C014E
:100510000E9455026C197D098E099F09683E73403F
:1005200081059105A8F321E0821A9108A108B1087C
:1005300088EEC80E83E0D81EE11CF11C81149104E2
:10054000A104B10429F7FF90EF90DF90CF90BF9006
:10055000AF909F908F90089568EC70E080E090E0FD
:100560000E947A0282E00E94CD01019741F48091BD
:100570001D02811104C081E080931D02089582E074
:100580000E94CD01892BB1F480911D02813091F43C
:1005900010921D028091840390918503019751F47C
:1005A000809181038F5F863018F4809381030895D2
:1005B00010928103089568EC70E080E090E00E9462
:1005C0007A0283E00E94CD01019741F480911E02DE
:1005D000811104C081E080931E02089583E00E948F
:1005E000CD01892B81F580911E02813061F5109239
:1005F0001E0280918403909185038130910559F00A
:1006000018F00297D1F0089581E090E0909385036F
:10061000809384030895809183038F5F8093830385
:10062000823030F41092810386E080938203089533
:100630001092820382E090E0E9CF1092830310923F
:1006400085031092840308952FB7F8946091DB021C
:100650007091DC028091DD029091DE022FBF08953F
:10066000089520919002260F3327331F2132310540
:10067000ECF42091B402FC0190E080E0243069F0B9
:1006800082E00895A09190022191AC0140595D4F04
:10069000A40FB52FB11D2C930196861798F3809166
:1006A0009002680F6093900280E0089581E00895C1
:1006B0001092B40281E08093B6021092B50261E01C
:1006C00082E10E94F60161E083E10E94F601E9EB1C
:1006D000F0E080818E7F808380818D7F808388E4BD
:1006E0008093B80085E48093BC000895CF93DF9396
:1006F00091E090936F028823B9F0C091B800D09137
:10070000BA008091BC008A7B8093BC0060E082E1EB
:100710000E94F60160E083E10E94F6010E94580306
:10072000D093BA00C093B800DF91CF910895E091C3
:10073000EA028091E902E81730F4F0E0E65BFD4F51
:10074000808190E008958FEF9FEF08959091EA02E5
:100750008091E9022FEF3FEF981748F4E92FF0E07E
:10076000E65BFD4F208130E09F5F9093EA02C90174
:1007700008958091E9029091EA02891B990B0895EE
:10078000CF92DF92EF92FF920F931F93CF93DF935D
:100790007C01CB018A0120914902222389F0EB01DF
:1007A0006B01C40ED51ECC15DD0569F06991D7012A
:1007B000ED91FC910190F081E02DC7010995F3CFF7
:1007C000642F0E943103C801DF91CF911F910F91D7
:1007D000FF90EF90DF90CF900895CF93DF931F921B
:1007E000CDB7DEB76983209149022223F9F0209129
:1007F000E702203258F021E030E0FC01338322830D
:1008000090E080E00F90DF91CF9108958091E80211
:10081000E82FF0E0E75DFD4F998190838F5F809333
:10082000E8028093E70281E090E0ECCF61E0CE0146
:1008300001960E943103F7CFCF92DF92EF92FF92A1
:100840000F931F93CF93DF93FC01C48121E020938A
:100850004902C09328021092E8021092E7028385B1
:10086000682B89E296E00E94ED03D091E702D13235
:1008700008F092C00E9455026B017C018091B40285
:10088000811165C082E08093B40281E08093B6025A
:100890008FEF8093B3021092D802D093D702A9E2CF
:1008A000B2E0E7EBF2E080E0D81385C01092D90205
:1008B0008091D902CC0FC82BC093D9028091B50288
:1008C000813009F07CC01092B5020E9455026B0184
:1008D0007C018091D9028093BB0080916B02909142
:1008E0006C02A0916D02B0916E02892B8A2B8B2B2A
:1008F00099F00E94550200916B0210916C022091B8
:100900006D0230916E026C197D098E099F090617E0
:10091000170728073907E0F18091BC0083FDD9CF84
:1009200085EC8093BC000E9455026B017C01809194
:10093000B402823009F445C08091B3028F3F61F167
:100940008091B302803241F18091B30225C0809141
:100950006B0290916C02A0916D02B0916E02892B96
:100960008A2B8B2B09F48ACF0E94550200916B02CF
:1009700010916C0220916D0230916E026C197D090C
:100980008E099F09061717072807390708F076CF41
:1009900080916A020E9476031092E8021092E702A8
:1009A00010924902DF91CF911F910F91FF90EF902C
:1009B000DF90CF9008959D9191938F5F75CF85EED5
:1009C000B0CF80916B0290916C02A0916D02B091BA
:1009D0006E02892B8A2B8B2B09F4A9CF0E9455021A
:1009E00000916B0210916C0220916D0230916E02A9
:1009F0006C197D098E099F09061717072807390703
:100A000008F095CFC5CF8FB7F894809122028FBFA1
:100A1000089561E0FC0184810E94F6018091210229
:100A200081111092210208958EBD00000DB407FEC1
:100A3000FDCF8EB508958FEF0C9414050F931F937F
:100A4000CF93DF93EC010E9424038B010E941B05CE
:100A50008F3F69F00E942403601B710B6C177D07A8
:100A6000A8F380E0DF91CF911F910F91089581E06D
:100A7000F9CF8CBD9DBD0895CF93DF93EC0180919C
:100A80002102811109C081E0809321028091350605
:100A9000909136060E94390560E08C81DF91CF91FC
:100AA0000C94F6018F929F92AF92BF92FF920F9398
:100AB0001F93CF93DF93EC01F62E49015A018E81EB
:100AC000882389F08F8198859C012F5F3F4F38875D
:100AD0002F838230924018F40E941B05F3CFCE0181
:100AE0000E9409051E82CE010E943C058CE291E025
:100AF0000E941E058F2D80640E94140508E110E0FD
:100B0000D501C401002E04C0B695A7959795879589
:100B10000A94D2F70E94140508501109083F8FEF7C
:100B2000180771F785E9FF2021F028E087E8F21225
:100B30008FEF0E94140510E00E941B058A8787FF33
:100B400004C01F3F11F01F5FF7CFDF91CF911F91BE
:100B50000F91FF90BF90AF909F908F900895AF92AC
:100B6000BF92CF92DF92EF92FF920F931F93CF939A
:100B7000DF93EC016901C801820F931F813092401D
:100B800050F58E81882379F088819981AA81BB8173
:100B900084179507A607B70731F48F819885C81683
:100BA000D90608F042C0488359836A837B838B85CA
:100BB000833039F089E0440F551F661F771F8A95EF
:100BC000D1F79A01AB0161E1CE010E945205882361
:100BD00089F083E08D83CE010E94090580E0DF91DA
:100BE000CF911F910F91FF90EF90DF90CF90BF902A
:100BF000AF9008950E9424035B010E941B058A8721
:100C00008F3F69F40E9424036A197B096D32714099
:100C1000A0F38FE08D83CE010E940905DCCF8E3FCB
:100C200089F418861F8281E08E838F8198858C15C8
:100C30009D0550F40E941B058F8198850196988729
:100C40008F83F3CF8DE0E6CF6701E00EF11E0E94A7
:100C50001B05F60181936F01EE15FF05C1F78F812A
:100C60009885080F191F18870F838985882319F025
:100C700001151240A0F08E81882389F08F8198851C
:100C80009C012F5F3F4F38872F838230924018F4AA
:100C90000E941B05F3CFCE010E9409051E8281E050
:100CA0009ECFCF92DF92EF92FF920F93CF93DF937D
:100CB000EC01690182E1411551056105710599F069
:100CC0008B85833039F089E0440F551F661F771FED
:100CD0008A95D1F79A01AB0168E1CE010E945205D5
:100CE000882319F084E08D832DC08EEF0E941405B7
:100CF00076018EEFD81AF70181917F010E941405C9
:100D0000EC14FD04C1F78FEF0E9414058FEF0E94D1
:100D100014050E941B058A878F71853071F40111BB
:100D200016C0CE010E94090581E0DF91CF910F919D
:100D3000FF90EF90DF90CF90089581E18D83CE01F9
:100D40000E940905CE010E94090580E0EECF88E5EA
:100D500092E00E941E05811102C085E1C4CF20E00F
:100D600030E0A9016DE0CE010E945205882311F008
:100D700084E1B9CF0E941B058111FACFD2CF0F9326
:100D80004091240250912502609126027091270221
:100D9000411551056105710599F0082F2AE833E0E6
:100DA00080918A0590918B050E945106882349F015
:100DB000109224021092250210922602109227020D
:100DC00081E00F9108950F93CF93C82F8091230254
:100DD000811105C0C1E08C2FCF910F9108954091F2
:100DE00000015091010160910201709103010C2FEB
:100DF0002AE833E080918A0590918B050E94510684
:100E0000811102C0C0E0E7CFCC2321F381E00E9432
:100E1000BF068823B9F310922302DDCF8F929F92F1
:100E2000AF92BF92EF92FF920F931F93CF934B011C
:100E30005C01C42F8091000190910101A0910201F9
:100E4000B091030188159905AA05BB0551F181E010
:100E50000E94E30681110BC080E0CF911F910F919A
:100E6000FF90EF90BF90AF909F908F9008958AE889
:100E7000E82E83E0F82E00E012E030E020E0B5013B
:100E8000A40180918A0590918B050E94AF0588236B
:100E900019F38092000190920101A0920201B09298
:100EA0000301409123024C2B4093230281E0D5CFD4
:100EB0008F929F92AF92BF92CF92DF92EF92FF926A
:100EC000CF9327E336E030938B0520938A05882360
:100ED00009F46DC040E060E070E0CB010E940E07B5
:100EE00081110BC080E0CF91FF90EF90DF90CF9009
:100EF000BF90AF909F908F900895809148058F7715
:100F000089F78091540590915505A0915605B091AF
:100F1000570584369105A105B10520F3C090500511
:100F2000D0905105E0905205F0905305C114D104C2
:100F3000E104F104B9F240E0C701B6010E940E07D6
:100F4000882381F2809195039091960381159240B8
:100F500049F6A0919A03AA2329F26091980370910F
:100F600099036115710509F4BDCF209197032223E0
:100F700009F4B8CFA09355062093470690E080E08F
:100F800030E0E1E0F0E0C82FAF01082E02C0440FCE
:100F9000551F0A94E2F72417350769F041E0480F1E
:100FA00001968930910579F7409350069BCFC12C6B
:100FB000D12C7601C0CF809350062091A0033091B0
:100FC000A10350E040E02115310541F42091AE032A
:100FD0003091AF034091B0035091B1032093480684
:100FE0003093490640934A0650934B0646015701F9
:100FF000860E971EA11CB11C809256069092570631
:10100000A0925806B0925906E0919B03F0919C0380
:10101000F0935C06E0935B06B0E00E942420DC01C4
:10102000CB01880D991DAA1DBB1D80935D06909371
:101030005E06A0935F06B093600625E0EE0FFF1FEB
:101040002A95E1F7E150FE4FEF2FFF27E6958E0F2F
:101050009F1FA11DB11D8093510690935206A0932E
:101060005306B093540680909D0390909E03B12C3C
:10107000A12C8114910441F48090AA039090AB03B9
:10108000A090AC03B090AD03C81AD90AEA0AFB0AD3
:10109000C80CD91CEA1CFB1C04C0F694E794D79436
:1010A000C794CA95D2F7C0924C06D0924D06E092F2
:1010B0004E06F0924F0685EFC8168FE0D806E10481
:1010C000F10428F48CE080935A0681E00CCF80E193
:1010D00025EFC2162FEFD206E104F104A0F38091B0
:1010E000B6039091B703A091B803B091B903809370
:1010F0005D0690935E06A0935F06B093600680E263
:10110000E2CF4F925F926F927F928F929F92AF92B7
:10111000BF92CF92DF92EF92FF920F931F93CF93E4
:10112000DF93EC01423051056105710590F480E0D8
:10113000DF91CF911F910F91FF90EF90DF90CF90B3
:10114000BF90AF909F908F907F906F905F904F90E7
:10115000089589859A85AB85BC850196A11DB11D31
:1011600084179507A607B70710F3CB88DC88ED88AE
:10117000FE888F89803109F042C0BB27A72F962FA8
:10118000852F480159012A013B01C80ED91EEA1ECC
:10119000FB1E8091000190910101A0910201B0918C
:1011A0000301C816D906EA06FB0699F58F89803136
:1011B000C1F5B301A201552766277727440F551FB4
:1011C00046575C4FFA0191828082809123028160B0
:1011D000809323028A89823080F08D819E81AF8145
:1011E000B8858C0D9D1DAE1DBF1D8093240290936C
:1011F0002502A0932602B093270281E099CFDB015C
:10120000CA01E7E0B695A79597958795EA95D1F736
:10121000B8CF40E0C701B6010E940E078111C6CFCA
:1012200086CFB301A2014F77552766277727440F52
:10123000551F440F551F46575C4FFA01808291821B
:10124000A282B382C2CF8F929F92AF92BF92CF926F
:10125000DF92EF92FF920F931F93CF93DF93FC01E6
:1012600081859285A385B4850196A11DB11D841742
:101270009507A607B70770F480E0DF91CF911F9123
:101280000F91FF90EF90DF90CF90BF90AF909F9025
:101290008F90089583889488A588B688878980313F
:1012A00089F5BB27A72F962F852FE9016A017B01BE
:1012B0008F01BC01CD01680D791D8A1D9B1D809099
:1012C000000190900101A0900201B09003018616E8
:1012D0009706A806B90601F5F8018789803111F54E
:1012E000DD24EE24FF24F601EE0FFF1FE657FC4F2E
:1012F00080819181B0E0A0E088839983AA83BB8339
:1013000081E0BBCFDB01CA01C7E0B695A7959795F1
:101310008795CA95D1F7C9CF40E00E940E07811189
:10132000DBCFAACFE894C7F8DD24EE24FF24F60132
:10133000EE0FFF1FEE0FFF1FE657FC4F80819181DC
:10134000A281B381BF70D8CF4F925F926F927F928C
:10135000AF92BF92CF92DF92EF92FF920F931F93C3
:10136000CF93DF9300D000D0CDB7DEB78C01498397
:101370005A836B837C835901C12CD12C7601412C7B
:1013800082E0582E612C712C49815A816B817C81BD
:101390009E012F5F3F4FC8010E942309882339F126
:1013A000F8018585A301920104C0220F331F441F59
:1013B000551F8A95D2F7DA01C901C80ED91EEA1E57
:1013C000FB1E49815A816B817C818789803111F1B3
:1013D00088EF9FEFAFEFBFE0481759076A077B0719
:1013E00098F2F501C082D182E282F38281E00F900F
:1013F0000F900F900F90DF91CF911F910F91FF9061
:10140000EF90DF90CF90BF90AF907F906F905F9004
:101410004F90089588EF9FEFA0E0B0E0DDCFCF932D
:10142000DF93FC012581222321F080E0DF91CF9121
:101430000895EC0180915A06803159F582E0858348
:10144000178A108E118E128E80915B0690915C0629
:10145000B0E0A0E025E0880F991FAA1FBB1F2A95C6
:10146000D1F7838B948BA58BB68B83E496E09C8F0E
:101470008B8F81E08C831E821F82188619861A86C4
:101480001B861C861D861E861F86188A198A1A8A44
:10149000CDCF803251F683E0858340915D06509137
:1014A0005E0660915F0670916006478B508F618F7A
:1014B000728F9F012D5E3F4F83E496E00E94A40946
:1014C0008111D3CFB2CF8F929F92AF92BF92CF9222
:1014D000DF92EF92FF920F931F93CF93DF93EC0174
:1014E0008D8181110EC080E0DF91CF911F910F910E
:1014F000FF90EF90DF90CF90BF90AF909F908F9034
:1015000008950B891C892D893E8904171507260724
:10151000370748F34A015B01823031F48A869B86A3
:10152000AC86BD8681E0E0CF81149104A104B104B2
:1015300049F41E821F82188619861A861B861C860D
:101540001D86F0CF0A851B852C853D85EB8DFC8D96
:10155000858590E00996B901A801415051096109BA
:101560007109082E04C076956795579547950A949A
:10157000D2F775016401E1E0CE1AD108E108F10863
:1015800004C0F694E794D794C7948A95D2F7C4160A
:10159000D506E606F70620F0012B022B032B11F5EA
:1015A0008F89988DA98DBA8D8E839F83A887B987DF
:1015B0008E010A5F1F4FC114D104E104F10409F444
:1015C000ADCF4E815F816885798598018B8D9C8D2B
:1015D0000E94230991E0C91AD108E108F10881119C
:1015E000EACF81CFC41AD50AE60AF70AE1CF2091E3
:1015F000990630919A062115310541F0AB01BC01E5
:10160000C9010E94630A91E0811101C090E0892F15
:1016100008953F924F925F926F927F928F929F9226
:10162000AF92BF92CF92DF92EF92FF920F931F93F0
:10163000CF93DF93CDB7DEB72C970FB6F894DEBF0C
:101640000FBECDBF5C01DC015B968D909C905C97DA
:1016500016964D905D906D907C90199741145104B1
:101660006104710409F468C0BFEF4B1A5B0A6B0A8E
:101670007B0A312CF40181859285A385B4859C0178
:10168000AD012F5F3F4F4F4F5F4F29873A874B8701
:101690005C87730162011D821E821F821886F4011D
:1016A00081859285A385B4852D813E814F815885A2
:1016B000281739074A075B0708F056C089859A85BD
:1016C000AB85BC858C159D05AE05BF0550F482E049
:1016D000C82ED12CE12CF12C92E0492E512C612CFA
:1016E000712C9E012F5F3F4FB701A601C4010E94DC
:1016F00023098823C9F189819A81AB81BC81892B17
:101700008A2B8B2B09F1260137019FEF491A590AC1
:10171000690A790A2D813E814F8158852F5F3F4F9D
:101720004F4F5F4F2D833E834F8358873FEFC31A40
:10173000D30AE30AF30AB3CFF401408051806280F8
:1017400073803324339496CFC414D504E604F7048D
:1017500009F70FEF1FEF2FEF3FE0B701A601C4011C
:101760000E948108811119C080E02C960FB6F89470
:10177000DEBF0FBECDBFDF91CF911F910F91FF90C4
:10178000EF90DF90CF90BF90AF909F908F907F9021
:101790006F905F904F903F900895D50116964D91B0
:1017A0005D916D917C911997411551056105710508
:1017B00039F097018601C4010E9481088823A1F2B3
:1017C000D5011696CD92DD92ED92FC9219973320B9
:1017D00051F0D701C6010196A11DB11DF40180830E
:1017E0009183A283B383F5018789908DA18DB28DFA
:1017F000892B8A2B8B2B39F48481C78AD08EE18E7A
:10180000F28E80688483F50184818062848381E024
:10181000ACCF2F923F924F925F926F927F928F92B6
:101820009F92AF92BF92CF92DF92EF92FF920F936F
:101830001F93CF93DF93EC015B012A018D8181110E
:1018400015C08FEF9FEFDF91CF911F910F91FF9008
:10185000EF90DF90CF90BF90AF909F908F907F9050
:101860006F905F904F903F902F9008958C8180FFF4
:10187000E8CF0B891C892D893E894A855B856C855B
:101880007D85C201B0E0A0E068017901C41AD50AE3
:10189000E60AF70AC816D906EA06FB0618F4280174
:1018A000441A550A42011E0126E0220E311C811401
:1018B000910409F4B3C04A855B856C857D856A0116
:1018C00081E0D8228B8D9C8D8A019B01E9E03695C1
:1018D000279517950795EA95D1F7ED81E230E1F567
:1018E000FC01628D738D848D958D600F711F821F39
:1018F000931F612C22E0722E6C187D0886149704C9
:1019000008F434012C8126FD04C06114F2E07F0646
:1019100071F40091000110910101209102013091B8
:101920000301061717072807390709F053C040E0DD
:101930000E940E07882309F484CFC60186579C4F66
:10194000D5019C01260D371DFC012E173F0709F418
:1019500060C041914D93F9CFFC0174807A9470225C
:10196000C114D10471F471100CC0452B462B472BC8
:1019700039F58F89988DA98DBA8D8E839F83A8871D
:10198000B987EB8DFC8D6E817F818885998562504A
:10199000710981099109258504C0660F771F881F89
:1019A000991F2A95D2F70685178520893189600FFE
:1019B000711F821F931F670D711D811D911D99CF8E
:1019C0004E815F816885798591010E94230981118B
:1019D000D8CF37CF750183019601AB01BC0180914F
:1019E0008A0590918B050E94AF05882309F429CFC1
:1019F000A60CB71C8A859B85AC85BD85860D971D79
:101A0000A11DB11D8A879B87AC87BD878618970863
:101A10004ECF281B390BA20EB31EECCFC20113CF41
:101A20001F93CF93DF93FC0125812223D1F1162F41
:101A3000EC01848187FF2AC066857785808991893A
:101A400041E00E940E07882361F1EA8980E2E89F65
:101A5000F0011124E657FC4F309719F18D81823047
:101A600040F48B899C89AD89BE89848F958FA68F20
:101A7000B78F8F89988D938F828F8F89988DA98D3D
:101A8000BA8DB58BA48B8C818F778C83111103C099
:101A90008C818F7E8C83812FDF91CF911F910C944D
:101AA000E30680E0DF91CF911F910895FF920F939D
:101AB0001F93CF93DF93EC018D81813041F090E053
:101AC00080E0DF91CF911F910F91FF9008958C815D
:101AD00081FFF5CF82FD1BC000918A0510918B0517
:101AE000C8010E943C050E941B05F82EC8010E94F7
:101AF00009058FEFF812E3CF8C8185FF1BC060E0F2
:101B0000CE010E94100D8C818F7D8C83D8CF4B89A4
:101B10005C896D897E898A859B85AC85BD858417A6
:101B20009507A607B707C1F2CE010E94630A81118B
:101B3000D3CFC5CF40912402509125026091260257
:101B400070912702452B462B472B21F080E00E9405
:101B5000BF06B5CF80618C832A853B85317080E0DC
:101B600092E0821B930BADCFCF93DF93EC0161E04A
:101B70000E94100D882311F01D8281E0DF91CF912A
:101B800008952F923F924F925F926F927F928F9221
:101B90009F92AF92BF92CF92DF92EF92FF920F93FC
:101BA0001F93CF93DF9300D000D01F92CDB7DEB745
:101BB0007C015B01342E5D83DC0115968C911597B9
:101BC000813009F0CEC014962C9021FECAC022FCB0
:101BD000B4C0C32CDD8022947FE027222094B22D54
:101BE000B1702B2ED7011A964D915D916D917C911C
:101BF0001D97C114D10409F428C15B968D919C9165
:101C00005C97FC0174807A948A019B0169E03695A7
:101C10002795179507956A95D1F770228A0111705B
:101C2000711020C001151105E9F416964D915D91D2
:101C30006D917C911997411551056105710509F068
:101C400099C057968D919D910D90BC91A02D0097B4
:101C5000A105B10509F0B0C0C7010E94090B882396
:101C600009F47FC080E092E0801B910B46018C1547
:101C70009D0508F44C01D7015B964D915C915C97F2
:101C800016968D919D910D90BC91A02D0297A10962
:101C9000B109FA01258504C0880F991FAA1FBB1F2F
:101CA0002A95D2F74685578560897189840F951FDB
:101CB000A61FB71F9C01AD01270D311D411D511DF0
:101CC00029013A01811432E0930609F07BC080912A
:101CD000000190910101A0910201B09103018415CE
:101CE0009505A605B70559F48FEF9FEFDC018093AA
:101CF000000190930101A0930201B0930301022D12
:101D00009501B301A20180918A0590918B050E94F3
:101D10005106882331F19EEFB91AC818D908F70186
:101D200082859385A485B585880D991DA11DB11D5A
:101D300082879387A487B58755CFF7014389548954
:101D40006589768982859385A485B5854817590765
:101D50006A077B0709F43DCFC7010E94630A81111E
:101D600038CF81E090E0D70113969C938E93129721
:101D700080E007C09E012F5F3F4F0E942309811121
:101D800002C090E079C089819A81AB81BC81F70162
:101D9000238D348DF901278948EF5FEF60E070E013
:101DA000203121F048EF5FEF6FEF7FE08417950758
:101DB000A607B70708F050CFF70186839783A0875F
:101DC000B18750CF0115110599F5D7011A964D919C
:101DD0005D916D917C911D9753968D919D910D9084
:101DE000BC91A02D481759076A077B0708F181E0CD
:101DF0000E94E306882309F4B4CF40920001509278
:101E000001016092020170920301809123028160BE
:101E100080932302C80186579C4FD5019C01280D51
:101E2000391DFC012E173F0759F04D914193FACF10
:101E300041E0C301B2010E940E078111EBCF91CFA7
:101E4000281B390BA20EB31E68CFF7018389948932
:101E5000A589B68984179507A607B70738F4848142
:101E6000438B548B658B768B80688483F7018481E8
:101E700083FD1AC0832D9D810F900F900F900F90BE
:101E80000F90DF91CF911F910F91FF90EF90DF9016
:101E9000CF90BF90AF909F908F907F906F905F900A
:101EA0004F903F902F90089561E0C7010E94100D60
:101EB000882309F456CFDECFCF93DF931F92CDB79F
:101EC000DEB7698341E050E0BE016F5F7F4F0E9443
:101ED000C10D0F90DF91CF910895FC01DB011296A7
:101EE0008D919C9113979383828388E691E09183EF
:101EF000808314968C911497848315968C911597F2
:101F0000858316964D915D916D917C9119974683CD
:101F10005783608771871A964D915D916D917C9181
:101F20001D9742875387648775871E964D915D91F3
:101F30006D917C91519746875787608B718B529634
:101F40008C915297828B53964D915D916D917C91BE
:101F50005697438B548B658B768B57964D915D913D
:101F60006D917C915A97478B508F618F728F5B96E2
:101F70008D919C91948F838F0895FC01818D928D1A
:101F8000009719F061E00C94100D0895DC0159964A
:101F9000ED91FC913097B9F083899489A589B68930
:101FA0004285538564857585841B950BA60BB70BFD
:101FB000811520E89207A105B10538F08FEF9FE762
:101FC000A0E0B0E0089590E080E00895DC0159962B
:101FD0008D919C91009739F0DC01ED91FC9104808A
:101FE000F581E02D099490E080E00895CF93DF9390
:101FF000EC01E98DFA8D309749F481E090E09B8304
:102000008A8390E080E0DF91CF910895138212825D
:10201000898D9A8D0E94C10DE98DFA8D22813381BF
:10202000232B59F7F0CFCF93DF931F92CDB7DEB7B5
:102030006983DC01ED91FC910280F381E02D41E0A8
:1020400050E0BE016F5F7F4F09950F90DF91CF91F8
:102050000895CF93DF931F92CDB7DEB741E050E0F4
:10206000BE016F5F7F4F0E94090C019731F4898197
:1020700090E00F90DF91CF9108958FEF9FEFF9CF10
:10208000FC01818D928D009711F00C9429108FEF37
:102090009FEF08950F931F93CF93DF93EC01898DEA
:1020A0009A8D10E000E0009799F00E9429108C01B1
:1020B0000F3F100769F0898D9A8DFC014285538589
:1020C0006485758541505109610971090E94630A4F
:1020D000C801DF91CF911F910F910895089590E06D
:1020E00080E00895CF93DF93FB0122813381DC01EF
:1020F00013963C932E931297448155816681778184
:1021000014964D935D936D937C93179740855185FD
:102110006285738518964D935D936D937C931B97A1
:102120001C96EF012C969C01275E3F4F49914D93E1
:10213000A217B307D9F7218D328DFC01328F218F81
:10214000DF91CF9108951F93CF93DF9300D000D0FC
:10215000CDB7DEB78CE895E00E94D3008CE895E01F
:102160000E94D30010E08A3379F0E1E0F0E0EC0F58
:10217000FD1FE10FF11D17FDFA9580831F5F8CE8AD
:1021800095E00E94D300EFCFCE0101960E94DC1FA4
:10219000182F8CE895E00E94D3008053990B823071
:1021A000910520F4682F812F0E94F6018CE895E0BC
:1021B0000E94D3008A3011F08D30C1F78CE895E091
:1021C0000E94E7008A3021F48CE895E00E94D30059
:1021D0000F900F900F900F90DF91CF911F91089566
:1021E000FB0101900020E9F73197AF01461B570B27
:1021F000DC01ED91FC910280F381E02D09948F9236
:102200009F92AF92BF92EF92FF920F931F93CF9343
:10221000DF93CDB7DEB7A1970FB6F894DEBF0FBE40
:10222000CDBF7C01FA01CB0119A2223008F42AE0CB
:102230008E010F5D1F4F822E912CB12CA12CBF015E
:10224000A50194010E940220F901CA016A300CF52F
:10225000605DD8016E938D01232B242B252B79F7FC
:1022600090E080E0109721F0BD01C7010E94F010BE
:10227000A1960FB6F894DEBF0FBECDBFDF91CF9110
:102280001F910F91FF90EF90BF90AF909F908F9014
:102290000895695CDECF0C94F0100F931F93CF93D9
:1022A0008C01C62F0E941C046C2F6460C8010E9420
:1022B0001C046C2F6B7FC8010E941C0483EC90E00F
:1022C0000197F1F7CF911F910F9108950F931F93ED
:1022D000CF93DF938C01D62FC42F607F642B0E9495
:1022E0004D1180E1D89FB00111246C2BC801DF9102
:1022F000CF911F910F910C944D11CF93DF93CDB7D8
:10230000DEB728970FB6F894DEBF0FBECDBF98E0BA
:10231000E4E3F1E0DE01119601900D929A95E1F768
:1023200090915607961710F46FEF690F262F30E043
:10233000220F331F41E050E04C0F5D1F240F351F6B
:10234000F9016081680F606840E08EE497E02896AC
:102350000FB6F894DEBF0FBECDBFDF91CF910C94C6
:102360006611CF92DF92EF92FF920F931F93CF935C
:10237000DF93CDB7DEB765970FB6F894DEBF0FBE1B
:10238000CDBF7C01FC0101900020E9F731978F015E
:10239000081B190BBC010531110540F144E150E067
:1023A000CE0101966C010E94B7211D8A60E080E099
:1023B0000E947D11B6018EE497E00E944B1184E1EA
:1023C000F60111928A95E9F704511109B7016C5E83
:1023D0007F4FA801C6010E94B721F601E00FF11F4F
:1023E000108261E080E00E947D11B6018EE497E0EA
:1023F0000E944B1165960FB6F894DEBF0FBECDBF9D
:10240000DF91CF911F910F91FF90EF90DF90CF90D0
:10241000089540E061E08EE497E00E9466118BE34E
:102420009FE10197F1F7089541E00E94661181E074
:1024300090E00895CF92DF92EF92FF921F93CF9397
:10244000DF93EC0180E2689FF0011124E657FC4F16
:102450009385917161F0842F827449F080E0DF915F
:10246000CF911F91FF90EF90DF90CF900895142FA0
:102470006A8B8091000190910101A0910201B091BD
:1024800003018E879F87A88BB98BC488D588F12CD0
:10249000E12C7601DD24CC24CF8AD88EE98EFA8E09
:1024A000828D938DB0E0A0E0AC01BD014C295D2987
:1024B0006E297F294F8B588F698F7A8F838588711A
:1024C000B1F4848D958DA68DB78D8B8B9C8BAD8B48
:1024D000BE8B81E08D831F701C831E821F82188635
:1024E00019861A861B861C861D8681E0B8CF80312E
:1024F00009F0B4CF9E012D5E3F4F8B8D9C8D0E94C5
:10250000A409882309F4AACF84E0E4CF85ED809361
:10251000BC0080916B0290916C02A0916D02B09111
:102520006E020796A11DB11D23E0B695A79597955C
:1025300087952A95D1F72091BC0024FD03C0109205
:10254000B402089540916B0250916C0260916D024B
:1025500070916E02452B462B472B69F30097A1051E
:10256000B10541F025E32A95F1F700000197A10993
:10257000B109E1CF80916A020C9476033F924F92A9
:102580005F926F927F928F929F92AF92BF92CF9203
:10259000DF92EF92FF920F931F93CF93DF93CDB70C
:1025A000DEB72B970FB6F894DEBF0FBECDBF7C0110
:1025B000FE013196CE010C966F0130E23193E8179F
:1025C000F907E1F7DA0130E087E09D91B92E992310
:1025D00009F43CC09E32F1F48A30C9F480E02B96B5
:1025E0000FB6F894DEBF0FBECDBFDF91CF911F9124
:1025F0000F91FF90EF90DF90CF90BF90AF909F90A2
:102600008F907F906F905F904F903F90089538E04B
:102610008AE0DBCFE8E6F0E04491442321F03196F4
:102620009413FACFDBCF8317C8F24FED490F4E3525
:10263000A8F64FE9490F4A3118F440EEB42EB90E0E
:10264000F601E30FF11DB0823F5FBFCF8981803279
:1026500029F2322E8B01DB015B968D919C915C9768
:10266000F701948F838F16961D921D921D921C92D6
:102670001997FB011286138614861586F801828548
:102680009385A485B585438954896589768984179E
:102690009507A607B70708F04DC025E0B695A795A2
:1026A000979587952A95D1F7F82FFF70AF2ED8010F
:1026B00015968C91823008F491CFC8010E942910A0
:1026C00097FD8CCFF80182859385A485B5854F96BB
:1026D000A11DB11D82879387A487B587F0E2AF9EC5
:1026E000B001112466577C4F6115710509F476CF4E
:1026F000DB018C91882341F0853E09F062C0BB204C
:1027000029F0BB24B394BACFB1100EC0F701A28A4E
:102710008091000190910101A0910201B09103010B
:1027200086879787A08BB18BDB018C918111E9CFD4
:10273000BB24B394832D8271823109F04FCFBB202B
:1027400009F44DC0F701668577858089918941E05C
:102750000E940E07882309F441CFD70152968C912D
:10276000B0E28B9FC001112486579C4F009709F45B
:1027700035CFFC013A9626E1DF011D922A95E9F753
:102780002BE0F601DC0101900D922A95E1F721E2A0
:1027900038E2FC01318B208B40E058E057874687B8
:1027A000338B228B318F208F578B468B81E00E9499
:1027B000E306882309F412CF432DD70152966C917A
:1027C0000AC04BE050E0C6010E948821892B09F025
:1027D00055CF432D6A2DC7010E941A1200CFF80170
:1027E0008581823009F4FACEC8010E94090B882342
:1027F00009F4F4CED8015B96ED91FC915C971696A6
:102800008D909D90AD90BC901997B2E08B1A910875
:10281000A108B108858504C0880C991CAA1CBB1CA2
:102820008A95D2F786859785A089B189880E991EE9
:10283000AA1EBB1E848124013501480E511C611C57
:10284000711C84149504A604B70409F1E1E04E1A42
:1028500051086108710881E00E94E306882309F4A9
:10286000BDCEEAE8F3E011928AE895E08E179F0763
:10287000D1F74092000150920101609202017092E2
:10288000030180912302816080932302DACFD80173
:102890005B96ED91FC91258580E092E0A0E0B0E0B0
:1028A00004C0880F991FAA1FBB1F2A95D2F7F801F1
:1028B0004389548965897689840F951FA61FB71FA0
:1028C000838B948BA58BB68BD70152961C928AE88A
:1028D00093E04FCFCF93DF93EC01898D9A8D0097D2
:1028E00041F00E94B40D898D9A8D0E94FF201A8EAE
:1028F000198EDF91CF910895EF92FF920F931F935E
:10290000CF93DF93EC017B018A011B821A8288EE50
:1029100093E0A0E0B0E08C839D83AE83BF8384E727
:1029200091E0998388838DE190E00E9463209A8FE3
:10293000898F009779F02DE1F701DC0101900D926C
:102940002A95E1F74CE050E0B801CE010C960E94C8
:10295000B721188EDF91CF911F910F91FF90EF90CB
:1029600008952F923F924F925F926F927F928F9233
:102970009F92AF92BF92CF92DF92EF92FF920F930E
:102980001F93CF93DF93CDB7DEB7C756D1090FB6EC
:10299000F894DEBF0FBECDBF6C015B01A6964FAFB2
:1029A000A69719A218A288E691E09F8F8E8F1BA28E
:1029B0001C821B829A8389831E824E018EE1880EBF
:1029C000911CC4010E940F0A75018E010F5F1F4FF9
:1029D000240118016FE270E0C7010E949521009761
:1029E00009F45DC0F70120812F3271F4FFEFEF1A77
:1029F000FF0A902F812F8201492E582E942D852D6C
:102A00002801092F182FE6CF8E198D3008F08CE0A1
:102A1000682E712CA301B701CE01885A9F4F0E94E6
:102A2000B721E8E5F0E0EC0FFD1FE60DF71D108281
:102A3000C8010E94B40DF8018581882301F11EAE02
:102A40001DAE88E691E09CAF8BAF21961FAE21971B
:102A5000A896EEADFFADA897AE0EBF1EF501808122
:102A600081112AC0BE01655C7F4FC1010E946D0FBC
:102A70004EE851E0B101C6010E947C143BC021E048
:102A8000AE01485A5F4FB201C8010E94BE128823AE
:102A9000B1F2E60CF71CC2010E94B40DAFCFC70122
:102AA0008A199B09A8969FAF8EAFA897B201CE0155
:102AB000CB960E946D0FCCCF19A218A288E691E0A8
:102AC0009F8F8E8F1BA221968FAD219781112DC0D4
:102AD000F6011382128288EE93E0A0E0B0E08483D6
:102AE0009583A683B78384E791E091838083128ED8
:102AF000118E1486C601C959DF4F0FB6F894DEBF98
:102B00000FBECDBFDF91CF911F910F91FF90EF903E
:102B1000DF90CF90BF90AF909F908F907F906F90FD
:102B20005F904F903F902F900895A6962FADA69757
:102B3000A501BE01655C7F4FC4010E94BE128823BF
:102B400039F2CE01CB960E94B40DA6968FADA69712
:102B50008670863039F449A95AA96BA97CA9C401A9
:102B60000E94630AB401C1010E946D0FA50182CFCA
:102B70001F920F920FB60F9211242F933F934F93F2
:102B80005F936F937F938F939F93AF93BF93EF93D5
:102B9000FF938CE895E00E941501FF91EF91BF91A2
:102BA000AF919F918F917F916F915F914F913F91E5
:102BB0002F910F900FBE0F901F9018951F920F929C
:102BC0000FB60F9211242F938F939F93EF93FF9340
:102BD000E0919C05F0919D058081E091A205F09126
:102BE000A30582FD1BC090818091A5058F5F8F7327
:102BF0002091A605821741F0E091A505F0E0E45789
:102C0000FA4F958F8093A505FF91EF919F918F913A
:102C10002F910F900FBE0F901F9018958081F4CFC9
:102C20001F920F920FB60F9211242F933F938F9301
:102C30009F93AF93BF938091DB029091DC02A091B0
:102C4000DD02B091DE023091DA0223E0230F2D374E
:102C500058F50196A11DB11D2093DA028093DB0285
:102C60009093DC02A093DD02B093DE028091DF023C
:102C70009091E002A091E102B091E2020196A11DC3
:102C8000B11D8093DF029093E002A093E102B09324
:102C9000E202BF91AF919F918F913F912F910F9041
:102CA0000FBE0F901F90189526E8230F0296A11DC6
:102CB000B11DD2CF1F920F920FB60F9211242F93F6
:102CC0003F934F935F936F937F938F939F93AF93B4
:102CD000BF93EF93FF93E0910601F09107010995EF
:102CE000FF91EF91BF91AF919F918F917F916F91E4
:102CF0005F914F913F912F910F900FBE0F901F90BA
:102D000018951F920F920FB60F9211242F933F9395
:102D10004F935F936F937F938F939F93AF93BF93E3
:102D2000EF93FF93E0910401F09105010995FF9164
:102D3000EF91BF91AF919F918F917F916F915F9133
:102D40004F913F912F910F900FBE0F901F901895AC
:102D50001F920F920FB60F9211242F933F934F9310
:102D60005F936F937F938F939F93AF93BF93EF93F3
:102D7000FF938091B900887F803609F44AC0F0F54E
:102D8000883209F4A7C018F5803109F49BC0B8F463
:102D9000882309F4F9C0883009F494C0FF91EF91B9
:102DA000BF91AF919F918F917F916F915F914F9163
:102DB0003F912F910F900FBE0F901F901895883163
:102DC00009F488C0803251F78093B30214C0803474
:102DD00009F49DC040F48033B9F38833F9F6809349
:102DE000B30285ECB0C0803509F485C0883509F49C
:102DF00096C0883499F60E948612D0CF883909F49B
:102E00008CC038F5883729F050F4883611F08037B7
:102E100029F683E08093B4021092B20257C088383A
:102E200009F47BC0803919F0803809F0B7CF809160
:102E3000B202803208F071C0E091B20281E08E0FE0
:102E40008093B2028091BB00F0E0EE56FD4F80838C
:102E50003DC0803B39F0E0F4803A09F479C0883A0B
:102E600009F09CCF84E08093B402109291021092FA
:102E70009002E091E502F091E602099580919002BE
:102E800081110FC081E0809390021092700209C0FE
:102E9000803C09F4A6CF883C09F4A3CF883B09F015
:102EA0007DCFE091910281E08E0F80939102F0E05E
:102EB000E059FD4F80818093BB00909191028091F9
:102EC000900229C08091D9028093BB0085EC809349
:102ED000BC0064CF9091D8028091D702981758F522
:102EE000E091D80281E08E0F8093D802F0E0E9549F
:102EF000FD4F8081E9CFE091D80281E08E0F809371
:102F0000D8028091BB00F0E0E954FD4F808390919E
:102F1000D8028091D7029817C8F285E8D8CFE091FF
:102F2000D80281E08E0F8093D8028091BB00F0E040
:102F3000E954FD4F80838091B60281115CCF81E01E
:102F40008093B50284EA8093BC001092B40226CF2D
:102F500085EC8093BC001092B4028091B202803262
:102F600030F4E091B202F0E0EE56FD4F1082609135
:102F7000B20270E0E091E302F091E40282E992E0B3
:102F800009951092B2020ACF1092B30234CF1F9269
:102F90000F920FB60F9211242F933F934F935F938D
:102FA0008F939F93EF93FF9380910A0186FD3FC01B
:102FB00020916E03422F022E000C550B27FF4FC0AD
:102FC0008091ED022091EC0230E4839FC001112436
:102FD00082519D4F820F911DFC01808190E051959F
:102FE0004195510902C0959587954A95E2F79093CE
:102FF0008B0080938A009093890080938800809151
:10300000EC028F5F8093EC028091EC028034D0F070
:103010001092EC02E091ED02F0E0E85FFE4F91E0EB
:1030200090838091ED0289278093ED020BC08091FF
:10303000200291E08927809320028091200288233A
:1030400009F4B6CFFF91EF919F918F915F914F91CE
:103050003F912F910F900FBE0F901F901895809168
:10306000ED023091EC02F0E48F9FC00111248251F7
:103070009D4F830F911DFC01808190E002C0880F5D
:10308000991F2A95E2F7B3CF1F920F920FB60F92B6
:1030900011242F933F934F935F936F937F938F935D
:1030A0009F93AF93BF93EF93FF93E091ED0291E075
:1030B000E927F0E0E85FFE4F80818823D1F180911D
:1030C000ED02892780931F0280916F008F7D80938E
:1030D0006F00789480E896E00E94C60F20916F03FD
:1030E0003091700328173907A8F180910A0183FFF6
:1030F0000CC06CE270E080E090E00E94F70A8091E2
:103100006F00806280936F0014C080916F008E7D8D
:1031100080936F00E0919906F0919A06309739F00C
:103120008581882321F080E896E00E946A1410923D
:103130007103FF91EF91BF91AF919F918F917F911B
:103140006F915F914F913F912F910F900FBE0F9014
:103150001F90189560911F028091990690919A0690
:10316000009751F020E4629FB001112462517D4F1D
:1031700040E450E00E94090CE0911F02F0E0E85F9B
:10318000FE4F1082BCCFECE8F5E01382128288EE8D
:1031900093E0A0E0B0E084839583A683B78324E422
:1031A00031E03183208325EC30E03587248724EC1F
:1031B00030E03787268720EC30E0318B208B21EC04
:1031C00030E0338B228B22EC30E0358B248B26ECE5
:1031D00030E0378B268B118E128E138E148EE9E21F
:1031E000F6E01382128284839583A683B78326E553
:1031F00031E031832083E5E3F6E020E5208311828E
:10320000E7E3F6E0158216821186138642E050E06D
:1032100060E070E0448755876687778713A215A61C
:1032200014A628E631E033A722A717A6E0E8F6E0C7
:103230001382128284839583A683B78324E731E0C7
:1032400031832083128E118E1486EBE9F6E016820C
:1032500017821086118612861386148615861686A6
:103260001786108A118A128A138A148A158AEEE444
:10327000F7E01382128246E851E05183408347E22F
:10328000448344E1418744E0428713861092240737
:1032900010924D07E1EEF6E013821282848395834B
:1032A000A683B78331832083128E118E14860895EE
:1032B000CF93DF93CDB7DEB7A1970FB6F894DEBFFB
:1032C0000FBECDBF789484B5826084BD84B5816023
:1032D00084BD85B5826085BD85B5816085BD8091E1
:1032E0006E00816080936E00109281008091810059
:1032F0008260809381008091810081608093810051
:10330000809180008160809380008091B100846012
:103310008093B1008091B00081608093B000809173
:103320007A00846080937A0080917A008260809332
:103330007A0080917A00816080937A0080917A008F
:10334000806880937A001092C1001092DD0610927E
:10335000DE061092DF061092E00610929D06109293
:103360009E0610929F061092A0060E9424034B0115
:103370005C017C016B0128EBC20E2BE0D21EE11C2C
:10338000F11C0E942403681579058A059B0528F025
:10339000C616D706E806F906A0F768EE73E080E0E7
:1033A00090E00E947A02E0919C05F0919D0582E0F8
:1033B0008083E0919805F09199051082E0919A053B
:1033C000F0919B0580E180831092A405E091A00517
:1033D000F091A10586E08083E0919E05F0919F0524
:1033E000808180618083E0919E05F0919F058081BE
:1033F00088608083E0919E05F0919F0580818068C0
:103400008083E0919E05F0919F0580818F7D808370
:103410000E94240360939D0670939E0680939F06EE
:103420009093A00660E971E08CE895E00E944B1152
:103430000E9424034B015C017C016B013AE0C30E46
:10344000D11CE11CF11C0E942403681579058A0532
:103450009B0528F0C616D706E806F906A0F781E016
:103460008093B1060E94240360939D0670939E068C
:1034700080939F069093A00661EA71E08CE895E046
:103480000E944B1161E087E00E94240268EA71E02B
:103490008CEF96E00E94A02168EC71E085E297E055
:1034A0000E94A0211092EA021092E9021092E80212
:1034B0001092E7020E94580382EC90E09093E6029B
:1034C0008093E50283EC90E09093E4028093E30222
:1034D0001092530780915807823018F098E090932B
:1034E00053078093560762E370E080E090E00E940B
:1034F0007A02609159078EE497E00E941C0468EEFE
:1035000073E080E090E00E947A0260E38EE497E04E
:103510000E944D110BE416E4C8010197F1F760E336
:103520008EE497E00E944D11C8010197F1F760E326
:103530008EE497E00E944D1183E592E00197F1F748
:1035400060E28EE497E00E944D1160915307606243
:1035500040E08EE497E00E94661184E08093540777
:1035600040E06CE08EE497E00E9466110E94091230
:1035700012E01093550740E066E08EE497E00E9469
:10358000661140E062E08EE497E00E9466118BE3F2
:103590009FE10197F1F788E08093590760E08EE49E
:1035A00097E00E941C0489E08093730310936E03DC
:1035B00060E082E00E94240260E083E00E94240236
:1035C0008CEA92E090930501809304018091690058
:1035D0008C7F816080936900E89A8BED92E09093F4
:1035E00007018093060180916900837F8460809346
:1035F0006900E99A80903C0190903D01A0903E01C5
:10360000B0903F018E8E9F8EA8A2B9A2B4EFCB2EB0
:10361000DD24D394E12CF12C9E012B5F3F4F3D8F95
:103620002C8F0E942403672B682B692B09F407C198
:103630000E94240300918603109187032091880340
:1036400030918903601771078207930708F4A4C1BA
:10365000009186031091870320918803309189039C
:103660004B015C01801A910AA20AB30A95018401F8
:103670000A3F11052105310508F4E9C0609386036E
:10368000709387038093880390938903C092A9065F
:10369000D092AA06E092AB06F092AC061092AD066C
:1036A0001092AE061092AF061092B0068091A1065D
:1036B0009091A206A091A306B091A4068093A506BE
:1036C0009093A606A093A706B093A8060E94240391
:1036D0006093A1067093A2068093A3069093A4061C
:1036E0008CE895E00E94E700843611F40E94A31054
:1036F0000E94240360939D0670939E0680939F060C
:103700009093A0060E9424034B015C0165EE71E0DA
:103710008CE895E00E944B112AE041E050E060E027
:1037200070E08CE895E00E94FF106CEE71E08CE890
:1037300095E00E944B112AE0B501A4018CE895E0C8
:103740000E94FF106EEE71E08CE895E00E944B1134
:103750008091A1069091A206A091A306B091A40623
:10376000B501A401481B590B6A0B7B0B2AE08CE8BE
:1037700095E00E94FF106EEE71E08CE895E00E94EB
:103780004B114091A1065091A2066091A306709141
:10379000A4068091A5069091A606A091A706B091D7
:1037A000A806481B590B6A0B7B0B2AE08CE895E0B6
:1037B0000E94FF1060EF71E08CE895E00E944B11D1
:1037C0000E942403AB01BC012AE08CE895E00E9432
:1037D000FF1062EF71E08CE895E00E94F01069EF55
:1037E00071E08CE895E00E94F0100E9424034B01E8
:1037F0005C012B013C0125E0420E511C611C711C37
:103800000E942403681579058A059B0528F0461651
:10381000570668067906A0F78CE895E00E94E70055
:10382000843611F40E94A3100E9424036093A10621
:103830007093A2068093A3069093A40608C00E94EA
:103840002403623071058105910508F0F1CE809165
:103850006606882321F081E696E00E94B40D10925E
:1038600042061092400610923D0610923C068AE0F5
:1038700080933B060E9424038B0161E080913B060C
:103880000E94240261E080913B060E94F601BFB6CF
:10389000F8948091EB02811127C0E8ECF0E084916C
:1038A000E4EBF0E09491E82FF0E0EE0FFF1FE0561C
:1038B000FF4FA591B4918C91982321F461E08AE0A7
:1038C0000E94F60161E08AE00E9424028CB58061CA
:1038D0008CBD8CB580648CBD61E08DE00E942402BB
:1038E00061E08BE00E9424028091EB028F5F809365
:1038F000EB02BFBE82E580933506109236068091BA
:103900003506909136060E943905EAE0BE2E8FEF0B
:103910000E941405BA94B110FACF87E396E00E9492
:103920003C0520E030E0A90160E087E396E00E94DA
:103930005205B82E80934106F1E08F17B1F10E9435
:103940002403601B710B613D774058F381E0809345
:103950003C0687E396E00E9409050E94091260E098
:1039600080E00E947D116CEF71E08EE497E00E9490
:103970004B1165E070E080E090E00E947A0280E008
:1039800090E0892B09F44DCE0E940101882309F4AF
:1039900043CE0E94000040CE60938603709387035D
:1039A000809388039093890353CE2AEA31E040E064
:1039B00050E068E087E396E00E94520582FF2AC04B
:1039C000B092420680914206812C912CA12C60E499
:1039D000B62E823019F0812C912C540120E030E079
:1039E000A90167E387E396E00E945205A5019401CF
:1039F00069E287E396E00E9452058093410688239E
:103A0000D1F00E942403601B710B613D774030F3BD
:103A100088E09DCF74E0B72E0E941B05809341067D
:103A2000BA94B110F9CF8A3A11F082E090CF82E0D7
:103A300080934206C7CF809142068230D1F420E0C5
:103A400030E0A9016AE387E396E00E9452058823EB
:103A500011F086E07CCF0E941B05807C803C19F42D
:103A600083E0809342060E941B050E941B050E9472
:103A70001B0587E396E00E94090580E580933506E3
:103A80001092360681E00E945807882309F4B2C0DC
:103A900081E696E00E940F0A882309F45ECF8091A8
:103AA0002C0190912D012091840330918503821780
:103AB000930709F0A6C050912B0140918303541342
:103AC000A0C00091810320918203201709F451CFF7
:103AD0008130910509F4BFC008F4ACC0029709F029
:103AE00098C047E16BE072E0CE0101960E94B114EC
:103AF000BE016F5F7F4F81EE96E00E9472100E94C0
:103B000009128BE091E00E94B1118091240740914D
:103B10004D0750E0BAE08B9F400D511D112470E01D
:103B200060E02AE081EE96E00E94FF1069EF71E00C
:103B300081EE96E00E94F0101092830310928103B0
:103B400081EE96E00E946A149091730380917A034B
:103B5000981709F4EAC01092710380916F008E7D6E
:103B600080936F0080E896E00E946A148091800044
:103B700090E0880F892F881F990B019709F0AFC03B
:103B8000809188009091890050E040E02091780376
:103B9000309179034217530708F0A1C070E060E04C
:103BA00097FD05C0B9018217930708F4BC01709313
:103BB0008B0060938A0070E060E097FD05C0B9015A
:103BC0008217930708F4BC01709389006093880002
:103BD000225331096AE070E0E0918400F0918500A1
:103BE000E217F307C8F361507109B1F74F5F5F4FF8
:103BF0000197CCCF80E00E945807882309F4ADCE0E
:103C000047CF2130310509F1A8F02230310509F400
:103C100068CF809184039091850390932D018093C8
:103C20002C018091830380932B01809181038093E9
:103C300082039FCE0E94091260E082E00E947D1103
:103C400085E291E00E94B111E4CF8091820300915E
:103C50008103801799F0AA24A394B12C10E00A15CF
:103C60001B058CF041E050E064E271E08BE793E0EB
:103C70000E94A7216FEFA61AB60AF1CF80918303A5
:103C8000882349F3C6CF0E94091260E080E00E94B9
:103C90007D118091830319E2819FC001112484501A
:103CA000994F0E94B11162E085E00E947D116BE79F
:103CB00073E08EE497E00E944B11E09183031E9F16
:103CC000F0011124E450F94F8091810380A7EBE7C4
:103CD000F3E085E0DF011D928A95E9F79ACF8091A4
:103CE0000A01806280930A01109281001092800084
:103CF00061E0809173030E942402809173038630F7
:103D000009F414C18E3209F413C1853009F012C1CF
:103D100081E0809372038DB581608DBD8CB58C7F01
:103D20008CBD8091730380937A031092710380910C
:103D30006F008E7D80936F0080E896E00E946A1489
:103D400041E066E172E0CE0101960E94B114BE012D
:103D50006F5F7F4F80E896E00E94721068E070E02D
:103D600080E090E00E94F70A8E8C9F8CA8A0B9A0FA
:103D700089829A82AB82BC828E010F5F1F4F80E8DE
:103D800096E00E944010D8012D918D01022E000C6A
:103D9000330B8217930729F48C8C9D8CA815B905D9
:103DA00071F768E170E080E090E00E94F70A80E837
:103DB00096E00E944010909377038093760380E80A
:103DC00096E00E944010382E212C8091760390912D
:103DD00077038229932990937703809376036CE28B
:103DE00070E080E090E00E94F70A30E4A32EB12C4E
:103DF000B0927003A0926F0381E080937103809171
:103E00000A01982F9F7790930A01209176033091B1
:103E100077032B3F3F4A30F0A0ECBDE5B09377032A
:103E2000A0937603209176033091770350E040E031
:103E300086FF83C060E075E38CE090E00E943E2046
:103E40006AE0629FC001639F900D112490937903F3
:103E50008093780380E896E00E9440108C0180E80F
:103E600096E00E944A10800F911F97FD019695954C
:103E7000879530916E03432F032E000C550B1316BC
:103E80000CF060C04091880050918900FA0102C096
:103E9000F695E7953A95E2F79F01992750E040E0C3
:103EA0002817390708F05BC02F5F3F4F8217930731
:103EB00008F49C01FA01E251FD4F20834F5F5F4FF0
:103EC0004034510589F750E040E02F5F3F4F8217A3
:103ED000930708F49C01FA01E25DFC4F20834F5FD9
:103EE0005F4F4034510589F71092ED02109208019E
:103EF000109209011092EC02F8948091780390914D
:103F00007903909387008093860082EB80938000F2
:103F100089E18093810081E280936F00789468EC5E
:103F200072E380E090E00E947A0273CE82E0F1CEEC
:103F300083E0EFCE10927203EECE60E07AE688E185
:103F400090E07CCF20918800309189005195419577
:103F5000510902C0220F331F4A95E2F79ECFB901E3
:103F6000615071096817790718F12115310509F0B9
:103F70009B01FA01E251FD4F20834F5F5F4F4034B8
:103F8000510569F750E040E0B901615071096817C7
:103F9000790780F02115310509F09B01FA01E25DF6
:103FA000FC4F20834F5F5F4F4034510569F79CCF32
:103FB0009C01DFCF9C01F2CFFC0188279927E89470
:103FC00021912032E9F3293010F02E30C8F32B3242
:103FD00041F02D3239F4689404C00E94FA1F820F18
:103FE000911D219120532A30C0F31EF490958195A4
:103FF0009F4F08957AE0979F902D879F802D910D78
:1040000011240895A1E21A2EAA1BBB1BFD010DC0AD
:10401000AA1FBB1FEE1FFF1FA217B307E407F50778
:1040200020F0A21BB30BE40BF50B661F771F881F54
:10403000991F1A9469F760957095809590959B01EA
:10404000AC01BD01CF0108950E942F20A59F900DC6
:10405000B49F900DA49F800D911D11240895A29FDF
:10406000B001B39FC001A39F700D811D1124911D4C
:10407000B29F700D811D1124911D0895052E97FB8F
:104080001EF400940E94552057FD07D00E94022084
:1040900007FC03D04EF40C94552050954095309574
:1040A00021953F4F4F4F5F4F0895909580957095A4
:1040B00061957F4F8F4F9F4F0895EE0FFF1F059023
:1040C000F491E02D09940F931F93CF93DF938230E7
:1040D000910510F482E090E0E0915C07F0915D07BB
:1040E00030E020E0B0E0A0E0309799F421153105F0
:1040F00009F44AC0281B390B24303105D8F58A81D0
:104100009B816115710589F1FB0193838283FE0117
:1041100011C0408151810281138148175907E0F095
:104120004817590799F4109761F012960C9312975B
:1041300013961C933296CF01DF91CF911F910F916F
:10414000089500935C0710935D07F4CF21153105A6
:1041500051F04217530738F0A901DB019A01BD0164
:10416000DF01F801C1CFEF01F9CF90935D07809394
:104170005C07CDCFFE01E20FF31F81939193225094
:10418000310939832883D7CF20915A0730915B07B3
:10419000232B41F4209130013091310130935B07A2
:1041A00020935A0720912E0130912F0121153105BE
:1041B00041F42DB73EB74091320150913301241B99
:1041C000350BE0915A07F0915B07E217F307A0F473
:1041D0002E1B3F0B2817390778F0AC014E5F5F4F5D
:1041E0002417350748F04E0F5F1F50935B0740932D
:1041F0005A07819391939FCFF0E0E0E09CCFCF935B
:10420000DF930097E9F0FC01329713821282A091AC
:104210005C07B0915D07ED0130E020E01097A1F45C
:1042200020813181820F931F20915A0730915B07C3
:104230002817390709F061C0F0935B07E0935A072C
:10424000DF91CF910895EA01CE17DF07E8F54A81A3
:104250005B819E0141155105B1F7E901FB83EA83BA
:1042600049915991C40FD51FEC17FD0761F4808166
:1042700091810296840F951FE90199838883828139
:1042800093819B838A83F0E0E0E012968D919C916C
:1042900013970097B9F52D913C911197CD01029696
:1042A000820F931F20915A0730915B072817390717
:1042B00039F6309751F510925D0710925C07B09374
:1042C0005B07A0935A07BCCFD383C283408151813F
:1042D000840F951FC817D90761F44E5F5F4F88811F
:1042E0009981480F591F518340838A819B81938311
:1042F00082832115310509F0B0CFF0935D07E0937B
:104300005C079ECFFD01DC01C0CF13821282D7CFA4
:10431000FB01DC0104C08D910190801921F4415012
:104320005040C8F7881B990B0895FC0181918617AE
:1043300021F08823D9F7992708953197CF0108955F
:10434000FB01DC0101900D920020E1F70895FB01D3
:10435000DC010D900020E9F711974150504028F002
:10436000019000200D92C9F708951C920895FB0159
:10437000DC014150504048F001900D920020C9F7F7
:1043800001C01D9241505040E0F70895F894FFCFCE
:10439000FFFFFFFF300330030101605468616E6B63
:1043A0007320666F7220646F207375727665792052
:1043B000212121002A48656C6C6F00FF020000007B
:1043C0005E0780000000400014005400574156452D
:1043D0000000000037019400C4008401F500D30000
:1043E000E70000000000ED03C0036F10C100B90337
:1043F000A6039703000000005C0F9400560D6E109A
:10440000000000001310F60FE60FBD0FC60F40109E
:104410004A1000000000141294006F106E102F005C
:10442000564D4450565F317C315F564D4450560ACC
:1044300000564D4450525F00312E68656C6C6F2001
:10444000686F772061726520686F77206F6C6420D9
:1044500061726520796F7500312E686920686F7709
:104460002061726520686F77206F6C6420617265CF
:1044700020796F7500564D4450455F003A323A003E
:104480007C005F564D445045000D0A005344206E99
:104490006F7420666F756E642021007265636F72A1
:0C44A000642E74787400342E776176006E
:107E0000112484B714BE81FFF0D085E080938100F7
:107E100082E08093C00088E18093C10086E0809377
:107E2000C20080E18093C4008EE0C9D0259A86E02C
:107E300020E33CEF91E0309385002093840096BBD3
:107E4000B09BFECF1D9AA8958150A9F7CC24DD24C4
:107E500088248394B5E0AB2EA1E19A2EF3E0BF2EE7
:107E6000A2D0813461F49FD0082FAFD0023811F036
:107E7000013811F484E001C083E08DD089C08234E0
:107E800011F484E103C0853419F485E0A6D080C0E4
:107E9000853579F488D0E82EFF2485D0082F10E0AE
:107EA000102F00270E291F29000F111F8ED06801E7
:107EB0006FC0863521F484E090D080E0DECF843638
:107EC00009F040C070D06FD0082F6DD080E0C81688
:107ED00080E7D80618F4F601B7BEE895C0E0D1E017
:107EE00062D089930C17E1F7F0E0CF16F0E7DF06D8
:107EF00018F0F601B7BEE89568D007B600FCFDCFD4
:107F0000A601A0E0B1E02C9130E011968C91119780
:107F100090E0982F8827822B932B1296FA010C0160
:107F200087BEE89511244E5F5F4FF1E0A038BF0790
:107F300051F7F601A7BEE89507B600FCFDCF97BE46
:107F4000E89526C08437B1F42ED02DD0F82E2BD052
:107F50003CD0F601EF2C8F010F5F1F4F84911BD097
:107F6000EA94F801C1F70894C11CD11CFA94CF0C13
:107F7000D11C0EC0853739F428D08EE10CD085E9AC
:107F80000AD08FE07ACF813511F488E018D01DD067
:107F900080E101D065CF982F8091C00085FFFCCF94
:107FA0009093C60008958091C00087FFFCCF809118
:107FB000C00084FD01C0A8958091C6000895E0E648
:107FC000F0E098E1908380830895EDDF803219F02E
:107FD00088E0F5DFFFCF84E1DECF1F93182FE3DFCA
:107FE0001150E9F7F2DF1F91089580E0E8DFEE27F6
:047FF000FF270994CA
:027FFE00040479
:0400000300007E007B
:00000001FF