:10000000F5C000000C9488080C945D080C9432082C
:10001000FEC70000D1C70000A4C7000077C70000DA
:100020004AC7000014C1000012C1000010C1000046
:100030000EC100000CC100000AC1000008C1000090
:1000400006C1000004C1000002C1000000C10000A0
:10005000FEC00000FCC00000FAC00000E2C60000C4
:10006000F6C00000A8C600007DC60000F0C0000079
:10007000EEC00000ECC00000EAC00000E8C00000D4
:10008000E6C00000E4C00000E2C00000E0C00000E4
:10009000DEC00000DCC00000DAC000000C94B30831
:1000A000D6C00000D4C00000D2C00000D0C0000004
:1000B000CEC00000CCC00000CAC00000C8C0000014
:1000C000C6C00000C4C00000C2C00000C0C0000024
:1000D000BEC00000BCC00000BAC00000B8C0000034
:1000E000B6C0000000000A0B02090C0D0E08070341
:1000F00004010000000000000000000000000000FB
:1001000000000000000000000000000000000000EF
:1001100012111000000000000000000000000000AC
:100120000000000000000000000000002200250088
:1001300028002B002E0031003400020100000501D0
:1001400008010B0100002100240027002A002D00D7
:100150003000330001010000040107010A01050518
:100160000505070508080808020202020A0A08082D
:10017000040404040101010101010101030303035B
:1001800003030303040707070C0C0C0C0C0C0C0CEA
:100190000202020206060606060606060B0B0B0BFB
:1001A0000B0B0B0B01021020200808102040102020
:1001B000408002010201080402010102040810202B
:1001C0004080804020100804020180040201804029
:1001D0002010080402010804020101020408102092
:1001E00040800102040810204080D60911241FBE5F
:1001F000CFEFD1E2DEBFCDBF00E00CBF24E0ACE921
:10020000B2E001C01D92A936B207E1F712E0A0E00A
:10021000B2E0ECE9FBE100E00BBF02C007900D92F9
:10022000AC39B107D9F710E0C6EFD0E000E006C066
:1002300021970109802FFE010E94B40DC53FD1070F
:1002400080E00807A9F70E94300A0C94CC0DD8CEA4
:10025000CF93DF9390E0FC01EC55FE4F2491825A3E
:100260009E4FFC0184918823C1F090E0880F991F74
:10027000FC01EC5BFE4FC591D491FC01E65DFE4FA5
:10028000A591B4919FB7F8948881E22FE0958E23D1
:1002900088838C91E823EC939FBFDF91CF910895E1
:1002A000AF92BF92CF92DF92EF92FF920F931F9384
:1002B000CF93DF936C017B018B01040F151FEB01C2
:1002C0005E01AE18BF08C017D10759F06991D60179
:1002D000ED91FC910190F081E02DC6011995892BDB
:1002E00079F7C501DF91CF911F910F91FF90EF90AA
:1002F000DF90CF90BF90AF9008950895089508952E
:10030000FC01538D448D252F30E0842F90E0821B1B
:10031000930B541710F0CF96089501970895FC01A0
:10032000918D828D981761F0A28DAE0FBF2FB11DF8
:100330005D968C91928D9F5F9F73928F90E0089550
:100340008FEF9FEF0895FC01918D828D981731F00A
:10035000828DE80FF11D858D90E008958FEF9FEF5E
:100360000895FC01918D228D892F90E0805C9F4F34
:10037000821B91098F73992708958EE693E0F1DF30
:1003800021E0892B09F420E0822F0895FC01A48D3F
:10039000A80FB92FB11DA35ABF4F2C91848D90E0A7
:1003A00001968F739927848FA689B7892C93A0898A
:1003B000B1898C91837080648C93938D848D981314
:1003C00006C00288F389E02D80818F7D80830895A7
:1003D000EF92FF920F931F93CF93DF93EC0181E095
:1003E000888F9B8D8C8D98131AC0E889F98980813C
:1003F00085FF15C09FB7F894EE89FF896083E8896F
:10040000F98980818370806480839FBF81E090E060
:10041000DF91CF911F910F91FF90EF900895F62EED
:100420000B8D10E00F5F1F4F0F731127E02E8C8D87
:100430008E110BC00FB607FCFACFE889F9898081CD
:1004400085FFF5CFCE01A2DFF2CFEB8DEC0FFD2FB4
:10045000F11DE35AFF4FF0829FB7F8940B8FEA89A2
:10046000FB8980818062D0CFCF93DF93EC01888DB0
:100470008823B1F0AA89BB89E889F9898C9185FD27
:1004800003C0808186FD0CC00FB607FCF7CF8C91AE
:1004900085FFF2CF808185FFEDCFCE0177DFEACFF8
:1004A000DF91CF91089580E090E0892B21F065DF06
:1004B00081110E94000080E090E0892B49F080E0EB
:1004C00090E0892B29F00E94000081110E94000019
:1004D00080E090E0892B49F080E090E0892B29F0C2
:1004E0000E94000081110E94000080E090E0892BB2
:1004F00049F080E090E0892B29F00E9400008111F2
:100500000C9400000895282F30E0F901EC51FF4FC2
:100510009491F901EC55FE4F4491225A3E4FF90156
:100520002491222309F435C0992311F1915092317D
:10053000F8F4E92FF0E08827EF55FD4F8F4F0C942A
:10054000B40DD202D602B302CA02CE02B802D90258
:10055000DF02E302E902ED02F102F702FB02B80258
:10056000FF0205030903809180008F77809380004C
:10057000E22FF0E0EE0FFF1FE65DFE4FA591B49174
:100580008FB7F894EC91611148C040954E234C937D
:100590008FBF0895809180008F7DE8CF809180008B
:1005A000877FE4CF84B58F7784BDE2CF84B58F7D1C
:1005B000FBCF8091B0008F778093B000D9CF80912E
:1005C000B0008F7DF9CF809190008F77809390005D
:1005D000CFCF809190008F7DF9CF80919000877F61
:1005E000F5CF8091A0008F778093A000C1CF80913C
:1005F000A0008F7DF9CF8091A000877FF5CF8091FB
:1006000020018F7780932001B3CF809120018F7DCF
:10061000F9CF80912001877FF5CF4E2BB8CF3FB720
:10062000F8948091530390915403A0915503B09195
:10063000560326B5A89B05C02F3F19F00196A11DB2
:10064000B11D3FBFBA2FA92F982F8827BC01CD011C
:10065000620F711D811D911D42E0660F771F881F7B
:10066000991F4A95D1F708958F929F92AF92BF92AA
:10067000CF92DF92EF92FF924B015C01D0DF6B01D2
:100680007C01CDDF6C197D098E099F09683E73409E
:1006900081059105B0F321E0821A9108A108B10803
:1006A00088EEC80E83E0D81EE11CF11C8114910471
:1006B000A104B10431F7FF90EF90DF90CF90BF908D
:1006C000AF909F908F9008952FB7F89460914F034B
:1006D0007091500380915103909152032FBF089560
:1006E000089520910403260F3327331F213231054B
:1006F000ECF420912803FC0190E080E0243069F0C4
:1007000082E00895A09104032191AC014C515D4F0A
:10071000A40FB52FB11D2C930196861798F38091E5
:100720000403680F6093040380E0089581E0089556
:100730001092280381E080932A031092290361E03C
:1007400084E1E1DE61E085E1DEDEE9EBF0E080817D
:100750008E7F808380818D7F808388E48093B80042
:1007600085E48093BC000895CF93DF9391E090934C
:10077000E3028823A1F0C091B800D091BA00809123
:10078000BC008A7B8093BC0060E084E1BCDE60E05A
:1007900085E1B9DECDDFD093BA00C093B800DF9118
:1007A000CF910895E0915E0380915D03E81730F4E6
:1007B000F0E0E254FD4F808190E008958FEF9FEFCD
:1007C000089590915E0380915D032FEF3FEF98179E
:1007D00048F4E92FF0E0E254FD4F208130E09F5FC4
:1007E00090935E03C901089580915D0390915E032B
:1007F000891B990B0895CF92DF92EF92FF920F938E
:100800001F93CF93DF937C01CB018A012091BD021E
:10081000222389F0EB016B01C40ED51ECC15DD053A
:1008200061F06991D701ED91FC910190F081E02D8B
:10083000C7011995F3CF642F54DFC801DF91CF9121
:100840001F910F91FF90EF90DF90CF900895CF937D
:10085000DF931F92CDB7DEB769832091BD022223BB
:10086000F9F020915B03203258F021E030E0FC01E8
:100870003383228390E080E00F90DF91CF91089541
:1008800080915C03E82FF0E0E356FD4F998190835F
:100890008F5F80935C0380935B0381E090E0ECCFFB
:1008A00061E0CE0101961DDFF8CFCF92DF92EF928B
:1008B000FF920F931F93CF93DF93FC01C48121E03C
:1008C0002093BD02C0939C0210925C0310925B03C4
:1008D0008385682B8BE094E0BADFD0915B03D13243
:1008E00008F08CC09CDE6B017C0180912803811193
:1008F00062C082E08093280381E080932A038FEF17
:100900008093270310924C03D0934B03ADE9B2E0E0
:10091000EBE2F3E080E0D81380C010924D038091A9
:100920004D03CC0FC82BC0934D0380912903813018
:1009300009F077C01092290372DE6B017C0180916F
:100940004D038093BB008091DF029091E002A09163
:10095000E102B091E202892B8A2B8B2B91F05FDEB2
:100960000091DF021091E0022091E1023091E20259
:100970006C197D098E099F09061717072807390783
:10098000D0F18091BC0083FDDACF85EC8093BC0070
:1009900046DE6B017C0180912803823009F443C05C
:1009A000809127038F3F51F180912703803231F1ED
:1009B0008091270323C08091DF029091E002A091F3
:1009C000E102B091E202892B8A2B8B2B09F48DCFA7
:1009D00026DE0091DF021091E0022091E1023091C9
:1009E000E2026C197D098E099F090617170728076F
:1009F000390708F07ACF8091DE02B6DE10925C03F0
:100A000010925B031092BD02DF91CF911F910F9165
:100A1000FF90EF90DF90CF9008959D9191938F5F1D
:100A20007ACF85EEB3CF8091DF029091E002A09162
:100A3000E102B091E202892B8A2B8B2B09F4ABCF18
:100A4000EEDD0091DF021091E0022091E102309191
:100A5000E2026C197D098E099F09061717072807FE
:100A6000390708F098CFC7CF089590E080E0089547
:100A700080916803909169038130910559F018F0D5
:100A80000297C1F0089581E090E09093690380930C
:100A900068030895809111028F5F80931102843062
:100AA00030F41092650387E080936603089582E036
:100AB00090E0EBCF81E080931102109269031092D5
:100AC000680308958091680390916903019751F438
:100AD000809165038F5F863018F4809365030895D5
:100AE0001092650308951F93CF93DF9300D01F9258
:100AF000CDB7DEB78EE693E012DC8EE693E00FDC36
:100B000010E08A3371F0E1E0F0E0EC0FFD1FE10F3F
:100B1000F11D17FDFA9580831F5F8EE693E0FFDBE2
:100B2000F0CFCE010196D9D7182F8EE693E0F7DBF0
:100B30008053990B8230910518F4682F812FE3DCE4
:100B40008EE693E0ECDB8A3011F08D30C9F78EE64B
:100B500093E0F9DB8A3019F48EE693E0E0DB0F9046
:100B60000F900F900F90DF91CF911F910895FB018F
:100B700001900020E9F73197AF01461B570BDC01CC
:100B8000ED91FC910280F381E02D19948F929F9258
:100B9000AF92BF92EF92FF920F931F93CF93DF9389
:100BA000CDB7DEB7A1970FB6F894DEBF0FBECDBFAD
:100BB0007C01FA01CB0119A2223008F42AE08E014F
:100BC0000F5D1F4F822E912CB12CA12CBF01A501CE
:100BD0009401A8D7F901CA016A3004F5605DD80113
:100BE0006E938D01232B242B252B81F790E080E041
:100BF000109719F0BD01C701BADFA1960FB6F8949E
:100C0000DEBF0FBECDBFDF91CF911F910F91FF903F
:100C1000EF90BF90AF909F908F900895695CDFCF69
:100C2000A6CF0F931F93CF938C01C62F3EDE6C2F60
:100C30006460C8013ADE6C2F6B7FC80136DE83EC3E
:100C400090E00197F1F7CF911F910F9108950F93C5
:100C50001F93CF93DF938C01D62FC42F607F642B1B
:100C6000E0DF80E1D89FB00111246C2BC801DF9137
:100C7000CF911F910F91D5CF40E061E08DE594E0D9
:100C8000E6DF8BE39FE10197F1F70895CF93DF93C0
:100C900000D000D01F921F92CDB7DEB798E0E4E1FC
:100CA000F2E0DE01119601900D929A95E1F7909194
:100CB0006504961708F46FEF262F30E0220F331FDC
:100CC00041E050E04C0F5D1F240F351FF90160819A
:100CD000680F606840E08DE594E028960FB6F894C0
:100CE000DEBF0FBECDBFDF91CF91B1CF41E0AFDF0F
:100CF00081E090E0089585ED8093BC008091DF0253
:100D00009091E002A091E102B091E2020796A11D4C
:100D1000B11D23E0B695A795979587952A95D1F7AC
:100D20002091BC0024FD03C0109228030895409137
:100D3000DF025091E0026091E1027091E202452BE6
:100D4000462B472B69F30097A105B10541F025E338
:100D50002A95F1F700000197A109B109E1CF80912F
:100D6000DE0202CD1F920F920FB60F9211240BB626
:100D70000F922F933F934F935F936F937F938F9334
:100D80009F93AF93BF93EF93FF938EE693E0FEDACA
:100D9000FF91EF91BF91AF919F918F917F916F9153
:100DA0005F914F913F912F910F900BBE0F900FBE0F
:100DB0000F901F9018951F920F920FB60F9211244B
:100DC0000BB60F922F938F939F93EF93FF93E09126
:100DD0007E03F0917F038081E0918403F09185038D
:100DE00082FD1DC09081809187038F5F8F7320915A
:100DF0008803821741F0E0918703F0E0E259FC4F4D
:100E0000958F80938703FF91EF919F918F912F9101
:100E10000F900BBE0F900FBE0F901F901895808102
:100E2000F2CF1F920F920FB60F9211242F933F9380
:100E30008F939F93AF93BF9380914F0390915003F3
:100E4000A0915103B091520330914E0323E0230F40
:100E50002D3758F50196A11DB11D20934E038093A7
:100E60004F0390935003A0935103B093520380918A
:100E7000530390915403A0915503B09156030196EA
:100E8000A11DB11D8093530390935403A093550368
:100E9000B0935603BF91AF919F918F913F912F9146
:100EA0000F900FBE0F901F90189526E8230F029603
:100EB000A11DB11DD2CF1F920F920FB60F92112418
:100EC0000BB60F922F933F934F935F936F937F9344
:100ED0008F939F93AF93BF93EF93FF93E0910E0295
:100EE000F0910F021995FF91EF91BF91AF919F91F2
:100EF0008F917F916F915F914F913F912F910F90C3
:100F00000BBE0F900FBE0F901F9018951F920F925F
:100F10000FB60F9211240BB60F922F933F934F935E
:100F20005F936F937F938F939F93AF93BF93EF9351
:100F3000FF93E0910C02F0910D021995FF91EF9152
:100F4000BF91AF919F918F917F916F915F914F91E1
:100F50003F912F910F900BBE0F900FBE0F901F90DF
:100F600018951F920F920FB60F9211240BB60F9285
:100F70002F933F934F935F936F937F938F939F93A1
:100F8000AF93BF93EF93FF93E0910202F0910302BE
:100F90001995FF91EF91BF91AF919F918F917F91A3
:100FA0006F915F914F913F912F910F900BBE0F90DA
:100FB0000FBE0F901F9018951F920F920FB60F92B1
:100FC00011240BB60F922F933F934F935F936F9320
:100FD0007F938F939F93AF93BF93EF93FF93E09192
:100FE0000002F09101021995FF91EF91BF91AF912D
:100FF0009F918F917F916F915F914F913F912F9131
:101000000F900BBE0F900FBE0F901F9018951F9260
:101010000F920FB60F9211240BB60F922F933F939E
:101020004F935F936F937F938F939F93AF93BF93F0
:10103000EF93FF93E0910A02F0910B021995FF9153
:10104000EF91BF91AF919F918F917F916F915F9140
:101050004F913F912F910F900BBE0F900FBE0F90AD
:101060001F9018951F920F920FB60F9211240BB676
:101070000F922F933F934F935F936F937F938F9331
:101080009F93AF93BF93EF93FF93E0910802F0918A
:1010900009021995FF91EF91BF91AF919F918F91A7
:1010A0007F916F915F914F913F912F910F900BBE68
:1010B0000F900FBE0F901F9018951F920F920FB6B2
:1010C0000F9211240BB60F922F933F934F935F9380
:1010D0006F937F938F939F93AF93BF93EF93FF9300
:1010E000E0910602F09107021995FF91EF91BF91EF
:1010F000AF919F918F917F916F915F914F913F91B0
:101100002F910F900BBE0F900FBE0F901F90189550
:101110001F920F920FB60F9211240BB60F922F93BE
:101120003F934F935F936F937F938F939F93AF936F
:10113000BF93EF93FF93E0910402F091050219959C
:10114000FF91EF91BF91AF919F918F917F916F919F
:101150005F914F913F912F910F900BBE0F900FBE5B
:101160000F901F9018951F920F920FB60F92112497
:101170000BB60F922F933F934F935F936F937F9391
:101180008F939F93AF93BF93EF93FF938091B90099
:10119000887F803609F44CC008F03FC0883209F4DB
:1011A000A8C028F5803109F49CC0C8F4882309F44C
:1011B000FAC0883009F495C0FF91EF91BF91AF91CB
:1011C0009F918F917F916F915F914F913F912F915F
:1011D0000F900BBE0F900FBE0F901F901895883187
:1011E00009F487C0803241F78093270314C080340C
:1011F00009F49CC040F48033B9F38833E9F6809356
:10120000270385ECAFC0803509F484C0883509F424
:1012100095C0883489F66FDDCFCF883909F48CC04A
:1012200038F5883729F050F4883611F0803721F6E8
:1012300083E0809328031092260357C0883809F46E
:101240007BC0803919F0803809F0B6CF8091260331
:10125000803208F071C0E091260381E08E0F809308
:1012600026038091BB00F0E0EA5FFC4F80833DC025
:10127000803B39F0E0F4803A09F479C0883A09F00B
:101280009BCF84E0809328031092050310920403FF
:10129000E0915903F0915A0319958091040381114B
:1012A0000FC081E0809304031092E40209C0803CE7
:1012B00009F4A7CF883C09F4A4CF883B09F07CCF80
:1012C000E091050381E08E0F80930503F0E0EC517F
:1012D000FD4F80818093BB009091050380910403B2
:1012E00029C080914D038093BB0085EC8093BC00A6
:1012F00063CF90914C0380914B03981758F5E09180
:101300004C0381E08E0F80934C03F0E0E55DFC4FD1
:101310008081E9CFE0914C0381E08E0F80934C03F4
:101320008091BB00F0E0E55DFC4F808390914C0321
:1013300080914B039817C8F285E8D8CFE0914C0311
:1013400081E08E0F80934C038091BB00F0E0E55D5F
:10135000FC4F808380912A0381115DCF81E08093CF
:10136000290384EA8093BC001092280325CF85ECE2
:101370008093BC001092280380912603803230F4C1
:10138000E0912603F0E0EA5FFC4F108260912603B3
:1013900070E0E0915703F091580386E093E01995CF
:1013A0001092260309CF1092270335CFEEE6F3E023
:1013B0001382128288EE93E0A0E0B0E084839583EC
:1013C000A683B78320E232E03183208325EC30E02E
:1013D0003587248724EC30E03787268720EC30E0FF
:1013E000318B208B21EC30E0338B228B22EC30E0F0
:1013F000358B248B26EC30E0378B268B118E128EAA
:10140000138E148EEBE0F4E01382128284839583B2
:10141000A683B78382E392E091838083E7E1F4E0DF
:1014200016821782108611861286138614861586F8
:1014300016861786108A118A128A138A148A158AC8
:10144000EDE5F4E01382128284E492E091838083DC
:101450008FE3848380E1818782E082871386089509
:10146000789484B5826084BD84B5816084BD85B57F
:10147000826085BD85B5816085BD80916E0081608B
:1014800080936E0010928100809181008260809331
:101490008100809181008160809381008091800033
:1014A0008160809380008091B10084608093B1005E
:1014B0008091B00081608093B00080919100826043
:1014C0008093910080919100816080939100809140
:1014D00090008160809390008091A1008260809351
:1014E000A1008091A10081608093A1008091A00063
:1014F00081608093A000809121018260809321010E
:10150000809121018160809321018091200181607F
:101510008093200180917A00846080937A0080918A
:101520007A00826080937A0080917A008160809353
:101530007A0080917A00806880937A001092C100CE
:101540001092590410925A0410925B0410925C0499
:101550001092190410921A0410921B0410921C0489
:10156000B3D86B017C014B015C0128EB820E2BE0B0
:10157000921EA11CB11CA8D86C157D058E059F0577
:1015800028F086169706A806B906A8F768EE73E055
:1015900080E090E069D8E0917E03F0917F0382E0E3
:1015A0008083E0917A03F0917B031082E0917C03C9
:1015B000F0917D0380E1808310928603E0918203A5
:1015C000F091830386E08083E0918003F0918103B2
:1015D000808180618083E0918003F091810380812C
:1015E00088608083E0918003F0918103808180682E
:1015F0008083E0918003F091810380818F7D8083DF
:1016000063D86093190470931A0480931B04909319
:101610001C046CE472E08EE693E002DB55D86B01AB
:101620007C014B015C013AE0830E911CA11CB11CB2
:101630004BD86C157D058E059F0528F086169706FC
:10164000A806B906A8F781E080932D043DD86093E1
:10165000190470931A0480931B0490931C046DE585
:1016600072E08EE693E0DCDA10925E0310925D0386
:1016700010925C0310925B035BD88EE791E090932D
:101680005A03809359038FE791E090935803809316
:1016900057031092620480916704823018F098E03A
:1016A000909362048093650462E370E080E090E0D0
:1016B0000E943403609168048DE594E0F6D868EEEA
:1016C00073E080E090E00E94340360E38DE594E0F5
:1016D000A8DACBE4D6E4CE010197F1F760E38DE51B
:1016E00094E09FDA2197F1F760E38DE594E099DAD1
:1016F00083E592E00197F1F760E28DE594E091DAFD
:1017000060916204606240E08DE594E0A0DA84E0DC
:101710008093630440E06CE08DE594E098DAACDA05
:1017200082E08093640440E066E08DE594E08FDA27
:1017300040E062E08DE594E08ADA8BE39FE1019777
:10174000F1F788E08093680460E08DE594E0ADD81F
:1017500082E00E94280183E00E94280182E695E051
:10176000909301028093000280916A008C7F8260D6
:1017700080936A00EC9A88E395E09093030280934B
:10178000020280916A00837F886080936A00ED9AEC
:1017900094EF892E99249394A12CB12C15E00E94EA
:1017A0006403672B682B692B09F4FAC00E94640359
:1017B000C0906A03D0906B03E0906C03F0906D03CF
:1017C0006C157D058E059F0508F40CC1C0906A0359
:1017D000D0906B03E0906C03F0906D039B01AC0123
:1017E0002C193D094E095F0969017A013AEFC316C8
:1017F000D104E104F10408F4DBC060936A03709340
:101800006B0380936C0390936D03809225049092F8
:101810002604A0922704B092280410922904109262
:101820002A0410922B0410922C0480911D04909194
:101830001E04A0911F04B091200480932104909372
:101840002204A0932304B09324040E9464036093B1
:101850001D0470931E0480931F04909320048EE651
:1018600093E00E94A301843609F43DD90E946403E9
:101870006093190470931A0480931B0490931C04C2
:101880000E9464036B017C0164E672E08EE693E0E3
:10189000C7D92AE041E050E060E070E08EE693E0D6
:1018A00075D96BE672E08EE693E0BAD92AE0B7010B
:1018B000A6018EE693E06AD96DE672E08EE693E0CB
:1018C000AFD980911D0490911E04A0911F04B09186
:1018D0002004B701A601481B590B6A0B7B0B2AE0B9
:1018E0008EE693E053D96DE672E08EE693E098D9E8
:1018F00040911D0450911E0460911F0470912004BA
:101900008091210490912204A0912304B091240499
:10191000481B590B6A0B7B0B2AE08EE693E036D905
:101920006FE672E08EE693E07BD90E946403AB0120
:10193000BC012AE08EE693E029D961E772E08EE6E9
:1019400093E015D968E772E08EE693E010D90E9423
:1019500064036B017C012B013C0145E0440E511CEA
:10196000611C711C0E9464036C157D058E059F052A
:1019700028F04616570668067906A0F78EE693E02B
:101980000E94A301843609F4AED80E9464036093D8
:101990001D0470931E0480931F049093200408C0BC
:1019A0000E946403623071058105910508F0FECE46
:1019B0008091120290911302209168033091690383
:1019C00082179307C1F45091670340911102541399
:1019D00012C0C0916503209166032C1372C00E944F
:1019E0005302DDCE60936A0370936B0380936C03A4
:1019F00090936D03EBCE2130310521F188F0223038
:101A0000310509F466C08091680390916903909351
:101A10001302809312028091110280936703DFCF3B
:101A20002BD960E082E032D96BE772E08DE594E07B
:101A3000F7D861E080E02AD969E872E08DE594E0AA
:101A4000EFD8E1CFC091660380916503C81316C03B
:101A5000809111028130B9F6EE24E394F12CD0E0AC
:101A6000CE15DF056CF041E050E060E172E08FE5FB
:101A700093E082D05FEFE51AF50AF2CFC82FECCFE2
:101A8000FBD860E080E002D94091110250E070E0A4
:101A900060E02AE08DE594E079D861E080E0F6D856
:101AA0006FE573E08DE594E0BBD88091650380938A
:101AB0006603EFE5F3E0DF01212F1D922A95E9F798
:101AC000A2CF8130910541F208F4AACF029709F024
:101AD0009ACFD2D867E972E0B1CFFC018827992765
:101AE000E89421912032E9F3293010F02E30C8F328
:101AF0002B3239F02D3231F4689403C00BD0820FB1
:101B0000911D219120532A30C8F31EF490958195A0
:101B10009F4F08957AE0979F902D879F802D910D7C
:101B200011240895A1E21A2EAA1BBB1BFD010DC0B2
:101B3000AA1FBB1FEE1FFF1FA217B307E407F5077D
:101B400020F0A21BB30BE40BF50B661F771F881F59
:101B5000991F1A9469F760957095809590959B01EF
:101B6000AC01BD01CF010895EE0FFF1F881F8BBF91
:101B70000790F691E02D1994FB01DC010D900020F7
:101B8000E9F711974150504028F0019000200D9244
:0C1B9000C9F708951C920895F894FFCF47
:101B9C0070037003700370037003700370037003A1
:101BAC002A01020000004000140054000000000054
:101BBC00E801500180013402B1018F01A301000042
:101BCC0000002704FB0335057D01F403E103D20378
:101BDC00000000007606500135053405564D445082
:101BEC00565F317C315F564D4450560A00564D4479
:101BFC0050525F00564D4450455F003A323A007CDB
:101C0C00005F564D445045000D0A004172647569E1
:101C1C006E6F6B69742E766E004D6F7468657220F2
:0C1C2C006661636B65720043686F7400B2
:00000001FF
