:100000000C94AB000C9472160C944B160C94D30009
:100010000C94D3000C94D3000C94D3000C94D30014
:100020000C94D3000C94D3000C9435180C94D3008A
:100030000C94D3000C94B8170C94D3000C94D300F8
:100040000C9401160C94D3000C94CF150C94A915A4
:100050000C94D3000C94D3000C94D3000C94D300D4
:100060000C9499160C94D30007634236B79BD8A71B
:100070001A39685618AEBAAB558C1D3CB7CC5763CD
:10008000BD6DEDFD753EF6177231BF000000803F7B
:1000900008000000BE922449123EABAAAA2ABECD97
:1000A000CCCC4C3E00000080BEABAAAAAA3E000009
:1000B0000000BF000000803F000000000008417801
:1000C000D3BB4387D1133D190E3CC3BD4282AD2B38
:1000D0003E68EC8276BED98FE1A93E4C80EFFFBE30
:1000E00001C4FF7F3F00000000007C3C3E5E2B3DD2
:1000F0003F2F5B5D3B2C2A225C00000000002500A6
:1001000028002B000000000023002600290000002A
:1001100000080002010000030407000000000000C6
:10012000000000000000240027002A00010204084B
:100130001020408001020408102001020408102051
:10014000040404040404040402020202020203037D
:1001500003030303B41811241FBECFEFD8E0DEBFA2
:10016000CDBF28E0AEE3B2E001C01D92A73CB207CC
:10017000E1F712E0A0E0B1E0ECE8F7E402C005909E
:100180000D92AE33B107D9F710E0CBEAD0E004C04E
:100190002197FE010E945B22CA3AD107C9F70E944B
:1001A00059190C94C4230C940000AF92BF92CF92C3
:1001B000DF92EF92FF920F931F93CF93DF936C0127
:1001C0007B018B01040F151FEB015E01AE18BF0808
:1001D000C017D10759F06991D601ED91FC910190BA
:1001E000F081E02DC6010995892B79F7C501DF91D2
:1001F000CF911F910F91FF90EF90DF90CF90BF9024
:10020000AF900895089508950895FC01538D448D8D
:10021000252F30E0842F90E0821B930B541710F0B1
:10022000CF96089501970895FC01918D828D9817BE
:1002300061F0A28DAE0FBF2FB11D5D968C91928D96
:100240009F5F9F73928F90E008958FEF9FEF0895C7
:10025000FC01918D828D981731F0828DE80FF11D90
:10026000858D90E008958FEF9FEF0895FC01918DAB
:10027000228D892F90E0805C9F4F821B91098F73A4
:10028000992708958DEA95E00E94360121E0892B97
:1002900009F420E0822F089580E090E0892B29F076
:1002A0000E94420181110C9400000895FC01A48D6C
:1002B000A80FB92FB11DA35ABF4F2C91848D90E088
:1002C00001968F739927848FA689B7892C93A0896B
:1002D000B1898C91837080648C93938D848D9813F5
:1002E00006C00288F389E02D80818F7D8083089588
:1002F000EF92FF920F931F93CF93DF93EC0181E076
:10030000888F9B8D8C8D98131AC0E889F98980811C
:1003100085FF15C09FB7F894EE89FF896083E8894F
:10032000F98980818370806480839FBF81E090E041
:10033000DF91CF911F910F91FF90EF900895F62ECE
:100340000B8D10E00F5F1F4F0F731127E02E8C8D68
:100350008E110CC00FB607FCFACFE889F9898081AD
:1003600085FFF5CFCE010E945601F1CFEB8DEC0F4A
:10037000FD2FF11DE35AFF4FF0829FB7F8940B8FCA
:10038000EA89FB8980818062CFCFCF93DF93EC0134
:10039000888D8823B9F0AA89BB89E889F9898C916D
:1003A00085FD03C0808186FD0DC00FB607FCF7CF29
:1003B0008C9185FFF2CF808185FFEDCFCE010E9429
:1003C0005601E9CFDF91CF910895833081F028F471
:1003D000813099F08230A9F008958730A9F08830F3
:1003E000C9F08430B1F4809180008F7D03C080918A
:1003F00080008F7780938000089584B58F7784BDC7
:10040000089584B58F7DFBCF8091B0008F77809366
:10041000B00008958091B0008F7DF9CFCF93DF9326
:10042000282F30E0F901E25FFE4F8491F901E45D8D
:10043000FE4FD491F901E05CFE4FC491CC23A1F0B2
:1004400081110E94E501EC2FF0E0EE0FFF1FEC5F41
:10045000FE4FA591B491EC91ED2381E090E009F479
:1004600080E0DF91CF91089580E090E0FACF1F9374
:10047000CF93DF93282F30E0F901E25FFE4F8491A4
:10048000F901E45DFE4FD491F901E05CFE4FC491A7
:10049000CC23A9F0162F81110E94E501EC2FF0E08A
:1004A000EE0FFF1FE650FF4FA591B4918FB7F89460
:1004B000EC91111108C0D095DE23DC938FBFDF9142
:1004C000CF911F910895DE2BF8CFCF93DF9390E06B
:1004D000FC01E45DFE4F2491805C9E4FFC01849101
:1004E0008823D1F090E0880F991FFC01EE5DFE4F4C
:1004F000A591B491FC01E650FF4FC591D4916111D3
:100500000EC09FB7F8948C91E22FE0958E238C93C8
:100510002881E223E8839FBFDF91CF9108958FB7B1
:10052000F894EC91E22BEC938FBFF6CF3FB7F894A1
:100530008091010390910203A0910303B091040301
:1005400026B5A89B05C02F3F19F00196A11DB11D2E
:100550003FBFBA2FA92F982F8827BC01CD01620F6A
:10056000711D811D911D42E0660F771F881F991F25
:100570004A95D1F708958F929F92AF92BF92CF92F2
:10058000DF92EF92FF924B015C010E9496026B0199
:100590007C010E9496026C197D098E099F09683EB4
:1005A000734081059105A8F321E0821A9108A10802
:1005B000B10888EEC80E83E0D81EE11CF11C81143E
:1005C0009104A104B10429F7FF90EF90DF90CF9040
:1005D000BF90AF909F908F90089568EC70E080E09E
:1005E00090E00E94BB0282E00E940E02019769F433
:1005F00080913F02811109C081E080933F0265E054
:1006000070E080E090E00C94BB0282E00E940E0259
:10061000892BA9F780913F02813089F710923F0220
:100620008091A5039091A603019749F78091A203B9
:100630008F5F863018F48093A203E1CF1092A2035B
:10064000DECF68EC70E080E090E00E94BB0283E0C7
:100650000E940E02019769F480914002811109C045
:1006600081E08093400265E070E080E090E00C94CF
:10067000BB0283E00E940E02892BA9F78091400201
:10068000813089F7109240028091A5039091A603D2
:100690008130910589F048F0029729F71092A40360
:1006A0001092A6031092A503DECF81E090E0909314
:1006B000A6038093A503D7CF8091A4038F5F809377
:1006C000A4038A3030F41092A20386E08093A3033F
:1006D000CACF1092A30382E090E0E9CF2FB7F8943D
:1006E0006091FD027091FE028091FF0290910003E3
:1006F0002FBF089508952091B202260F3327331F8C
:1007000021323105ECF42091D602FC0190E080E02A
:10071000243069F082E00895A091B2022191AC01E9
:100720004E565D4FA40FB52FB11D2C930196861721
:1007300098F38091B202680F6093B20280E008954E
:1007400081E008951092D60281E08093D802109241
:10075000D70261E082E10E94370261E083E10E94FA
:100760003702E9EBF0E080818E7F808380818D7F8E
:10077000808388E48093B80085E48093BC0008956A
:10078000CF93DF9391E0909391028823B9F0C091C9
:10079000B800D091BA008091BC008A7B8093BC00E5
:1007A00060E082E10E94370260E083E10E9437024C
:1007B0000E94A203D093BA00C093B800DF91CF91FA
:1007C0000895E0910C0380910B03E81730F4F0E0FA
:1007D000E459FD4F808190E008958FEF9FEF0895D9
:1007E00090910C0380910B032FEF3FEF981748F483
:1007F000E92FF0E0E459FD4F208130E09F5F9093B6
:100800000C03C901089580910B0390910C03891B7F
:10081000990B0895CF92DF92EF92FF920F931F935F
:10082000CF93DF937C01CB018A0120916B022223BD
:1008300089F0EB016B01C40ED51ECC15DD0569F006
:100840006991D701ED91FC910190F081E02DC701F4
:100850000995F3CF642F0E947B03C801DF91CF91EC
:100860001F910F91FF90EF90DF90CF900895CF935D
:10087000DF931F92CDB7DEB7698320916B022223ED
:10088000F9F020910903203258F021E030E0FC011A
:100890003383228390E080E00F90DF91CF91089521
:1008A00080910A03E82FF0E0E55BFD4F998190838A
:1008B0008F5F80930A038093090381E090E0ECCF7F
:1008C00061E0CE0101960E947B03F7CFCF92DF92C9
:1008D000EF92FF920F931F93CF93DF93FC01C4819C
:1008E00021E020936B02C0934A0210920A031092F7
:1008F00009038385682B8AE496E00E943704D0912F
:100900000903D13208F092C00E9496026B017C016B
:100910008091D602811165C082E08093D60281E089
:100920008093D8028FEF8093D5021092FA02D09371
:10093000F902ABE4B2E0E9EDF2E080E0D81385C063
:100940001092FB028091FB02CC0FC82BC093FB02DC
:100950008091D702813009F07CC01092D7020E94AA
:1009600096026B017C018091FB028093BB00809119
:100970008D0290918E02A0918F02B0919002892BEE
:100980008A2B8B2B99F00E94960200918D02109178
:100990008E0220918F02309190026C197D098E0990
:1009A0009F090617170728073907E0F18091BC0057
:1009B00083FDD9CF85EC8093BC000E9496026B0129
:1009C0007C018091D602823009F445C08091D50225
:1009D0008F3F61F18091D502803241F18091D50243
:1009E00025C080918D0290918E02A0918F02B091CE
:1009F0009002892B8A2B8B2B09F48ACF0E949602B6
:100A000000918D0210918E0220918F023091900200
:100A10006C197D098E099F090617170728073907E2
:100A200008F076CF80918C020E94C00310920A03D6
:100A30001092090310926B02DF91CF911F910F91D9
:100A4000FF90EF90DF90CF9008959D9191938F5FED
:100A500075CF85EEB0CF80918D0290918E02A091DE
:100A60008F02B0919002892B8A2B8B2B09F4A9CF8E
:100A70000E94960200918D0210918E0220918F02A9
:100A8000309190026C197D098E099F09061717078E
:100A90002807390708F095CFC5CF8FB7F894809114
:100AA00044028FBF089561E0FC0184810E943702F7
:100AB0008091430281111092430208958EBD00007F
:100AC0000DB407FEFDCF8EB508958FEF0C945E0533
:100AD0000F931F93CF93DF93EC010E946E038B0162
:100AE0000E9465058F3F69F00E946E03601B710BC9
:100AF0006C177D07A8F380E0DF91CF911F910F91D4
:100B0000089581E0F9CF8CBD9DBD0895CF93DF930B
:100B1000EC0180914302811109C081E0809343027E
:100B200080915606909157060E94830560E08C8163
:100B3000DF91CF910C9437028F929F92AF92BF9228
:100B4000FF920F931F93CF93DF93EC01F62E490191
:100B50005A018E81882389F08F8198859C012F5FAF
:100B60003F4F38872F838230924018F40E946505EA
:100B7000F3CFCE010E9453051E82CE010E9486054E
:100B80008CE291E00E9468058F2D80640E945E05D2
:100B900008E110E0D501C401002E04C0B695A79568
:100BA000979587950A94D2F70E945E05085011091F
:100BB000083F8FEF180771F785E9FF2021F028E043
:100BC00087E8F2128FEF0E945E0510E00E94650533
:100BD0008A8787FF04C01F3F11F01F5FF7CFDF91A7
:100BE000CF911F910F91FF90BF90AF909F908F90EA
:100BF0000895AF92BF92CF92DF92EF92FF920F9340
:100C00001F93CF93DF93EC016901C801820F931FFB
:100C10008130924050F58E81882379F088819981C6
:100C2000AA81BB8184179507A607B70731F48F8186
:100C30009885C816D90608F042C0488359836A834C
:100C40007B838B85833039F089E0440F551F661F05
:100C5000771F8A95D1F79A01AB0161E1CE010E941D
:100C60009C05882389F083E08D83CE010E94530583
:100C700080E0DF91CF911F910F91FF90EF90DF9077
:100C8000CF90BF90AF9008950E946E035B010E94C9
:100C900065058A878F3F69F40E946E036A197B0994
:100CA0006D327140A0F38FE08D83CE010E94530519
:100CB000DCCF8E3F89F418861F8281E08E838F817E
:100CC00098858C159D0550F40E9465058F81988547
:100CD000019698878F83F3CF8DE0E6CF6701E00E12
:100CE000F11E0E946505F60181936F01EE15FF0567
:100CF000C1F78F819885080F191F18870F83898581
:100D0000882319F001151240A0F08E81882389F004
:100D10008F8198859C012F5F3F4F38872F838230CA
:100D2000924018F40E946505F3CFCE010E9453054E
:100D30001E8281E09ECFCF92DF92EF92FF920F93BF
:100D4000CF93DF93EC01690182E141155105610503
:100D5000710599F08B85833039F089E0440F551F78
:100D6000661F771F8A95D1F79A01AB0168E1CE0122
:100D70000E949C05882319F084E08D832DC08EEF9E
:100D80000E945E0576018EEFD81AF70181917F01EE
:100D90000E945E05EC14FD04C1F78FEF0E945E0512
:100DA0008FEF0E945E050E9465058A878F718530EE
:100DB00071F4011116C0CE010E94530581E0DF914C
:100DC000CF910F91FF90EF90DF90CF90089581E148
:100DD0008D83CE010E945305CE010E94530580E011
:100DE000EECF88E592E00E946805811102C085E19E
:100DF000C4CF20E030E0A9016DE0CE010E949C0547
:100E0000882311F084E1B9CF0E9465058111FACFE2
:100E1000D2CF0F9340914602509147026091480211
:100E200070914902411551056105710599F0082F2E
:100E30002BEA33E08091AB059091AC050E949B06B4
:100E4000882349F0109246021092470210924802FD
:100E50001092490281E00F9108950F93CF93C82F0C
:100E600080914502811105C0C1E08C2FCF910F9177
:100E7000089540910001509101016091020170912B
:100E800003010C2F2BEA33E08091AB059091AC0568
:100E90000E949B06811102C0C0E0E7CFCC2321F362
:100EA00081E00E9409078823B9F310924502DDCF43
:100EB0008F929F92AF92BF92EF92FF920F931F93E8
:100EC000CF934B015C01C42F8091000190910101EF
:100ED000A0910201B091030188159905AA05BB05EF
:100EE00051F181E00E942D0781110BC080E0CF916C
:100EF0001F910F91FF90EF90BF90AF909F908F90B8
:100F000008958BEAE82E83E0F82E00E012E030E04E
:100F100020E0B501A4018091AB059091AC050E9441
:100F2000F905882319F38092000190920101A092A3
:100F30000201B0920301409145024C2B40934502BF
:100F400081E0D5CF8F929F92AF92BF92CF92DF92E6
:100F5000EF92FF92CF9328E536E03093AC052093D3
:100F6000AB05882309F46DC040E060E070E0CB0180
:100F70000E94580781110BC080E0CF91FF90EF9045
:100F8000DF90CF90BF90AF909F908F900895809109
:100F900069058F7789F78091750590917605A09105
:100FA0007705B091780584369105A105B10520F348
:100FB000C0907105D0907205E0907305F0907405B3
:100FC000C114D104E104F104B9F240E0C701B60153
:100FD0000E945807882381F28091B6039091B7034D
:100FE0008115924049F6A091BB03AA2329F2609192
:100FF000B9037091BA036115710509F4BDCF209151
:10100000B803222309F4B8CFA0937606209368068C
:1010100090E080E030E0E1E0F0E0C82FAF01082E82
:1010200002C0440F551F0A94E2F72417350769F0F0
:1010300041E0480F01968930910579F74093710698
:101040009BCFC12CD12C7601C0CF8093710620910B
:10105000C1033091C20350E040E02115310541F455
:101060002091CF033091D0034091D1035091D2030E
:101070002093690630936A0640936B0650936C0682
:1010800046015701860E971EA11CB11C809277065F
:1010900090927806A0927906B0927A06E091BC030D
:1010A000F091BD03F0937D06E0937C06B0E00E94D2
:1010B000AE1FDC01CB01880D991DAA1DBB1D8093BD
:1010C0007E0690937F06A0938006B093810625E06C
:1010D000EE0FFF1F2A95E1F7E150FE4FEF2FFF279C
:1010E000E6958E0F9F1FA11DB11D809372069093F0
:1010F0007306A0937406B09375068090BE0390901B
:10110000BF03B12CA12C8114910441F48090CB0336
:101110009090CC03A090CD03B090CE03C81AD90A0A
:10112000EA0AFB0AC80CD91CEA1CFB1C04C0F69492
:10113000E794D794C794CA95D2F7C0926D06D0921F
:101140006E06E0926F06F092700685EFC8168FE08B
:10115000D806E104F10428F48CE080937B0681E05A
:101160000CCF80E125EFC2162FEFD206E104F10487
:10117000A0F38091D7039091D803A091D903B091A7
:10118000DA0380937E0690937F06A0938006B09347
:10119000810680E2E2CF4F925F926F927F928F92B0
:1011A0009F92AF92BF92CF92DF92EF92FF920F93F6
:1011B0001F93CF93DF93EC01423051056105710518
:1011C00090F480E0DF91CF911F910F91FF90EF900D
:1011D000DF90CF90BF90AF909F908F907F906F9057
:1011E0005F904F90089589859A85AB85BC8501965F
:1011F000A11DB11D84179507A607B70710F3CB886B
:10120000DC88ED88FE888F89803109F042C0BB27D9
:10121000A72F962F852F480159012A013B01C80E9F
:10122000D91EEA1EFB1E8091000190910101A09140
:101230000201B0910301C816D906EA06FB0699F52A
:101240008F898031C1F5B301A20155276627772721
:10125000440F551F45555C4FFA0191828082809161
:1012600045028160809345028A89823080F08D81B9
:101270009E81AF81B8858C0D9D1DAE1DBF1D8093D5
:10128000460290934702A0934802B093490281E03E
:1012900099CFDB01CA01E7E0B695A79597958795A9
:1012A000EA95D1F7B8CF40E0C701B6010E945807D0
:1012B0008111C6CF86CFB301A2014F77552766278C
:1012C0007727440F551F440F551F45555C4FFA01B2
:1012D00080829182A282B382C2CF8F929F92AF927C
:1012E000BF92CF92DF92EF92FF920F931F93CF9313
:1012F000DF93FC0181859285A385B4850196A11DAC
:10130000B11D84179507A607B70770F480E0DF9139
:10131000CF911F910F91FF90EF90DF90CF90BF90F2
:10132000AF909F908F90089583889488A588B68801
:101330008789803189F5BB27A72F962F852FE90153
:101340006A017B018F01BC01CD01680D791D8A1DE9
:101350009B1D8090000190900101A0900201B0902F
:10136000030186169706A806B90601F5F8018789D4
:10137000803111F5DD24EE24FF24F601EE0FFF1F6E
:10138000E555FC4F80819181B0E0A0E0888399838E
:10139000AA83BB8381E0BBCFDB01CA01C7E0B6955E
:1013A000A79597958795CA95D1F7C9CF40E00E9438
:1013B00058078111DBCFAACFE894C7F8DD24EE24CB
:1013C000FF24F601EE0FFF1FEE0FFF1FE555FC4F48
:1013D00080819181A281B381BF70D8CF4F925F92FB
:1013E0006F927F92AF92BF92CF92DF92EF92FF9275
:1013F0000F931F93CF93DF9300D000D0CDB7DEB70C
:101400008C0149835A836B837C835901C12CD12C75
:101410007601412C82E0582E612C712C49815A8131
:101420006B817C819E012F5F3F4FC8010E946D0937
:10143000882339F1F8018585A301920104C0220FA8
:10144000331F441F551F8A95D2F7DA01C901C80E10
:10145000D91EEA1EFB1E49815A816B817C818789D6
:10146000803111F188EF9FEFAFEFBFE048175907C8
:101470006A077B0798F2F501C082D182E282F3828B
:1014800081E00F900F900F900F90DF91CF911F91FF
:101490000F91FF90EF90DF90CF90BF90AF907F9033
:1014A0006F905F904F90089588EF9FEFA0E0B0E0BD
:1014B000DDCFCF93DF93FC012581222321F080E053
:1014C000DF91CF910895EC0180917B06803159F531
:1014D00082E08583178A108E118E128E80917C0691
:1014E00090917D06B0E0A0E025E0880F991FAA1F2B
:1014F000BB1F2A95D1F7838B948BA58BB68B84E683
:1015000096E09C8F8B8F81E08C831E821F821886D1
:1015100019861A861B861C861D861E861F86188ABB
:10152000198A1A8ACDCF803251F683E085834091A3
:101530007E0650917F066091800670918106478BF0
:10154000508F618F728F9F012D5E3F4F84E696E032
:101550000E94EE098111D3CFB2CF8F929F92AF92AA
:10156000BF92CF92DF92EF92FF920F931F93CF9390
:10157000DF93EC018D8181110EC080E0DF91CF916E
:101580001F910F91FF90EF90DF90CF90BF90AF90A1
:101590009F908F9008950B891C892D893E8904178F
:1015A00015072607370748F34A015B01823031F4FB
:1015B0008A869B86AC86BD8681E0E0CF811491044B
:1015C000A104B10449F41E821F82188619861A8666
:1015D0001B861C861D86F0CF0A851B852C853D85C4
:1015E000EB8DFC8D858590E00996B901A8014150ED
:1015F000510961097109082E04C0769567955795C0
:1016000047950A94D2F775016401E1E0CE1AD1083A
:10161000E108F10804C0F694E794D794C7948A953A
:10162000D2F7C416D506E606F70620F0012B022BEA
:10163000032B11F58F89988DA98DBA8D8E839F8389
:10164000A887B9878E010A5F1F4FC114D104E10436
:10165000F10409F4ADCF4E815F81688579859801E9
:101660008B8D9C8D0E946D0991E0C91AD108E1080B
:10167000F1088111EACF81CFC41AD50AE60AF70A28
:10168000E1CF2091BA063091BB062115310541F01A
:10169000AB01BC01C9010E94AD0A91E0811101C0FA
:1016A00090E0892F08953F924F925F926F927F92C0
:1016B0008F929F92AF92BF92CF92DF92EF92FF9262
:1016C0000F931F93CF93DF93CDB7DEB72C970FB651
:1016D000F894DEBF0FBECDBF5C01DC015B968D9040
:1016E0009C905C9716964D905D906D907C901997AC
:1016F000411451046104710409F468C0BFEF4B1A2E
:101700005B0A6B0A7B0A312CF40181859285A385E3
:10171000B4859C01AD012F5F3F4F4F4F5F4F29872D
:101720003A874B875C87730162011D821E821F828C
:101730001886F40181859285A385B4852D813E812B
:101740004F815885281739074A075B0708F056C0AC
:1017500089859A85AB85BC858C159D05AE05BF0531
:1017600050F482E0C82ED12CE12CF12C92E0492ECD
:10177000512C612C712C9E012F5F3F4FB701A601A8
:10178000C4010E946D098823C9F189819A81AB81C6
:10179000BC81892B8A2B8B2B09F1260137019FEF06
:1017A000491A590A690A790A2D813E814F81588563
:1017B0002F5F3F4F4F4F5F4F2D833E834F8358879F
:1017C0003FEFC31AD30AE30AF30AB3CFF401408010
:1017D0005180628073803324339496CFC414D5042F
:1017E000E604F70409F70FEF1FEF2FEF3FE0B70113
:1017F000A601C4010E94CB08811119C080E02C967B
:101800000FB6F894DEBF0FBECDBFDF91CF911F9111
:101810000F91FF90EF90DF90CF90BF90AF909F908F
:101820008F907F906F905F904F903F900895D5017B
:1018300016964D915D916D917C91199741155105C9
:101840006105710539F097018601C4010E94CB083A
:101850008823A1F2D5011696CD92DD92ED92FC92ED
:101860001997332051F0D701C6010196A11DB11D72
:10187000F40180839183A283B383F5018789908DDE
:10188000A18DB28D892B8A2B8B2B39F48481C78A49
:10189000D08EE18EF28E80688483F501848180622F
:1018A000848381E0ACCF2F923F924F925F926F92F0
:1018B0007F928F929F92AF92BF92CF92DF92EF92E0
:1018C000FF920F931F93CF93DF93EC015B012A01EB
:1018D0008D81811115C08FEF9FEFDF91CF911F9107
:1018E0000F91FF90EF90DF90CF90BF90AF909F90BF
:1018F0008F907F906F905F904F903F902F900895C2
:101900008C8180FFE8CF0B891C892D893E894A850F
:101910005B856C857D85C201B0E0A0E0680179013E
:10192000C41AD50AE60AF70AC816D906EA06FB065B
:1019300018F42801441A550A42011E0126E0220E1D
:10194000311C8114910409F4B3C04A855B856C8510
:101950007D856A0181E0D8228B8D9C8D8A019B0157
:10196000E9E03695279517950795EA95D1F7ED812A
:10197000E230E1F5FC01628D738D848D958D600FF1
:10198000711F821F931F612C22E0722E6C187D083C
:101990008614970408F434012C8126FD04C06114D8
:1019A000F2E07F0671F40091000110910101209195
:1019B000020130910301061717072807390709F0BC
:1019C00053C040E00E945807882309F484CFC60121
:1019D00085559C4FD5019C01260D371DFC012E1706
:1019E0003F0709F460C041914D93F9CFFC01748029
:1019F0007A947022C114D10471F471100CC0452B7B
:101A0000462B472B39F58F89988DA98DBA8D8E83FA
:101A10009F83A887B987EB8DFC8D6E817F81888538
:101A200099856250710981099109258504C0660F65
:101A3000771F881F991F2A95D2F706851785208959
:101A40003189600F711F821F931F670D711D811DEA
:101A5000911D99CF4E815F816885798591010E94A2
:101A60006D098111D8CF37CF750183019601AB0184
:101A7000BC018091AB059091AC050E94F9058823CB
:101A800009F429CFA60CB71C8A859B85AC85BD853A
:101A9000860D971DA11DB11D8A879B87AC87BD87C9
:101AA000861897084ECF281B390BA20EB31EECCF19
:101AB000C20113CF1F93CF93DF93FC012581222313
:101AC000D1F1162FEC01848187FF2AC066857785C6
:101AD0008089918941E00E945807882361F1EA8951
:101AE00080E2E89FF0011124E555FC4F309719F191
:101AF0008D81823040F48B899C89AD89BE89848F29
:101B0000958FA68FB78F8F89988D938F828F8F89AE
:101B1000988DA98DBA8DB58BA48B8C818F778C8392
:101B2000111103C08C818F7E8C83812FDF91CF9127
:101B30001F910C942D0780E0DF91CF911F910895A4
:101B4000FF920F931F93CF93DF93EC018D81813030
:101B500041F090E080E0DF91CF911F910F91FF90D5
:101B600008958C8181FFF5CF82FD1BC00091AB05EC
:101B70001091AC05C8010E9486050E946505F82EEB
:101B8000C8010E9453058FEFF812E3CF8C8185FFC7
:101B90001BC060E0CE010E945A0D8C818F7D8C832A
:101BA000D8CF4B895C896D897E898A859B85AC8578
:101BB000BD8584179507A607B707C1F2CE010E941D
:101BC000AD0A8111D3CFC5CF409146025091470253
:101BD0006091480270914902452B462B472B21F01A
:101BE00080E00E940907B5CF80618C832A853B8500
:101BF000317080E092E0821B930BADCFCF93DF93E7
:101C0000EC0161E00E945A0D882311F01D8281E0F1
:101C1000DF91CF9108952F923F924F925F926F92F2
:101C20007F928F929F92AF92BF92CF92DF92EF926C
:101C3000FF920F931F93CF93DF9300D000D01F929A
:101C4000CDB7DEB77C015B01342E5D83DC011596D8
:101C50008C911597813009F0CEC014962C9021FEFE
:101C6000CAC022FCB4C0C32CDD8022947FE02722AE
:101C70002094B22DB1702B2ED7011A964D915D9103
:101C80006D917C911D97C114D10409F428C15B9614
:101C90008D919C915C97FC0174807A948A019B01E0
:101CA00069E036952795179507956A95D1F77022C3
:101CB0008A011170711020C001151105E9F4169602
:101CC0004D915D916D917C9119974115510561057B
:101CD000710509F099C057968D919D910D90BC9119
:101CE000A02D0097A105B10509F0B0C0C7010E9461
:101CF000530B882309F47FC080E092E0801B910B96
:101D000046018C159D0508F44C01D7015B964D9159
:101D10005C915C9716968D919D910D90BC91A02D34
:101D20000297A109B109FA01258504C0880F991FFE
:101D3000AA1FBB1F2A95D2F74685578560897189EE
:101D4000840F951FA61FB71F9C01AD01270D311DE4
:101D5000411D511D29013A01811432E0930609F019
:101D60007BC08091000190910101A0910201B0918E
:101D7000030184159505A605B70559F48FEF9FEF6C
:101D8000DC018093000190930101A0930201B093C4
:101D90000301022D9501B301A2018091AB05909141
:101DA000AC050E949B06882331F19EEFB91AC81832
:101DB000D908F70182859385A485B585880D991D7D
:101DC000A11DB11D82879387A487B58755CFF701E1
:101DD000438954896589768982859385A485B585EB
:101DE000481759076A077B0709F43DCFC7010E94CE
:101DF000AD0A811138CF81E090E0D70113969C9312
:101E00008E93129780E007C09E012F5F3F4F0E9484
:101E10006D09811102C090E079C089819A81AB81FE
:101E2000BC81F701238D348DF901278948EF5FEFDD
:101E300060E070E0203121F048EF5FEF6FEF7FE06E
:101E400084179507A607B70708F050CFF7018683D8
:101E50009783A087B18750CF0115110599F5D70158
:101E60001A964D915D916D917C911D9753968D9130
:101E70009D910D90BC91A02D481759076A077B07CB
:101E800008F181E00E942D07882309F4B4CF409225
:101E90000001509201016092020170920301809151
:101EA0004502816080934502C80185559C4FD5014C
:101EB0009C01280D391DFC012E173F0759F04D914B
:101EC0004193FACF41E0C301B2010E94580781114A
:101ED000EBCF91CF281B390BA20EB31E68CFF701B1
:101EE00083899489A589B68984179507A607B707BA
:101EF00038F48481438B548B658B768B8068848324
:101F0000F701848183FD1AC0832D9D810F900F906E
:101F10000F900F900F90DF91CF911F910F91FF9035
:101F2000EF90DF90CF90BF90AF909F908F907F9079
:101F30006F905F904F903F902F90089561E0C701A0
:101F40000E945A0D882309F456CFDECFCF93DF933A
:101F50001F92CDB7DEB7698341E050E0BE016F5FED
:101F60007F4F0E940B0E0F90DF91CF910895FC01DF
:101F7000DB0112968D919C9113979383828384E663
:101F800091E09183808314968C91149784831596A5
:101F90008C911597858316964D915D916D917C91ED
:101FA000199746835783608771871A964D915D9183
:101FB0006D917C911D9742875387648775871E9624
:101FC0004D915D916D917C91519746875787608BBC
:101FD000718B52968C915297828B53964D915D9155
:101FE0006D917C915697438B548B658B768B57966E
:101FF0004D915D916D917C915A97478B508F618F78
:10200000728F5B968D919C91948F838F0895FC01C4
:10201000818D928D009719F061E00C945A0D08950E
:10202000DC015996ED91FC913097B9F08389948940
:10203000A589B6894285538564857585841B950B72
:10204000A60BB70B811520E89207A105B10538F062
:102050008FEF9FE7A0E0B0E0089590E080E0089562
:10206000DC0159968D919C91009739F0DC01ED913E
:10207000FC910480F581E02D099490E080E00895C2
:10208000CF93DF93EC01E98DFA8D309749F481E02D
:1020900090E09B838A8390E080E0DF91CF91089568
:1020A00013821282898D9A8D0E940B0EE98DFA8D12
:1020B00022813381232B59F7F0CFCF93DF931F92E7
:1020C000CDB7DEB76983DC01ED91FC910280F3812D
:1020D000E02D41E050E0BE016F5F7F4F09950F900A
:1020E000DF91CF910895CF93DF931F92CDB7DEB7E5
:1020F00041E050E0BE016F5F7F4F0E94530C01979B
:1021000031F4898190E00F90DF91CF9108958FEFA6
:102110009FEFF9CFFC01818D928D009711F00C9407
:1021200073108FEF9FEF08950F931F93CF93DF935B
:10213000EC01898D9A8D10E000E0009799F00E94E3
:1021400073108C010F3F100769F0898D9A8DFC0187
:10215000428553856485758541505109610971092E
:102160000E94AD0AC801DF91CF911F910F91089590
:10217000089590E080E00895CF93DF93FB012281E2
:102180003381DC0113963C932E9312974481558141
:102190006681778114964D935D936D937C93179729
:1021A000408551856285738518964D935D936D9337
:1021B0007C931B971C96EF012C969C01275E3F4F4A
:1021C00049914D93A217B307D9F7218D328DFC01A8
:1021D000328F218FDF91CF9108951F93CF93DF939B
:1021E00000D000D0CDB7DEB78DEA95E00E94140193
:1021F0008DEA95E00E94140110E08A3379F0E1E065
:10220000F0E0EC0FFD1FE10FF11D17FDFA95808343
:102210001F5F8DEA95E00E941401EFCFCE01019679
:102220000E946B1E182F8DEA95E00E9414018053C6
:10223000990B8230910520F4682F812F0E9437027C
:102240008DEA95E00E9414018A3011F08D30C1F7BB
:102250008DEA95E00E9428018A3021F48DEA95E00C
:102260000E9414010F900F900F900F90DF91CF916B
:102270001F910895FB0101900020E9F73197AF010C
:10228000461B570BDC01ED91FC910280F381E02DA0
:1022900009948F929F92AF92BF92EF92FF920F9309
:1022A0001F93CF93DF93CDB7DEB7A1970FB6F89406
:1022B000DEBF0FBECDBF7C01FA01CB0119A22230D7
:1022C00008F42AE08E010F5D1F4F822E912CB12C55
:1022D000A12CBF01A50194010E948C1FF901CA0124
:1022E0006A300CF5605DD8016E938D01232B242B91
:1022F000252B79F790E080E0109721F0BD01C70110
:102300000E943A11A1960FB6F894DEBF0FBECDBF62
:10231000DF91CF911F910F91FF90EF90BF90AF9001
:102320009F908F900895695CDECF0C943A110F93C3
:102330001F93CF938C01C62F0E9466046C2F64609C
:10234000C8010E9466046C2F6B7FC8010E9466045E
:1023500083EC90E00197F1F7CF911F910F910895D1
:102360000F931F93CF93DF938C01D62FC42F607FE1
:10237000642B0E94971180E1D89FB00111246C2B2F
:10238000C801DF91CF911F910F910C94971140E0FC
:1023900061E087EB98E00E94B0118BE39FE1019729
:1023A000F1F70895CF93DF93CDB7DEB728970FB637
:1023B000F894DEBF0FBECDBF98E0E4E3F1E0DE01AC
:1023C000119601900D929A95E1F79091BF0896179A
:1023D00008F46FEF262F30E0220F331F41E050E06A
:1023E0004C0F5D1F240F351FF9016081680F606875
:1023F00040E087EB98E028960FB6F894DEBF0FBE5A
:10240000CDBFDF91CF910C94B01141E00E94B0118B
:1024100081E090E00895CF92DF92EF92FF921F93B8
:10242000CF93DF93EC0180E2689FF0011124E55522
:10243000FC4F9385917161F0842F827449F080E0A4
:10244000DF91CF911F91FF90EF90DF90CF90089593
:10245000142F6A8B8091000190910101A0910201DB
:10246000B09103018E879F87A88BB98BC488D588CC
:10247000F12CE12C7601DD24CC24CF8AD88EE98E94
:10248000FA8E828D938DB0E0A0E0AC01BD014C29A5
:102490005D296E297F294F8B588F698F7A8F8385AD
:1024A0008871B1F4848D958DA68DB78D8B8B9C8BA7
:1024B000AD8BBE8B81E08D831F701C831E821F82BB
:1024C000188619861A861B861C861D8681E0B8CF61
:1024D000803109F0B4CF9E012D5E3F4F8B8D9C8DD6
:1024E0000E94EE09882309F4AACF84E0E4CF85EDA9
:1024F0008093BC0080918D0290918E02A0918F02FA
:10250000B09190020796A11DB11D23E0B695A79545
:10251000979587952A95D1F72091BC0024FD03C09B
:102520001092D602089540918D0250918E026091D2
:102530008F0270919002452B462B472B69F3009731
:10254000A105B10541F025E32A95F1F700000197B7
:10255000A109B109E1CF80918C020C94C0033F9294
:102560004F925F926F927F928F929F92AF92BF92A3
:10257000CF92DF92EF92FF920F931F93CF93DF934F
:10258000CDB7DEB72B970FB6F894DEBF0FBECDBF29
:102590007C01FE013196CE010C966F0130E2319341
:1025A000E817F907E1F7DA0130E087E09D91B92EED
:1025B000992309F43CC09E32F1F48A30C9F480E0DA
:1025C0002B960FB6F894DEBF0FBECDBFDF91CF9133
:1025D0001F910F91FF90EF90DF90CF90BF90AF9041
:1025E0009F908F907F906F905F904F903F90089555
:1025F00038E08AE0DBCFEAEEF0E04491442321F0BA
:1026000031969413FACFDBCF8317C8F24FED490F01
:102610004E35A8F64FE9490F4A3118F440EEB42E72
:10262000B90EF601E30FF11DB0823F5FBFCF898184
:10263000803229F2322E8B01DB015B968D919C91C9
:102640005C97F701948F838F16961D921D921D92B1
:102650001C921997FB011286138614861586F801C1
:1026600082859385A485B585438954896589768952
:1026700084179507A607B70708F04DC025E0B69563
:10268000A795979587952A95D1F7F82FFF70AF2ECC
:10269000D80115968C91823008F491CFC8010E9420
:1026A000731097FD8CCFF80182859385A485B5853D
:1026B0004F96A11DB11D82879387A487B587F0E24D
:1026C000AF9EB001112465557C4F6115710509F469
:1026D00076CFDB018C91882341F0853E09F062C002
:1026E000BB2029F0BB24B394BACFB1100EC0F701C0
:1026F000A28A8091000190910101A0910201B09104
:10270000030186879787A08BB18BDB018C918111A8
:10271000E9CFBB24B394832D8271823109F04FCF6E
:10272000BB2009F44DC0F7016685778580899189C2
:1027300041E00E945807882309F441CFD7015296FF
:102740008C91B0E28B9FC001112485559C4F00975E
:1027500009F435CFFC013A9626E1DF011D922A9556
:10276000E9F72BE0F601DC0101900D922A95E1F7E3
:1027700021E238E2FC01318B208B40E058E05787A2
:102780004687338B228B318F208F578B468B81E08E
:102790000E942D07882309F412CF432DD7015296AA
:1027A0006C910AC04BE050E0C6010E948623892B41
:1027B00009F055CF432D6A2DC7010E940B1200CF9F
:1027C000F8018581823009F4FACEC8010E94530BCA
:1027D000882309F4F4CED8015B96ED91FC915C97C7
:1027E00016968D909D90AD90BC901997B2E08B1A83
:1027F0009108A108B108858504C0880C991CAA1C01
:10280000BB1C8A95D2F786859785A089B189880EE9
:10281000991EAA1EBB1E848124013501480E511C3D
:10282000611C711C84149504A604B70409F1E1E04D
:102830004E1A51086108710881E00E942D07882313
:1028400009F4BDCEEBEAF3E011928BEA95E08E1726
:102850009F07D1F74092000150920101609202015E
:102860007092030180914502816080934502DACF26
:10287000D8015B96ED91FC91258580E092E0A0E087
:10288000B0E004C0880F991FAA1FBB1F2A95D2F77A
:10289000F8014389548965897689840F951FA61F9D
:1028A000B71F838B948BA58BB68BD70152961C9246
:1028B0008BEA93E04FCFCF93DF93EC01898D9A8D14
:1028C000009741F00E94FE0D898D9A8D0E94FD2295
:1028D0001A8E198EDF91CF910895EF92FF920F9388
:1028E0001F93CF93DF93EC017B018A011B821A8235
:1028F00088EE93E0A0E0B0E08C839D83AE83BF833D
:1029000080E791E0998388838DE190E00E946122C5
:102910009A8F898F009779F02DE1F701DC01019002
:102920000D922A95E1F74CE050E0B801CE010C96EB
:102930000E94B523188EDF91CF911F910F91FF90C8
:10294000EF9008952F923F924F925F926F927F92F5
:102950008F929F92AF92BF92CF92DF92EF92FF92AF
:102960000F931F93CF93DF93CDB7DEB7C756D1092F
:102970000FB6F894DEBF0FBECDBF6C015B01A6960B
:102980004FAFA69719A218A284E691E09F8F8E8F71
:102990001BA21C821B829A8389831E824E018EE1B8
:1029A000880E911CC4010E94590A75018E010F5FA7
:1029B0001F4F240118016FE270E0C7010E949323AA
:1029C000009709F45DC0F70120812F3271F4FFEF09
:1029D000EF1AFF0A902F812F8201492E582E942D35
:1029E000852D2801092F182FE6CF8E198D3008F07C
:1029F0008CE0682E712CA301B701CE01885A9F4F3D
:102A00000E94B523E8E5F0E0EC0FFD1FE60DF71D91
:102A10001082C8010E94FE0DF8018581882301F112
:102A20001EAE1DAE84E691E09CAF8BAF21961FAE2B
:102A30002197A896EEADFFADA897AE0EBF1EF5018B
:102A4000808181112AC0BE01655C7F4FC1010E9457
:102A5000B70F4AE851E0B101C6010E946D143BC0B6
:102A600021E0AE01485A5F4FB201C8010E94AF1287
:102A70008823B1F2E60CF71CC2010E94FE0DAFCF15
:102A8000C7018A199B09A8969FAF8EAFA897B2017C
:102A9000CE01CB960E94B70FCCCF19A218A284E624
:102AA00091E09F8F8E8F1BA221968FAD2197811170
:102AB0002DC0F6011382128288EE93E0A0E0B0E010
:102AC00084839583A683B78380E791E09183808395
:102AD000128E118E1486C601C959DF4F0FB6F894B5
:102AE000DEBF0FBECDBFDF91CF911F910F91FF9041
:102AF000EF90DF90CF90BF90AF909F908F907F909E
:102B00006F905F904F903F902F900895A6962FADB5
:102B1000A697A501BE01655C7F4FC4010E94AF125C
:102B2000882339F2CE01CB960E94FE0DA6968FAD7A
:102B3000A6978670863039F449A95AA96BA97CA951
:102B4000C4010E94AD0AB401C1010E94B70FA501E2
:102B500082CF1F920F920FB60F9211242F933F93A3
:102B60004F935F936F937F938F939F93AF93BF9395
:102B7000EF93FF938DEA95E00E945601FF91EF914C
:102B8000BF91AF919F918F917F916F915F914F9185
:102B90003F912F910F900FBE0F901F9018951F928D
:102BA0000F920FB60F9211242F938F939F93EF9351
:102BB000FF93E091BD05F091BE058081E091C305D2
:102BC000F091C40582FD1BC090818091C6058F5F86
:102BD0008F732091C705821741F0E091C605F0E0A0
:102BE000E355FA4F958F8093C605FF91EF919F9122
:102BF0008F912F910F900FBE0F901F90189580818D
:102C0000F4CF1F920F920FB60F9211242F933F9380
:102C10008F939F93AF93BF938091FD029091FE029B
:102C2000A091FF02B09100033091FC0223E0230F3A
:102C30002D3758F50196A11DB11D2093FC028093FC
:102C4000FD029093FE02A093FF02B09300038091D7
:102C5000010390910203A0910303B0910403019634
:102C6000A11DB11D8093010390930203A093030360
:102C7000B0930403BF91AF919F918F913F912F919A
:102C80000F900FBE0F901F90189526E8230F029605
:102C9000A11DB11DD2CF1F920F920FB60F9211241A
:102CA0002F933F934F935F936F937F938F939F9354
:102CB000AF93BF93EF93FF93E0910601F09107016B
:102CC0000995FF91EF91BF91AF919F918F917F9166
:102CD0006F915F914F913F912F910F900FBE0F9089
:102CE0001F9018951F920F920FB60F9211242F93D9
:102CF0003F934F935F936F937F938F939F93AF9384
:102D0000BF93EF93FF93E0910401F09105010995C2
:102D1000FF91EF91BF91AF919F918F917F916F91B3
:102D20005F914F913F912F910F900FBE0F901F9089
:102D300018951F920F920FB60F9211242F933F9365
:102D40004F935F936F937F938F939F93AF93BF93B3
:102D5000EF93FF938091B900887F803609F44AC0D1
:102D6000F0F5883209F4A7C018F5803109F49BC04A
:102D7000B8F4882309F4F9C0883009F494C0FF91AD
:102D8000EF91BF91AF919F918F917F916F915F91E3
:102D90004F913F912F910F900FBE0F901F9018955C
:102DA000883109F488C0803251F78093D50214C06D
:102DB000803409F49DC040F48033B9F38833F9F6C8
:102DC0008093D50285ECB0C0803509F485C0883584
:102DD00009F496C0883499F60E947712D0CF8839CA
:102DE00009F48CC038F5883729F050F4883611F092
:102DF000803729F683E08093D6021092D40257C020
:102E0000883809F47BC0803919F0803809F0B7CFD1
:102E10008091D402803208F071C0E091D40281E048
:102E20008E0F8093D4028091BB00F0E0EC54FD4FF4
:102E300080833DC0803B39F0E0F4803A09F479C0EA
:102E4000883A09F09CCF84E08093D6021092B302B6
:102E50001092B202E0910703F09108030995809166
:102E6000B20281110FC081E08093B20210929202EF
:102E700009C0803C09F4A6CF883C09F4A3CF883B65
:102E800009F07DCFE091B30281E08E0F8093B30211
:102E9000F0E0EE56FD4F80818093BB009091B3022D
:102EA0008091B20229C08091FB028093BB0085EC27
:102EB0008093BC0064CF9091FA028091F902981738
:102EC00058F5E091FA0281E08E0F8093FA02F0E06B
:102ED000E752FD4F8081E9CFE091FA0281E08E0F49
:102EE0008093FA028091BB00F0E0E752FD4F8083AF
:102EF0009091FA028091F9029817C8F285E8D8CF2C
:102F0000E091FA0281E08E0F8093FA028091BB007B
:102F1000F0E0E752FD4F80838091D80281115CCFB1
:102F200081E08093D70284EA8093BC001092D6029D
:102F300026CF85EC8093BC001092D6028091D402FB
:102F4000803230F4E091D402F0E0EC54FD4F108276
:102F50006091D40270E0E0910503F091060384EBE8
:102F600092E009951092D4020ACF1092D50234CF84
:102F70001F920F920FB60F9211242F933F934F93EE
:102F80005F938F939F93EF93FF9380910A0186FD48
:102F90003FC020919003422F022E000C550B27FFBB
:102FA0004FC080910F0320910E0330E4839FC00136
:102FB0001124805F9C4F820F911DFC01808190E065
:102FC00051954195510902C0959587954A95E2F72B
:102FD00090938B0080938A0090938900809388005F
:102FE00080910E038F5F80930E0380910E038034D7
:102FF000D0F010920E03E0910F03F0E0E85FFE4F77
:1030000091E0908380910F03892780930F030BC079
:103010008091420291E0892780934202809142028E
:10302000882309F4B6CFFF91EF919F918F915F9123
:103030004F913F912F910F900FBE0F901F901895B9
:1030400080910F0330910E03F0E48F9FC001112493
:10305000805F9C4F830F911DFC01808190E002C036
:10306000880F991F2A95E2F7B3CF1F920F920FB6E0
:103070000F9211242F933F934F935F936F937F93FE
:103080008F939F93AF93BF93EF93FF93E0910F03C1
:1030900091E0E927F0E0E85FFE4F80818823D1F1DD
:1030A00080910F0389278093410280916F008F7D6B
:1030B00080936F00789481EA96E00E94101020912E
:1030C00091033091920328173907A8F180910A01E2
:1030D00083FF0CC06CE270E080E090E00E94410B46
:1030E00080916F00806280936F0014C080916F00A8
:1030F0008E7D80936F00E091BA06F091BB06309709
:1031000039F08581882321F081EA96E00E945B14E2
:1031100010929303FF91EF91BF91AF919F918F9187
:103120007F916F915F914F913F912F910F900FBEC3
:103130000F901F901895609141028091BA0690916E
:10314000BB06009751F020E4629FB0011124605F3C
:103150007C4F40E450E00E94530CE0914102F0E0CB
:10316000E85FFE4F1082BCCFEDEAF5E013821282D9
:1031700088EE93E0A0E0B0E084839583A683B783D4
:1031800020E431E03183208325EC30E0358724874B
:1031900024EC30E03787268720EC30E0318B208B21
:1031A00021EC30E0338B228B22EC30E0358B248B0A
:1031B00026EC30E0378B268B118E128E138E148EF8
:1031C000EAE4F6E01382128284839583A683B783B0
:1031D00022E531E031832083E6E5F6E020E5208337
:1031E0001182E8E5F6E0158216821186138642E028
:1031F00050E060E070E0448755876687778713A2C8
:1032000015A614A624E631E033A722A717A6E1EA03
:10321000F6E01382128284839583A683B78320E726
:1032200031E031832083128E118E1486ECEBF6E0B0
:1032300016821782108611861286138614861586CA
:1032400016861786108A118A128A138A148A158A9A
:10325000E7EBF8E01382128242E851E051834083A9
:1032600047E2448344E1418744E042871386109259
:10327000450710926E07109297071092C0071092A0
:10328000E9071092120810923B08109264081092FD
:103290008D081092B608E2E0F7E013821282848370
:1032A0009583A683B78331832083128E118E148673
:1032B0000895CF93DF93CDB7DEB76B970FB6F89431
:1032C000DEBF0FBECDBF789484B5826084BD84B567
:1032D000816084BD85B5826085BD85B5816085BD11
:1032E00080916E00816080936E00109281008091C9
:1032F0008100826080938100809181008160809351
:103300008100809180008160809380008091B10075
:1033100084608093B1008091B00081608093B000A0
:1033200080917A00846080937A0080917A00826034
:1033300080937A0080917A00816080937A008091F6
:103340007A00806880937A001092C1001092FE0685
:103350001092FF0610920007109201071092BE060D
:103360001092BF061092C0061092C1060E946E0312
:103370006B017C014B015C0188EB880E8BE0981E91
:10338000A11CB11C0E946E036C157D058E059F0566
:1033900028F086169706A806B906A0F768EE73E02F
:1033A00080E090E00E94BB02E091BD05F091BE0577
:1033B00082E08083E091B905F091BA051082E09136
:1033C000BB05F091BC0580E180831092C505E091BA
:1033D000C105F091C20586E08083E091BF05F091C0
:1033E000C005808180618083E091BF05F091C005B8
:1033F000808188608083E091BF05F091C005808165
:1034000080688083E091BF05F091C00580818F7D49
:1034100080830E946E036093BE067093BF06809304
:10342000C0069093C1066CE871E08DEA95E00E94B9
:1034300095110E946E036B017C014B015C019AE0C7
:10344000890E911CA11CB11C0E946E036C157D0598
:103450008E059F0528F086169706A806B906A0F7E0
:1034600081E08093D2060E946E036093BE06709343
:10347000BF068093C0069093C1066DE971E08DEAA6
:1034800095E00E94951164EA71E08DE197E00E9459
:103490009E2367EC71E086E497E00E949E236AEE2B
:1034A00071E08FE697E00E949E2364EA71E088E96C
:1034B00097E00E949E2367EC71E081EC97E00E9408
:1034C0009E236AEE71E08AEE97E00E949E2364EAF2
:1034D00071E083E198E00E949E2367EC71E08CE349
:1034E00098E00E949E236AEE71E085E698E00E94D3
:1034F0009E2364EA71E08EE898E00E949E23109279
:103500000C0310920B0310920A03109209030E94FD
:10351000A20383E091E0909308038093070384E083
:1035200091E090930603809305031092BC0880916C
:10353000C108823018F098E09093BC088093BF08CF
:1035400062E370E080E090E00E94BB026091C208FC
:1035500087EB98E00E94660468EE73E080E090E0FC
:103560000E94BB0260E387EB98E00E9497110BE496
:1035700016E4C8010197F1F760E387EB98E00E9439
:103580009711C8010197F1F760E387EB98E00E947B
:10359000971183E592E00197F1F760E287EB98E0FD
:1035A0000E9497116091BC08606240E087EB98E050
:1035B0000E94B01184E08093BD0840E06CE087EB8E
:1035C00098E00E94B0110E94C71182E08093BE086B
:1035D00040E066E087EB98E00E94B01140E062E0D6
:1035E00087EB98E00E94B0118BE39FE10197F1F720
:1035F00088E08093C20860E087EB98E00E94660450
:1036000089E08093940381E08093900360E082E0FE
:103610000E94650260E083E00E9465028DEE92E008
:103620009093050180930401809169008C7F8160F3
:1036300080936900E89A81E293E090930701809378
:10364000060180916900837F846080936900E99A14
:10365000B6E32B2EB1E03B2E14EF412E55245394AC
:10366000612C712C0E946E03672B682B692B09F467
:1036700007C10E946E030091A7031091A803209137
:10368000A9033091AA03601771078207930708F412
:10369000A6C10091A7031091A8032091A90330911E
:1036A000AA036B017C01C01AD10AE20AF30A97014E
:1036B00086010A3F11052105310508F4E9C0609330
:1036C000A7037093A8038093A9039093AA03409241
:1036D000CA065092CB066092CC067092CD0610922C
:1036E000CE061092CF061092D0061092D10680918D
:1036F000C2069091C306A091C406B091C5068093FE
:10370000C6069093C706A093C806B093C9060E9448
:103710006E036093C2067093C3068093C4069093B1
:10372000C5068DEA95E00E942801843611F40E94B6
:10373000ED100E946E036093BE067093BF068093E7
:10374000C0069093C1060E946E036B017C016DE080
:1037500072E08DEA95E00E9495112AE041E050E088
:1037600060E070E08DEA95E00E94491164E172E04A
:103770008DEA95E00E9495112AE0B701A6018DEA35
:1037800095E00E94491166E172E08DEA95E00E94A1
:1037900095118091C2069091C306A091C406B09184
:1037A000C506B701A601481B590B6A0B7B0B2AE023
:1037B0008DEA95E00E94491166E172E08DEA95E09C
:1037C0000E9495114091C2065091C3066091C406B3
:1037D0007091C5068091C6069091C706A091C80653
:1037E000B091C906481B590B6A0B7B0B2AE08DEA86
:1037F00095E00E94491168E172E08DEA95E00E942F
:1038000095110E946E03AB01BC012AE08DEA95E0A0
:103810000E9449116AE172E08DEA95E00E943A1136
:1038200061E272E08DEA95E00E943A110E946E0317
:103830004B015C017C016B0185E0C80ED11CE11CD1
:10384000F11C0E946E03681579058A059B0528F016
:10385000C616D706E806F906A0F78DEA95E00E949D
:103860002801843611F40E94ED100E946E036093CB
:10387000C2067093C3068093C4069093C50608C021
:103880000E946E03623071058105910508F0F1CE4A
:1038900080918706882321F082E896E00E94FE0D41
:1038A000109263061092610610925E0610925D06F9
:1038B0008AE080935C060E946E038B0161E0809138
:1038C0005C060E94650261E080915C060E943702FE
:1038D000FFB6F89480910D03811126C0EAE4F1E06F
:1038E0008491F1019491E82FF0E0EE0FFF1FEE5D5F
:1038F000FE4FA591B4918C91982321F461E08AE068
:103900000E94370261E08AE00E9465028CB5806106
:103910008CBD8CB580648CBD61E08DE00E94650239
:1039200061E08BE00E94650280910D038F5F8093C0
:103930000D03FFBEF2E5F0935606109257068091F4
:103940005606909157060E9483057AE0F72E8FEF76
:103950000E945E05FA94F110FACF88E596E00E9485
:10396000860520E030E0A90160E088E596E00E944D
:103970009C05F82E80936206CC24C3948C15C1F16B
:103980000E946E03601B710B613D774050F381E034
:1039900080935D0688E596E00E9453050E94C7115A
:1039A00060E080E00E94D21164E272E087EB98E070
:1039B0000E94951165E070E080E090E00E94BB02FB
:1039C00080E0C82E80E0D82ECD2809F44BCE0E948E
:1039D0004201882309F446CE0E94000043CE609342
:1039E000A7037093A8038093A9039093AA0351CED1
:1039F0002AEA31E040E050E068E088E596E00E9485
:103A00009C0582FF2AC0F092630680916306C12C58
:103A1000D12CE12C50E4F52E823019F0C12CD12CA0
:103A2000760120E030E0A90167E388E596E00E9496
:103A30009C05A701960169E288E596E00E949C0535
:103A4000809362068823D1F00E946E03601B710B85
:103A5000613D774030F388E09BCF64E0F62E0E9412
:103A6000650580936206FA94F110F9CF8A3A11F055
:103A700082E08ECF82E080936306C7CF8091630699
:103A80008230E1F420E030E0A9016AE388E596E0C5
:103A90000E949C05882321F0A6E0A0935D067ACFC2
:103AA0000E946505807C803C19F4B3E0B093630606
:103AB0000E9465050E9465050E94650588E596E0FF
:103AC0000E945305E0E5E09356061092570681E008
:103AD0000E94A207882309F484C082E896E00E942D
:103AE000590A882309F45ACF80912C0190912D0115
:103AF0002091A5033091A6038217930709F078C09F
:103B000050912B014091A403541372C00091A20361
:103B10002091A303201709F44DCF8130910509F4BA
:103B200093C008F47EC0029709F06AC047E163E3DE
:103B300072E0CE0101960E94A214BE016F5F7F4F1A
:103B400082E097E00E94BC100E94C7116BE071E018
:103B500087EB98E00E9495119DE1C92E97E0D92E40
:103B600029E0E22EF12C10E000E0B7010F2C000C50
:103B7000880B990B0E94931E9B01AC0160E070E0E2
:103B800080E291E40E94F71FD6019896AC90B12C88
:103B90000E94C81FA69E9001A79E300DB69E300DB4
:103BA0001124020F131FB9E2CB0ED11CE1E0EE1A73
:103BB000F108D8F6A80170E060E02AE082E097E022
:103BC0000E94491161E272E082E097E00E943A119E
:103BD0001092A4031092A20382E097E00E945B146B
:103BE0000FC080E00E94A207882309F4D7CE75CFCA
:103BF0002130310519F1A8F02230310509F496CFB2
:103C00008091A5039091A60390932D0180932C01A0
:103C10008091A40380932B018091A2038093A3033E
:103C2000C9CE0E94C71160E082E00E94D21165E215
:103C300071E087EB98E00E949511E2CF8091A30399
:103C40000091A203801799F0EE24E394F12C10E088
:103C50000E151F058CF041E050E064E271E08CE944
:103C600093E00E94A523FFEFEF1AFF0AF1CF8091A6
:103C7000A403882349F3C4CF0E94C71160E080E009
:103C80000E94D2116091A40319E2619FB001112436
:103C9000635E784F87EB98E00E94951161E080E0C9
:103CA0000E94D2116CE973E087EB98E00E949511B5
:103CB000E091A4031E9FF0011124E35EF84F809170
:103CC000A20380A7ECE9F3E0DF0135E0C32E1D92EB
:103CD000CA94E9F795CFFC0188279927E8942191A8
:103CE0002032E9F3293010F02E30C8F32B3241F0A6
:103CF0002D3239F4689404C00E94891E820F911DF0
:103D0000219120532A30C0F31EF4909581959F4F46
:103D100008957AE0979F902D879F802D910D112413
:103D20000895E89409C097FB3EF4909580957095AE
:103D300061957F4F8F4F9F4F9923A9F0F92F96E9F7
:103D4000BB279395F695879577956795B795F1116C
:103D5000F8CFFAF4BB0F11F460FF1BC06F5F7F4F09
:103D60008F4F9F4F16C0882311F096E911C077231B
:103D700021F09EE8872F762F05C0662371F096E824
:103D8000862F70E060E02AF09A95660F771F881FF3
:103D9000DAF7880F9695879597F908950E94E11EA6
:103DA0000C94521F0E94441F38F00E944B1F20F0B9
:103DB000952311F00C943B1F0C94411F11240C947B
:103DC000861F0E94631F70F3959FC1F3950F50E00B
:103DD000551F629FF001729FBB27F00DB11D639FBD
:103DE000AA27F00DB11DAA1F649F6627B00DA11D63
:103DF000661F829F2227B00DA11D621F739FB00D09
:103E0000A11D621F839FA00D611D221F749F332778
:103E1000A00D611D231F849F600D211D822F762F11
:103E20006A2F11249F5750409AF0F1F088234AF0EE
:103E3000EE0FFF1FBB1F661F771F881F915050405A
:103E4000A9F79E3F510580F00C943B1F0C94861FF0
:103E50005F3FE4F3983ED4F3869577956795B795E1
:103E6000F795E7959F5FC1F7FE2B880F911D9695FB
:103E7000879597F9089597F99F6780E870E060E06B
:103E800008959FEF80EC089500240A9416161706F3
:103E900018060906089500240A941216130614063B
:103EA00005060895092E0394000C11F4882352F09E
:103EB000BB0F40F4BF2B11F460FF04C06F5F7F4F56
:103EC0008F4F9F4F089557FD9058440F551F59F03D
:103ED0005F3F71F04795880F97FB991F61F09F3FF7
:103EE00079F087950895121613061406551FF2CF20
:103EF0004695F1DF08C0161617061806991FF1CF70
:103F000086957105610508940895E894BB27662796
:103F10007727CB0197F90895A1E21A2EAA1BBB1BA4
:103F2000FD010DC0AA1FBB1FEE1FFF1FA217B30785
:103F3000E407F50720F0A21BB30BE40BF50B661F9B
:103F4000771F881F991F1A9469F76095709580955F
:103F500090959B01AC01BD01CF0108950E94B91F4E
:103F6000A59F900DB49F900DA49F800D911D1124CD
:103F70000895A29FB001B39FC001A39F700D811D42
:103F80001124911DB29F700D811D1124911D089562
:103F90000E946B1F88F09F5798F0B92F9927B7514F
:103FA000B0F0E1F0660F771F881F991F1AF0BA95DD
:103FB000C9F714C0B13091F00E94851FB1E0089597
:103FC0000C94851F672F782F8827B85F39F0B93F89
:103FD000CCF3869577956795B395D9F73EF4909590
:103FE0008095709561957F4F8F4F9F4F0895FA018F
:103FF000EE0FFF1F309621053105A1F16115710506
:1040000061F48038BFE39B0749F1689490388105DB
:1040100061F08038BFEF9B0741F099234AF5FF3FDD
:10402000E1053105210519F1E8940894E795D901D6
:10403000AA2329F4AB2FBE2FF85FD0F310C0FF5F87
:1040400070F4A695E0F7F73950F019F0FF3A38F41C
:104050009F779F930DD00F9007FC9058089546F0DE
:104060000C94411F60E070E080E89FE308954FE703
:104070009F775F934F933F932F930E94F2202F914E
:104080003F914F915F910E94CE1E0C944F2029F4D6
:1040900016F00C943B1F0C94851F0C94411F0E943A
:1040A0006B1FA8F39638A0F707F80F92E8942BE35C
:1040B0003AEA48EB5FE70E94E41E0F920F920F92DC
:1040C0004DB75EB70F920E943A21E8E6F0E00E94F9
:1040D00081204F915F91EF91FF91E595EE1FFF1FBA
:1040E00049F0FE57E0684427EE0F441FFA95E1F7C8
:1040F0004195550B0E94B4200F9007FE0C94A82008
:104100000895DF93CF931F930F93FF92EF92DF9267
:104110007B018C01689406C0DA2EEF010E94E11E3B
:10412000FE01E894A5912591359145915591A6F30D
:10413000EF010E948621FE019701A801DA9469F738
:10414000DF90EF90FF900F911F91CF91DF91089535
:104150009B01AC0160E070E080E89FE30C94DB2100
:104160000C943B1F0C944D220E946B1FD8F3992393
:10417000C9F3940F511DA3F39150504094F059F09E
:10418000882332F0660F771F881F91505040C1F787
:104190009E3F51052CF7880F911D9695879597F9AD
:1041A00008955F3FACF0983E9CF0BB2786957795CD
:1041B0006795B79508F4B1609395C1F7BB0F58F7B1
:1041C00011F460FFE8CF6F5F7F4F8F4F9F4FE3CFBA
:1041D0000C94861F16F00C944D220C94411F689489
:1041E0000C943B1F0E946B1FA8F39923C1F3AEF3FD
:1041F000DF93CF931F930F93FF92C92FDD2788235F
:104200002AF02197660F771F881FDAF720E030E049
:1042100040E85FEB9FE3883920F0803E38F021963C
:104220008F770E946F21E0E9F0E004C00E946F21C7
:10423000EDEBF0E00E9481208B01BE01EC01FB2E32
:104240006F5771097595771F880B990B0E94931E04
:1042500028E132E741E35FE30E94E11EAF2D9801C0
:10426000AE01FF900F911F91CF91DF910E948621A7
:104270000C94521FFA01DC01AA0FBB1F9B01AC0179
:10428000BF5728F4222733274427507820C0B7513E
:1042900090F4AB2F0024469537952795011CA395E4
:1042A000D2F3002071F0220F331F441FB395DAF3CD
:1042B0000ED00C946E2161307105A0E88A07B946D2
:1042C00030F49B01AC0166277727882790783096D9
:1042D00021F0208331834283538308955058BB27B4
:1042E000AA270E9486210C94521F0E94441F38F076
:1042F0000E944B1F20F039F49F3F19F426F40C94D0
:10430000411F0EF4E095E7FB0C943B1FE92F0E9440
:10431000631F58F3BA17620773078407950720F0E5
:1043200079F4A6F50C94851F0EF4E0950B2EBA2FA8
:10433000A02D0B01B90190010C01CA01A0011124AB
:10434000FF27591B99F0593F50F4503E68F11A1657
:10435000F040A22F232F342F4427585FF3CF4695E8
:1043600037952795A795F0405395C9F77EF41F160A
:10437000BA0B620B730B840BBAF09150A1F0FF0FD4
:10438000BB1F661F771F881FC2F70EC0BA0F621FC0
:10439000731F841F48F4879577956795B795F795B0
:1043A0009E3F08F0B0CF9395880F08F09927EE0F45
:1043B0009795879508950E94EF210C94521F0E94B3
:1043C0004B1F58F00E94441F40F029F45F3F29F032
:1043D0000C943B1F51110C94861F0C94411F0E949A
:1043E000631F68F39923B1F3552391F3951B550B84
:1043F000BB27AA2762177307840738F09F5F5F4FB8
:10440000220F331F441FAA1FA9F335D00E2E3AF0F6
:10441000E0E832D091505040E695001CCAF72BD00E
:10442000FE2F29D0660F771F881FBB1F261737075F
:104430004807AB07B0E809F0BB0B802DBF01FF2791
:1044400093585F4F3AF09E3F510578F00C943B1F14
:104450000C94861F5F3FE4F3983ED4F386957795DE
:104460006795B795F7959F5FC9F7880F911D96954A
:10447000879597F90895E1E0660F771F881FBB1FA6
:10448000621773078407BA0720F0621B730B840B53
:10449000BA0BEE1F88F7E09508959F3F31F09150D9
:1044A00020F4879577956795B795880F911D969518
:1044B000879597F90895EE0FFF1F0590F491E02D71
:1044C00009940F931F93CF93DF938230910510F4DB
:1044D00082E090E0E091C508F091C60830E020E06D
:1044E000B0E0A0E0309799F42115310509F44AC0F5
:1044F000281B390B24303105D8F58A819B81611541
:10450000710589F1FB0193838283FE0111C0408113
:1045100051810281138148175907E0F04817590764
:1045200099F4109761F012960C93129713961C93BE
:104530003296CF01DF91CF911F910F910895009393
:10454000C5081093C608F4CF2115310551F0421764
:10455000530738F0A901DB019A01BD01DF01F80121
:10456000C1CFEF01F9CF9093C6088093C508CDCF96
:10457000FE01E20FF31F8193919322503109398399
:104580002883D7CF2091C3083091C408232B41F44E
:1045900020913001309131013093C4082093C30839
:1045A00020912E0130912F012115310541F42DB7B5
:1045B0003EB74091320150913301241B350BE091FD
:1045C000C308F091C408E217F307A0F42E1B3F0BB9
:1045D0002817390778F0AC014E5F5F4F2417350775
:1045E00048F04E0F5F1F5093C4084093C308819357
:1045F00091939FCFF0E0E0E09CCFCF93DF930097C3
:10460000E9F0FC01329713821282A091C508B091A3
:10461000C608ED0130E020E01097A1F4208131813F
:10462000820F931F2091C3083091C40828173907BF
:1046300009F061C0F093C408E093C308DF91CF9103
:104640000895EA01CE17DF07E8F54A815B819E01F4
:1046500041155105B1F7E901FB83EA83499159916D
:10466000C40FD51FEC17FD0761F48081918102967C
:10467000840F951FE90199838883828193819B83AD
:104680008A83F0E0E0E012968D919C911397009759
:10469000B9F52D913C911197CD010296820F931F90
:1046A0002091C3083091C4082817390739F630978C
:1046B00051F51092C6081092C508B093C408A09393
:1046C000C308BCCFD383C28340815181840F951F1F
:1046D000C817D90761F44E5F5F4F88819981480FF1
:1046E000591F518340838A819B8193838283211543
:1046F000310509F0B0CFF093C608E093C5089ECF0E
:10470000FD01DC01C0CF13821282D7CFFB01DC0197
:1047100004C08D910190801921F441505040C8F798
:10472000881B990B0895FC018191861721F088233D
:10473000D9F7992708953197CF010895FB01DC013E
:1047400001900D920020E1F70895FB01DC010D902E
:104750000020E9F711974150504028F001900020C7
:104760000D92C9F708951C920895FB01DC01415098
:10477000504048F001900D920020C9F701C01D92F1
:0C47800041505040E0F70895F894FFCF3E
:10478C00FFFFFFFF7A037A030101605468616E6BCF
:10479C007320666F7220646F207375727665792052
:1047AC00212121002A48656C6C6F00FF020000007B
:1047BC00C7088000000040001400540000000000F6
:1047CC007801D5000501C50136011401280100004E
:1047DC00000037040A04B91002010304F003E103DA
:1047EC0000000000A60FD500A00DB81000000000BE
:1047FC005D1040103010071010108A10941000003B
:10480C0000000512D500B910B8102F00564D4450B9
:10481C00565F317C315F564D4450560A00564D441C
:10482C0050525F00312E68656C6C6F20686F77207A
:10483C0061726520796F75206D6F74686572206682
:10484C0061636B65723F00322E686920686F772058
:10485C006120647364617364617320617364617358
:10486C0064206173642061733F00332E736565208F
:10487C00796F752064617364617320646173642063
:10488C0061736420617364206173643F00564D440E
:10489C0050455F003A323A007C005F564D4450451B
:1048AC00000D0A005344206E6F7420666F756E64A1
:0E48BC002021007265636F72642E74787400A0
:00000001FF
