:10000000FDC000000C946E170C9443170C94181745
:100010000C94ED160C94C2160C9497160C946C1656
:100020000C9441161CC100001AC1000018C1000048
:1000300016C1000014C1000012C1000010C1000070
:100040000C9452190CC100000AC1000008C1000044
:100050000C94BC1804C1000002C100000C94F715F8
:10006000FEC000000C94C1150C949715F8C0000058
:10007000F6C00000F4C00000F2C000000C94521959
:10008000EEC00000ECC00000EAC000000C94BC18F8
:10009000E6C00000E4C00000E2C000000C94991724
:1000A000DEC000000C945219DAC00000D8C0000075
:1000B000D6C000000C94BC180C945219D0C000009B
:1000C000CEC00000CCC000000C94BC18C8C000001A
:1000D000C6C00000C4C00000C2C00000C0C0000014
:1000E000BEC000007C3C3E5E2B3D3F2F5B5D3B2C49
:1000F0002A225C0000002200250028002B002E0090
:100100003100340002010000050108010B0100006C
:100110000A0B02090C0D0E08070304010000000081
:1001200000000000000000000000000000000000CF
:10013000000000000000000000001211100000008C
:1001400000000000000000000000000000000000AF
:100150000000000000002100240027002A002D00DC
:100160003000330001010000040107010A0101020F
:1001700010202008081020401020408002010201B9
:100180000804020101020408102040808040201071
:1001900008040201800402018040201008040201CA
:1001A0000804020101020408102040800102040832
:1001B000102040800505050507050808080802020B
:1001C00002020A0A080804040404010101010101F1
:1001D00001010303030303030303040707070C0CD4
:1001E0000C0C0C0C0C0C020202020606060606069B
:1001F00006060B0B0B0B0B0B0B0BF01911241FBE80
:10020000CFEFD1E2DEBFCDBF00E00CBF29E0A8E216
:10021000B3E001C01D92A23DB207E1F713E0A0E0F8
:10022000B2E0E8ECF1E400E00BBF02C007900D92F1
:10023000A832B107D9F710E0CEEFD0E000E006C059
:1002400021970109802FFE010E94771FCD3FD10722
:1002500080E00807A9F70E94811A0C94E220D0CE12
:100260008091510890E0880F991FFC01EC57FD4FD9
:100270000190F081E02D20914E0830914F0831839C
:100280002083FC01E458FD4F0190F081E02D22EB2A
:1002900020838C589D4FDC01ED91FC9189E1808396
:1002A0000895AF92BF92CF92DF92EF92FF920F9399
:1002B0001F93CF93DF936C017B018B01040F151FFC
:1002C000EB015E01AE18BF08C017D10759F0699164
:1002D000D601ED91FC910190F081E02DC6011995B8
:1002E000892B79F7C501DF91CF911F910F91FF9075
:1002F000EF90DF90CF90BF90AF900895089508954C
:100300000895FC01538D448D252F30E0842F90E01B
:10031000821B930B541710F0CF9608950197089500
:10032000FC01918D828D981761F0A28DAE0FBF2FC9
:10033000B11D5D968C91928D9F5F9F73928F90E01F
:1003400008958FEF9FEF0895FC01918D828D98178E
:1003500031F0828DE80FF11D858D90E008958FEFCB
:100360009FEF0895FC01918D228D892F90E0805C94
:100370009F4F821B91098F739927089582E598E01A
:10038000F1DF21E0892B09F420E0822F0895FC01A0
:10039000A48DA80FB92FB11DA35ABF4F2C91848DE6
:1003A00090E001968F739927848FA689B7892C9343
:1003B000A089B1898C91837080648C93938D848D96
:1003C000981306C00288F389E02D80818F7D808399
:1003D0000895EF92FF920F931F93CF93DF93EC0159
:1003E00081E0888F9B8D8C8D98131AC0E889F989DC
:1003F000808185FF15C09FB7F894EE89FF896083DF
:10040000E889F98980818370806480839FBF81E05F
:1004100090E0DF91CF911F910F91FF90EF900895A1
:10042000F62E0B8D10E00F5F1F4F0F731127E02E7C
:100430008C8D8E110BC00FB607FCFACFE889F989B5
:10044000808185FFF5CFCE01A2DFF2CFEB8DEC0FDF
:10045000FD2FF11DE35AFF4FF0829FB7F8940B8FE9
:10046000EA89FB8980818062D0CFCF93DF93EC0152
:10047000888D8823B1F0AA89BB89E889F9898C9194
:1004800085FD03C0808186FD0CC00FB607FCF7CF49
:100490008C9185FFF2CF808185FFEDCFCE0177DF94
:1004A000EACFDF91CF91089580E090E0892B21F091
:1004B00065DF81110E94000080E090E0892B49F007
:1004C00080E090E0892B29F00E94000081110E94B9
:1004D000000080E090E0892B49F080E090E0892BDB
:1004E00029F00E94000081110E94000080E090E04D
:1004F000892B49F080E090E0892B29F00E940000D0
:1005000081110C9400000895282F30E0F901E25F7A
:10051000FE4F9491F901E259FE4F44912C543E4F05
:10052000F9012491222309F435C0992311F1915046
:100530009231F8F4E92FF0E08827EE55FD4F8F4F08
:100540000C94771FD302D702B402CB02CF02B902B8
:10055000DA02E002E402EA02EE02F202F802FC022F
:10056000B902000306030A03809180008F7780930D
:100570008000E22FF0E0EE0FFF1FEC50FF4FA5913F
:10058000B4918FB7F894EC91611148C040954E2317
:100590004C938FBF0895809180008F7DE8CF80912C
:1005A0008000877FE4CF84B58F7784BDE2CF84B5A8
:1005B0008F7DFBCF8091B0008F778093B000D9CF33
:1005C0008091B0008F7DF9CF809190008F778093DC
:1005D0009000CFCF809190008F7DF9CF80919000D7
:1005E000877FF5CF8091A0008F778093A000C1CF47
:1005F0008091A0008F7DF9CF8091A000877FF5CFFB
:10060000809120018F7780932001B3CF80912001CA
:100610008F7DF9CF80912001877FF5CF4E2BB8CF0A
:10062000CF93DF9390E0FC01E259FE4F24918C546C
:100630009E4FFC0184918823D1F090E0880F991F90
:10064000FC01EC5AFE4FA591B491FC01EC50FF4F18
:10065000C591D49161110EC09FB7F8948C91E22F8F
:10066000E0958E238C932881E223E8839FBFDF915E
:10067000CF9108958FB7F894EC91E22BEC938FBF54
:10068000F6CF3FB7F8948091E9039091EA03A091E7
:10069000EB03B091EC0326B5A89B05C02F3F19F0E2
:1006A0000196A11DB11D3FBFBA2FA92F982F8827F2
:1006B000BC01CD01620F711D811D911D42E0660FCD
:1006C000771F881F991F4A95D1F708958F929F929F
:1006D000AF92BF92CF92DF92EF92FF924B015C01FB
:1006E000D0DF6B017C01CDDF6C197D098E099F097C
:1006F000683E734081059105B0F321E0821A9108AC
:10070000A108B10888EEC80E83E0D81EE11CF11CD8
:1007100081149104A104B10431F7FF90EF90DF90B0
:10072000CF90BF90AF909F908F9008952FB7F8947F
:100730006091E5037091E6038091E7039091E803EF
:100740002FBF0895089520919A03260F3327331F52
:1007500021323105ECF42091BE03FC0190E080E0F1
:10076000243069F082E00895A0919A032191AC01B0
:1007700046585C4FA40FB52FB11D2C9301968617D8
:1007800098F380919A03680F60939A0380E008952C
:1007900081E008951092BE0381E08093C00310921F
:1007A000BF0361E084E1B0DE61E085E1ADDEE9EB4D
:1007B000F0E080818E7F808380818D7F808388E4DC
:1007C0008093B80085E48093BC000895CF93DF93B5
:1007D00091E0909379038823A1F0C091B800D09163
:1007E000BA008091BC008A7B8093BC0060E084E109
:1007F0008BDE60E085E188DECDDFD093BA00C09368
:10080000B800DF91CF910895E091F4038091F30354
:10081000E81730F4F0E0EC5AFC4F808190E0089546
:100820008FEF9FEF08959091F4038091F3032FEFE2
:100830003FEF981748F4E92FF0E0EC5AFC4F208185
:1008400030E09F5F9093F403C90108958091F30312
:100850009091F403891B990B0895CF92DF92EF9248
:10086000FF920F931F93CF93DF937C01CB018A01FB
:1008700020915303222389F0EB016B01C40ED51E96
:10088000CC15DD0561F06991D701ED91FC910190E6
:10089000F081E02DC7011995F3CF642F54DFC80113
:1008A000DF91CF911F910F91FF90EF90DF90CF904C
:1008B0000895CF93DF931F92CDB7DEB76983209160
:1008C00053032223F9F02091F103203258F021E064
:1008D00030E0FC013383228390E080E00F90DF91D1
:1008E000CF9108958091F203E82FF0E0ED5CFC4F8A
:1008F000998190838F5F8093F2038093F10381E06D
:1009000090E0ECCF61E0CE0101961DDFF8CFCF92F1
:10091000DF92EF92FF920F931F93CF93DF93FC012F
:10092000C48121E020935303C09332031092F20359
:100930001092F1038385682B8FEE98E0BADFD09197
:10094000F103D13208F08CC09CDE6B017C018091F8
:10095000BE03811162C082E08093BE0381E0809378
:10096000C0038FEF8093BD031092E203D093E103A5
:10097000A3E3B3E0E1ECF3E080E0D81380C0109291
:10098000E3038091E303CC0FC82BC093E303809172
:10099000BF03813009F077C01092BF0372DE6B0194
:1009A0007C018091E3038093BB008091750390915B
:1009B0007603A0917703B0917803892B8A2B8B2B38
:1009C00091F05FDE0091750310917603209177031B
:1009D000309178036C197D098E099F090617170756
:1009E00028073907D0F18091BC0083FDDACF85EC70
:1009F0008093BC0046DE6B017C018091BE03823097
:100A000009F443C08091BD038F3F51F18091BD0334
:100A1000803231F18091BD0323C0809175039091A4
:100A20007603A0917703B0917803892B8A2B8B2BC7
:100A300009F48DCF26DE0091750310917603209185
:100A40007703309178036C197D098E099F09061789
:100A500017072807390708F07ACF80917403B6DEAC
:100A60001092F2031092F10310925303DF91CF9191
:100A70001F910F91FF90EF90DF90CF9008959D917F
:100A800091938F5F7ACF85EEB3CF8091750390916C
:100A90007603A0917703B0917803892B8A2B8B2B57
:100AA00009F4ABCFEEDD0091750310917603209130
:100AB0007703309178036C197D098E099F09061719
:100AC00017072807390708F098CFC7CF8FB7F894D2
:100AD00080912C038FBF089561E0FC01848114DDB7
:100AE00080912B03811110922B0308958EBD00007D
:100AF0000DB407FEFDCF8EB508958FEFF7CF0F939E
:100B00001F93CF93DF93EC0111DE8B01F6DF8F3F54
:100B100061F00CDE601B710B6C177D07B8F380E091
:100B2000DF91CF911F910F91089581E0F9CF8CBD96
:100B30009DBD0895CF93DF93EC0180912B0381112C
:100B400008C081E080932B038091FB089091FC0802
:100B5000EEDF60E08C81DF91CF91D6CC8F929F92B7
:100B6000AF92BF92FF920F931F93CF93DF93EC014D
:100B7000F62E49015A018E81882379F08F8198855C
:100B80009C012F5F3F4F38872F838230924010F4B3
:100B9000B4DFF4CFCE01A0DF1E82CE01CBDF8CE22A
:100BA00091E0ADDF8F2D8064A1DF08E110E0D50179
:100BB000C401002E04C0B695A795979587950A9411
:100BC000D2F794DF08501109083F8FEF180779F723
:100BD00085E9FF2021F028E087E8F2128FEF86DF19
:100BE00010E08BDF8A8787FF04C01F3F11F01F5F73
:100BF000F8CFDF91CF911F910F91FF90BF90AF90F1
:100C00009F908F900895AF92BF92CF92DF92EF9214
:100C1000FF920F931F93CF93DF93EC016901C801FB
:100C2000820F931F8130924048F58E81882379F09E
:100C300088819981AA81BB8184179507A607B70788
:100C400031F48F819885C816D90608F03CC04883D6
:100C500059836A837B838B85833039F089E0440F25
:100C6000551F661F771F8A95D1F79A01AB0161E185
:100C7000CE0174DF882381F083E08D83CE012CDFE9
:100C800080E0DF91CF911F910F91FF90EF90DF9067
:100C9000CF90BF90AF90089549DD5B012EDF8A872A
:100CA0008F3F59F443DD6A197B096D327140B0F30F
:100CB0008FE08D83CE0110DFE1CF8E3F81F4188667
:100CC0001F8281E08E838F8198858C159D0548F465
:100CD00014DF8F819885019698878F83F4CF8DE0FC
:100CE000E8CF6701E00EF11E08DFF60181936F0186
:100CF000EE15FF05C9F78F819885080F191F188712
:100D00000F838985882319F00115124090F08E8198
:100D1000882379F08F8198859C012F5F3F4F38871A
:100D20002F838230924010F4E8DEF4CFCE01D4DE7F
:100D30001E8281E0A6CFCF92DF92EF92FF920F93B7
:100D4000CF93DF93EC01690182E141155105610503
:100D5000710591F08B85833039F089E0440F551F80
:100D6000661F771F8A95D1F79A01AB0168E1CE0122
:100D7000F5DE882319F084E08D8326C08EEFB6DE81
:100D800076018EEFD81AF70181917F01AFDEEC1466
:100D9000FD04C9F78FEFAADE8FEFA8DEAEDE8A87EB
:100DA0008F71853069F4011113C0CE0195DE81E0A9
:100DB000DF91CF910F91FF90EF90DF90CF9008954A
:100DC00081E18D83CE0188DECE0186DE80E0F0CF2A
:100DD00088E592E094DE811102C085E1CDCF20E06C
:100DE00030E0A9016DE0CE01B9DE882311F084E185
:100DF000C3CF83DE8111FBCFD8CF0F9340912E0359
:100E000050912F03609130037091310341155105CA
:100E10006105710591F0082F27E436E080914708BD
:100E20009091480888DF882349F010922E03109291
:100E30002F03109230031092310381E00F91089537
:100E40000F93CF93C82F80912D03811105C0C1E06E
:100E50008C2FCF910F910895409100025091010283
:100E600060910202709103020C2F27E436E080911A
:100E70004708909148085FDF811102C0C0E0E8CFC9
:100E8000CC2329F381E0B9DF8823C1F310922D032D
:100E9000DFCF8F929F92AF92BF92EF92FF920F930C
:100EA0001F93CF934B015C01C42F8091000290915E
:100EB0000102A0910202B091030288159905AA05CA
:100EC000BB0541F181E0BCDF81110BC080E0CF9117
:100ED0001F910F91FF90EF90BF90AF909F908F90D8
:100EE000089587E4E82E86E0F82E00E012E030E076
:100EF00020E0B501A401809147089091480883DE65
:100F0000882321F38092000290920102A0920202B3
:100F1000B092030240912D034C2B40932D0381E0AE
:100F2000D6CF8F929F92AF92BF92CF92DF92EF92E5
:100F3000FF92CF932DEF38E0309348082093470875
:100F4000882309F46BC040E060E070E0CB01A1DFD2
:100F500081110BC080E0CF91FF90EF90DF90CF9098
:100F6000BF90AF909F908F900895809105088F77E4
:100F700089F78091110890911208A0911308B091FF
:100F8000140884369105A105B10520F3C0900D0821
:100F9000D0900E08E0900F08F0901008C114D10412
:100FA000E104F104B9F240E0C701B60172DF882321
:100FB00089F280915206909153068115924051F624
:100FC000A0915706AA2331F26091550670915606FA
:100FD0006115710509F4BECF20915406222309F44E
:100FE000B9CFA0931B0920930D0990E080E030E079
:100FF000E1E0F0E0C82FAF01082E02C0440F551FFA
:101000000A94E2F72417350769F041E0480F01968A
:101010008930910579F7409316099CCFC12CD12CCA
:101020007601C1CF8093160920915D0630915E064E
:1010300050E040E02115310541F420916B063091DC
:101040006C0640916D0650916E0620930E09309308
:101050000F09409310095093110946015701860E5C
:10106000971EA11CB11C80921C0990921D09A09290
:101070001E09B0921F09E0915806F0915906F093AD
:101080002209E0932109B0E00E945E1FDC01CB0140
:10109000880D991DAA1DBB1D8093230990932409D7
:1010A000A0932509B093260925E0EE0FFF1F2A958E
:1010B000E1F7E150FE4FEF2FFF27E6958E0F9F1FC0
:1010C000A11DB11D8093170990931809A0931909C8
:1010D000B0931A0980905A0690905B06B12CA12C0F
:1010E0008114910441F48090670690906806A09066
:1010F0006906B0906A06C81AD90AEA0AFB0AC80C3F
:10110000D91CEA1CFB1C04C0F694E794D794C7943E
:10111000CA95D2F7C0921209D0921309E09214092D
:10112000F092150985EFC8168FE0D806E104F104A6
:1011300028F48CE08093200981E00DCF80E125EF39
:10114000C2162FEFD206E104F104A0F380917306DA
:1011500090917406A0917506B0917606809323094C
:1011600090932409A0932509B093260980E2E2CF49
:101170004F925F926F927F928F929F92AF92BF92A7
:10118000CF92DF92EF92FF920F931F93CF93DF9353
:10119000EC01423051056105710590F480E0DF916A
:1011A000CF911F910F91FF90EF90DF90CF90BF9064
:1011B000AF909F908F907F906F905F904F90089529
:1011C00089859A85AB85BC850196A11DB11D8417C3
:1011D0009507A607B70710F3CB88DC88ED88FE8853
:1011E0008F89803109F042C0BB27A72F962F852F0A
:1011F000480159012A013B01C80ED91EEA1EFB1EF7
:101200008091000290910102A0910202B09103022C
:10121000C816D906EA06FB0699F58F898031B9F51B
:10122000B301A201552766277727440F551F495B55
:10123000594FFA019182808280912D0381608093C1
:101240002D038A89823080F08D819E81AF81B8859F
:101250008C0D9D1DAE1DBF1D80932E0390932F03FB
:10126000A0933003B093310381E099CFDB01CA0131
:10127000E7E0B695A79597958795EA95D1F7B8CF0A
:1012800040E0C701B60105DE8111C7CF87CFB301AA
:10129000A2014F77552766277727440F551F440F24
:1012A000551F495B594FFA0180829182A282B38215
:1012B000C3CF8F929F92AF92BF92CF92DF92EF9265
:1012C000FF920F931F93CF93DF93FC01818592854B
:1012D000A385B4850196A11DB11D84179507A607A6
:1012E000B70770F480E0DF91CF911F910F91FF90CD
:1012F000EF90DF90CF90BF90AF909F908F90089528
:1013000083889488A588B6888789803189F5BB272A
:10131000A72F962F852FE9016A017B018F01BC0160
:10132000CD01680D791D8A1D9B1D80900002909053
:101330000102A0900202B090030286169706A8064A
:10134000B90601F5F8018789803109F5DD24EE241D
:10135000FF24F601EE0FFF1FE95BF94F80819181B9
:10136000B0E0A0E088839983AA83BB8381E0BBCFF0
:10137000DB01CA01C7E0B695A79597958795CA95F1
:10138000D1F7C9CF40E085DD8111DCCFABCFE89448
:10139000C7F8DD24EE24FF24F601EE0FFF1FEE0F49
:1013A000FF1FE95BF94F80819181A281B381BF70FA
:1013B000D9CF4F925F926F927F92AF92BF92CF92AE
:1013C000DF92EF92FF920F931F93CF93DF9300D0A2
:1013D0001F92CDB7DEB78C0149835A836B837C8320
:1013E0005901C12CD12C7601412C82E0582E612C60
:1013F000712C49815A816B817C819E012F5F3F4F07
:10140000C80157DF882339F1F8018585A3019201CE
:1014100004C0220F331F441F551F8A95D2F7DA01EB
:10142000C901C80ED91EEA1EFB1E49815A816B8173
:101430007C818789803111F188EF9FEFAFEFBFE0AA
:10144000481759076A077B07A0F2F501C082D182CD
:10145000E282F38281E00F900F900F900F90DF9166
:10146000CF911F910F91FF90EF90DF90CF90BF90A1
:10147000AF907F906F905F904F90089588EF9FEFAF
:10148000A0E0B0E0DDCFCF93DF93FC0125812223E4
:1014900021F080E0DF91CF910895EC018091200947
:1014A000803159F582E08583178A108E118E128E55
:1014B0008091210990912209B0E0A0E025E0880FF9
:1014C000991FAA1FBB1F2A95D1F7838B948BA58BDD
:1014D000B68B89E099E09C8F8B8F81E08C831E8294
:1014E0001F82188619861A861B861C861D861E86F4
:1014F0001F86188A198A1A8ACDCF803251F683E066
:1015000085834091230950912409609125097091A8
:101510002609478B508F618F728F9F012D5E3F4F41
:1015200089E099E046DF8111D4CFB3CF8F929F92AB
:10153000AF92BF92CF92DF92EF92FF920F931F93E1
:10154000CF93DF93EC018D8181110EC080E0DF919C
:10155000CF911F910F91FF90EF90DF90CF90BF90B0
:10156000AF909F908F9008950B891C892D893E899B
:10157000041715072607370748F34A015B01823035
:1015800031F48A869B86AC86BD8681E0E0CF8114EB
:101590009104A104B10449F41E821F8218861986A1
:1015A0001A861B861C861D86F0CF0A851B852C8516
:1015B0003D85EB8DFC8D858590E00996B901A801EC
:1015C0004150510961097109082E04C0769567954B
:1015D000579547950A94D2F775016401E1E0CE1A58
:1015E000D108E108F10804C0F694E794D794C794B1
:1015F0008A95D2F7C416D506E606F70620F0012B29
:10160000022B032B09F58F89988DA98DBA8D8E83B6
:101610009F83A887B9878E010A5F1F4FC114D10429
:10162000E104F10409F4ADCF4E815F8168857985CD
:1016300098018B8D9C8D3DDE91E0C91AD108E1089F
:10164000F1088111EBCF82CFC41AD50AE60AF70A56
:10165000E2CF20915F09309160092115310539F001
:10166000AB01BC01C90162DF91E0811101C090E0D2
:10167000892F08953F924F925F926F927F928F923F
:101680009F92AF92BF92CF92DF92EF92FF920F9311
:101690001F93CF93DF93CDB7DEB72C970FB6F89497
:1016A000DEBF0FBECDBF5C01DC015B968D909C90D0
:1016B0005C9716964D905D906D907C9019974114B3
:1016C00051046104710409F467C0BFEF4B1A5B0A4F
:1016D0006B0A7B0A312CF40181859285A385B48540
:1016E0009C01AD012F5F3F4F4F4F5F4F29873A87D6
:1016F0004B875C87730162011D821E821F821886E0
:10170000F40181859285A385B4852D813E814F8129
:101710005885281739074A075B0708F054C08985A0
:101720009A85AB85BC858C159D05AE05BF0550F42B
:1017300082E0C82ED12CE12CF12C92E0492E512CC4
:10174000612C712C9E012F5F3F4FB701A601C40190
:10175000B0DD8823C1F189819A81AB81BC81892B5D
:101760008A2B8B2B09F1260137019FEF491A590A61
:10177000690A790A2D813E814F8158852F5F3F4F3D
:101780004F4F5F4F2D833E834F8358873FEFC31AE0
:10179000D30AE30AF30AB4CFF40140805180628097
:1017A00073803324339497CFC414D504E604F7042C
:1017B00009F70FEF1FEF2FEF3FE0B701A601C401BC
:1017C000D7DC811119C080E02C960FB6F894DEBFEB
:1017D0000FBECDBFDF91CF911F910F91FF90EF9082
:1017E000DF90CF90BF90AF909F908F907F906F9041
:1017F0005F904F903F900895D50116964D915D9161
:101800006D917C911997411551056105710531F074
:1018100097018601C401ACDC8823A9F2D501169694
:10182000CD92DD92ED92FC921997332051F0D701C1
:10183000C6010196A11DB11DF40180839183A2838D
:10184000B383F5018789908DA18DB28D892B8A2B69
:101850008B2B39F48481C78AD08EE18EF28E80681A
:101860008483F50184818062848381E0ADCF2F92EF
:101870003F924F925F926F927F928F929F92AF9220
:10188000BF92CF92DF92EF92FF920F931F93CF936D
:10189000DF93EC015B012A018D81811115C08FEF6F
:1018A0009FEFDF91CF911F910F91FF90EF90DF900D
:1018B000CF90BF90AF909F908F907F906F905F90F0
:1018C0004F903F902F9008958C8180FFE8CF0B8937
:1018D0001C892D893E894A855B856C857D85C20181
:1018E000B0E0A0E068017901C41AD50AE60AF70A57
:1018F000C816D906EA06FB0618F42801441A550A48
:1019000042011E0126E0220E311C8114910409F4CB
:10191000B0C04A855B856C857D856A0181E0D822EF
:101920008B8D9C8D8A019B01E9E036952795179553
:101930000795EA95D1F7ED81E230D9F5FC01628D8A
:10194000738D848D958D600F711F821F931F612C85
:1019500022E0722E6C187D088614970408F4340176
:101960002C8126FD04C06114F2E07F0671F4009121
:101970000002109101022091020230910302061729
:1019800017072807390709F051C040E082DA882399
:1019900009F485CFC601895B994FD5019C01260DBD
:1019A000371DFC012E173F0709F45EC041914D938E
:1019B000F9CFFC0174807A947022C114D10471F4BF
:1019C00071100CC0452B462B472B39F58F89988D0C
:1019D000A98DBA8D8E839F83A887B987EB8DFC8DE7
:1019E0006E817F818885998562507109810991098D
:1019F000258504C0660F771F881F991F2A95D2F787
:101A00000685178520893189600F711F821F931FFA
:101A1000670D711D811D911D9ACF4E815F81688573
:101A20007985910146DC8111D9CF39CF75018301C8
:101A30009601AB01BC018091470890914808E3D81A
:101A4000882309F42CCFA60CB71C8A859B85AC850E
:101A5000BD85860D971DA11DB11D8A879B87AC870B
:101A6000BD878618970851CF281B390BA20EB31ECD
:101A7000ECCFC20116CF1F93CF93DF93FC012581DA
:101A80002223C1F1162FEC01848187FF29C06685CE
:101A900077858089918941E0FCD9882359F1EA89C9
:101AA00080E2E89FF0011124E95BF94F309711F1D2
:101AB0008D81823040F48B899C89AD89BE89848F69
:101AC000958FA68FB78F8F89988D938F828F8F89EF
:101AD000988DA98DBA8DB58BA48B8C818F778C83D3
:101AE000111103C08C818F7E8C83812FDF91CF9168
:101AF0001F91A6C980E0DF91CF911F910895FF92B9
:101B00000F931F93CF93DF93EC018D81813041F0D0
:101B100090E080E0DF91CF911F910F91FF900895A9
:101B20008C8181FFF5CF82FD1AC00091470810918A
:101B30004808C8010E949A050E947D05F82EC80138
:101B40000E946C058FEFF812E3CF8C8185FF19C0DE
:101B500060E0CE0190DF8C818F7D8C83D9CF4B8963
:101B60005C896D897E898A859B85AC85BD85841756
:101B70009507A607B707C9F2CE01D8DC8111D5CFEA
:101B8000C7CF40912E0350912F0360913003709185
:101B90003103452B462B472B19F080E02ED9B8CFC7
:101BA00080618C832A853B85317080E092E0821BC6
:101BB000930BB0CFCF93DF93EC0161E05CDF882320
:101BC00011F01D8281E0DF91CF9108952F923F9215
:101BD0004F925F926F927F928F929F92AF92BF923D
:101BE000CF92DF92EF92FF920F931F93CF93DF93E9
:101BF00000D01F921F92CDB7DEB77C015B01342E5F
:101C00005D83DC0115968C911597813009F0CCC06D
:101C100014962C9021FEC8C022FCB3C0C32CDD80DA
:101C200022947FE027222094B22DB1702B2ED70171
:101C30001A964D915D916D917C911D97C114D104BF
:101C400009F423C15B968D919C915C97FC01748093
:101C50007A948A019B0169E0369527951795079537
:101C60006A95D1F770228A01117071101FC0011599
:101C70001105E1F416964D915D916D917C91199746
:101C8000411551056105710509F097C057968D9171
:101C90009D910D90BC91A02D0097A105B10509F073
:101CA000ADC0C701E7DC882309F47EC080E092E084
:101CB000801B910B46018C159D0508F44C01D70142
:101CC0005B964D915C915C9716968D919D910D90D0
:101CD000BC91A02D0297A109B109FA01258504C084
:101CE000880F991FAA1FBB1F2A95D2F746855785D3
:101CF00060897189840F951FA61FB71F9C01AD01D4
:101D0000270D311D411D511D29013A01811432E079
:101D1000930609F079C08091000290910102A09190
:101D20000202B091030284159505A605B70559F482
:101D30008FEF9FEFDC018093000290930102A0934C
:101D40000202B0930302022D9501B301A20180911A
:101D50004708909148080E949B06882329F19EEF2E
:101D6000B91AC818D908F70182859385A485B58565
:101D7000880D991DA11DB11D82879387A487B58702
:101D800056CFF70143895489658976898285938581
:101D9000A485B585481759076A077B0709F43ECF24
:101DA000C701C4DB81113ACF81E090E0D7011396DF
:101DB0009C938E93129780E006C09E012F5F3F4F49
:101DC00078DA811102C090E077C089819A81AB8175
:101DD000BC81F701238D348DF901278948EF5FEF2E
:101DE00060E070E0203121F048EF5FEF6FEF7FE0BF
:101DF00084179507A607B70708F053CFF701868326
:101E00009783A087B18752CF0115110591F5D701AE
:101E10001A964D915D916D917C911D9753968D9180
:101E20009D910D90BC91A02D481759076A077B071B
:101E300000F181E005D8882309F4B6CF4092000272
:101E400050920102609202027092030280912D036F
:101E5000816080932D03C801895B994FD5019C0156
:101E6000280D391DFC012E173F0751F04D9141936C
:101E7000FACF41E0C301B2010CD88111ECCF94CF6D
:101E8000281B390BA20EB31E6CCFF70183899489EE
:101E9000A589B68984179507A607B70738F4848102
:101EA000438B548B658B768B80688483F7018481A8
:101EB00083FD1AC0832D9D810F900F900F900F907E
:101EC0000F90DF91CF911F910F91FF90EF90DF90D6
:101ED000CF90BF90AF909F908F907F906F905F90CA
:101EE0004F903F902F90089561E0C701C4DD882393
:101EF00009F45ACFDFCFCF93DF931F92CDB7DEB770
:101F0000698341E050E0BE016F5F7F4F5FDE0F905D
:101F1000DF91CF910895FC01DB0112968D919C9188
:101F200013979383828384EB92E09183808314964A
:101F30008C911497848315968C91159785831696AA
:101F40004D915D916D917C91199746835783608780
:101F500071871A964D915D916D917C911D97428785
:101F60005387648775871E964D915D916D917C9125
:101F7000519746875787608B718B52968C915297F9
:101F8000828B53964D915D916D917C915697438BC9
:101F9000548B658B768B57964D915D916D917C91AD
:101FA0005A97478B508F618F728F5B968D919C9162
:101FB000948F838F0895FC01818D928D009711F08D
:101FC00061E059CD0895DC015996ED91FC9130976F
:101FD000B9F083899489A589B6894285538564853A
:101FE0007585841B950BA60BB70B811520E892070E
:101FF000A105B10538F08FEF9FE7A0E0B0E00895AC
:1020000090E080E00895DC0159968D919C910097B5
:1020100039F0DC01ED91FC910480F581E02D1994FB
:1020200090E080E00895CF93DF93EC01E98DFA8D85
:10203000309749F481E090E09B838A8390E080E0D0
:10204000DF91CF91089513821282898D9A8DBEDD22
:10205000E98DFA8D22813381232B61F7F1CFCF9364
:10206000DF931F92CDB7DEB76983DC01ED91FC9160
:102070000280F381E02D41E050E0BE016F5F7F4FB1
:1020800019950F90DF91CF910895CF93DF931F9211
:10209000CDB7DEB741E050E0BE016F5F7F4FE7DBB9
:1020A000019731F4898190E00F90DF91CF910895ED
:1020B0008FEF9FEFF9CFFC01818D928D009709F092
:1020C000E4CF8FEF9FEF08950F931F93CF93DF938C
:1020D000EC01898D9A8D10E000E0009789F0D5DF42
:1020E0008C010F3F100761F0898D9A8DFC014285AC
:1020F000538564857585415051096109710916DA66
:10210000C801DF91CF911F910F910895089590E03C
:1021100080E00895809140069091410681309105BC
:1021200059F018F00297C1F0089581E090E0909383
:10213000410680934006089580913F068F5F80930B
:102140003F06833030F410923D0687E080933E06D0
:10215000089582E090E0EBCF81E080933F061092FB
:1021600041061092400608958091400690914106E4
:10217000019751F480913D068F5F863018F480936B
:102180003D06089510923D060895CF93DF93FB011D
:1021900022813381DC0113963C932E931297448164
:1021A00055816681778114964D935D936D937C93F1
:1021B0001797408551856285738518964D935D9379
:1021C0006D937C931B971C96EF012C969C01275EC8
:1021D0003F4F49914D93A217B307D9F7218D328D07
:1021E000FC01328F218FDF91CF91089580915F099B
:1021F00090916009009759F0DDDC80915F09909122
:1022000060090E941B201092600910925F090895D6
:102210001F93CF93DF9300D01F92CDB7DEB782E537
:1022200098E00E94900182E598E00E94900110E001
:102230008A3379F0E1E0F0E0EC0FFD1FE10FF11DD2
:1022400017FDFA9580831F5F82E598E00E94900158
:10225000EFCFCE0101960E94171F182F82E598E05C
:102260000E9490018053990B8230910520F4682FD1
:10227000812F0E94840282E598E00E9490018A30BA
:1022800011F08D30C1F782E598E00E94A4018A30F8
:1022900021F482E598E00E9490010F900F900F903A
:1022A0000F90DF91CF911F910895FB0101900020C5
:1022B000E9F73197AF01461B570BDC01ED91FC911B
:1022C0000280F381E02D19948F929F92AF92BF927A
:1022D0000F931F93CF93DF93CDB7DEB7A1970FB6C0
:1022E000F894DEBF0FBECDBF19A2423008F44AE019
:1022F0008E010F5D1F4F842E912CB12CA12CA501B6
:1023000094010E943C1FE62FB901CA01EA30FCF497
:10231000E05DD801EE938D01232B242B252B79F73B
:1023200090E080E0109721F0BD0182E598E0BDDFEC
:10233000A1960FB6F894DEBF0FBECDBFDF91CF914F
:102340001F910F91BF90AF909F908F900895E95C7F
:10235000E0CFABCF0F931F93CF938C01C62F0E947A
:1023600087046C2F6460C8010E9487046C2F6B7F08
:10237000C8010E94870483EC90E00197F1F7CF91A8
:102380001F910F9108950F931F93CF93DF938C01AB
:10239000D62FC42F607F642BDDDF80E1D89FB00192
:1023A00011246C2BC801DF91CF911F910F91D2CFD7
:1023B00040E061E082EC99E0E6DF8BE39FE101978A
:1023C000F1F70895CF93DF9300D000D01F921F92B2
:1023D000CDB7DEB798E0E4E5F2E0DE0111960190BA
:1023E0000D929A95E1F79091CA09961708F46FEF4C
:1023F000262F30E0220F331F41E050E04C0F5D1FCD
:10240000240F351FF9016081680F606840E082EC9D
:1024100099E028960FB6F894DEBF0FBECDBFDF91CE
:10242000CF91B1CF41E0AFDF81E090E00895CF924E
:10243000DF92EF92FF921F93CF93DF93EC0180E244
:10244000689FF0011124E95BF94F9385917161F068
:10245000842F827449F080E0DF91CF911F91FF902B
:10246000EF90DF90CF900895142F6A8B8091000237
:1024700090910102A0910202B09103028E879F8782
:10248000A88BB98BC488D588F12CE12C7601DD248A
:10249000CC24CF8AD88EE98EFA8E828D938DB0E0CF
:1024A000A0E0AC01BD014C295D296E297F294F8B2D
:1024B000588F698F7A8F83858871B1F4848D958D5B
:1024C000A68DB78D8B8B9C8BAD8BBE8B81E08D8366
:1024D0001F701C831E821F82188619861A861B860F
:1024E0001C861D8681E0B8CF803109F0B4CF9E01F3
:1024F0002D5E3F4F8B8D9C8D0E94D909882309F456
:10250000AACF84E0E4CF85ED8093BC008091750371
:1025100090917603A0917703B09178030796A11D5F
:10252000B11D23E0B695A795979587952A95D1F784
:102530002091BC0024FD03C01092BE030895409179
:102540007503509176036091770370917803452B62
:10255000462B472B69F30097A105B10541F025E310
:102560002A95F1F700000197A109B109E1CF809107
:1025700074030C94E6033F924F925F926F927F92A6
:102580008F929F92AF92BF92CF92DF92EF92FF9283
:102590000F931F93CF93DF9300D000D000D01F92F2
:1025A0001F92CDB7DEB77C01FE013196CE010C96AD
:1025B0006F0130E23193E817F907E1F7DA0130E013
:1025C00087E09D91B92E992309F43CC09E32F1F425
:1025D0008A30C9F480E02B960FB6F894DEBF0FBEA8
:1025E000CDBFDF91CF911F910F91FF90EF90DF90C2
:1025F000CF90BF90AF909F908F907F906F905F90A3
:102600004F903F90089538E08AE0DBCFE4EEF0E0B1
:102610004491442321F031969413FACFDBCF8317F2
:10262000C8F24FED490F4E35A8F64FE9490F4A3130
:1026300018F440EEB42EB90EF601E30FF11DB0828E
:102640003F5FBFCF8981803229F2322E8B01DB01BF
:102650005B968D919C915C97F701948F838F169672
:102660001D921D921D921C921997FB0112861386D2
:1026700014861586F80182859385A485B5854389DE
:1026800054896589768984179507A607B70708F0E6
:102690004CC025E0B695A795979587952A95D1F7D3
:1026A000F82FFF70AF2ED80115968C91823008F468
:1026B00091CFC801EADC97FD8DCFF8018285938523
:1026C000A485B5854F96A11DB11D82879387A487E8
:1026D000B587F0E2AF9EB0011124695B794F6115B7
:1026E000710509F477CFDB018C91882341F0853E99
:1026F00009F062C0BB2029F0BB24B394BBCFB1105A
:102700000EC0F701A28A8091000290910102A0916F
:102710000202B091030286879787A08BB18BDB0101
:102720008C918111E9CFBB24B394832D82718231C6
:1027300009F050CFBB2009F44CC0F70166857785BE
:102740008089918941E00E944907882309F442CF9A
:10275000D70152968C91B0E28B9FC0011124895B06
:10276000994F009709F436CFFC013A9626E1DF0134
:102770001D922A95E9F72BE0F601DC0101900D92FC
:102780002A95E1F721E238E2FC01318B208B40E011
:1027900058E057874687338B228B318F208F578B9A
:1027A000468B81E00E942007882309F413CF432D34
:1027B000D70152966C910AC04BE050E0C6010E94CE
:1027C000A420892B09F056CF432D6A2DC7012FDE97
:1027D00002CFF8018581823009F4FCCEC8010E9445
:1027E0003A0B882309F4F6CED8015B96ED91FC9163
:1027F0005C9716968D909D90AD90BC901997B2E025
:102800008B1A9108A108B108858504C0880C991C11
:10281000AA1CBB1C8A95D2F786859785A089B189A9
:10282000880E991EAA1EBB1E848124013501480E04
:10283000511C611C711C84149504A604B70409F191
:10284000E1E04E1A51086108710881E00E942007FA
:10285000882309F4BFCEE7E4F6E0119287E498E01C
:102860008E179F07D1F740920002509201026092AA
:1028700002027092030280912D03816080932D03E8
:10288000DACFD8015B96ED91FC91258580E092E04E
:10289000A0E0B0E004C0880F991FAA1FBB1F2A95B3
:1028A000D2F7F8014389548965897689840F951F89
:1028B000A61FB71F838B948BA58BB68BD70152961F
:1028C0001C9287E496E050CFEF92FF920F931F93F4
:1028D000CF93DF93EC017B018A011B821A8288EE81
:1028E00093E0A0E0B0E08C839D83AE83BF8380EC57
:1028F00092E0998388838DE190E00E947F1F9A8FF8
:10290000898F009779F02DE1F701DC0101900D929C
:102910002A95E1F74CE050E0B801CE010C960E94F8
:10292000D320188EDF91CF911F910F91FF90EF90E0
:1029300008952F923F924F925F926F927F928F9263
:102940009F92AF92BF92CF92DF92EF92FF920F933E
:102950001F93CF93DF93CDB7DEB7C756D1090FB61C
:10296000F894DEBF0FBECDBF6C015B01A6964FAFE2
:10297000A69719A218A284EB92E09F8F8E8F1BA2BC
:102980001C821B829A8389831E824E018EE1880EEF
:10299000911CC4010E94430A75018E010F5F1F4FF5
:1029A000240118016FE270E0C7010E94B120009776
:1029B00009F458C0F70120812F3271F4FFEFEF1AAC
:1029C000FF0A902F812F8201492E582E942D852D9C
:1029D0002801092F182FE6CF8E198D3008F08CE0D2
:1029E000682E712CA301B701CE01885A9F4F0E9417
:1029F000D320E8E5F0E0EC0FFD1FE60DF71D108297
:102A0000C801D8D8F80185818823F1F01EAE1DAE2B
:102A100084EB92E09CAF8BAF21961FAE2197A896D6
:102A2000EEADFFADA897AE0EBF1EF50180818111FE
:102A300025C0BE01655C7F4FC1016DDA4AED52E0F1
:102A4000B101C60141DF38C021E0AE01485A5F4FF5
:102A5000B201C80190DD8823C9F2E60CF71CC2015F
:102A6000A9D8B4CFC7018A199B09A8969FAF8EAF8A
:102A7000A897B201CE01CB964EDAD1CF19A218A2F7
:102A800084EB92E09F8F8E8F1BA221968FAD2197B2
:102A900081112DC0F6011382128288EE93E0A0E02E
:102AA000B0E084839583A683B78380EC92E0918322
:102AB0008083128E118E1486C601C959DF4F0FB65E
:102AC000F894DEBF0FBECDBFDF91CF911F910F9164
:102AD000FF90EF90DF90CF90BF90AF909F908F903E
:102AE0007F906F905F904F903F902F900895A696A3
:102AF0002FADA697A501BE01655C7F4FC4013BDDEC
:102B0000882341F2CE01CB9655D8A6968FADA697D5
:102B10008670863039F449A95AA96BA97CA9C401E9
:102B20000E94960AB401C101F6D9A50189CF1F926E
:102B30000F920FB60F9211240BB60F922F933F9363
:102B40004F935F936F937F938F939F93AF93BF93B5
:102B5000EF93FF9382E598E00E94C701FF91EF9108
:102B6000BF91AF919F918F917F916F915F914F91A5
:102B70003F912F910F900BBE0F900FBE0F901F90A3
:102B800018951F920F920FB60F9211240BB60F9249
:102B90002F938F939F93EF93FF93E0916208F091AF
:102BA00063088081E0916808F091690882FD1DC08A
:102BB000908180916B088F5F8F7320916C088217D2
:102BC00041F0E0916B08F0E0EE5AF74F958F80935B
:102BD0006B08FF91EF919F918F912F910F900BBEFA
:102BE0000F900FBE0F901F9018958081F2CF1F920B
:102BF0000F920FB60F9211242F933F938F939F93B1
:102C0000AF93BF938091E5039091E603A091E70312
:102C1000B091E8033091E40323E0230F2D3758F5FA
:102C20000196A11DB11D2093E4038093E5039093C9
:102C3000E603A093E703B093E8038091E903909142
:102C4000EA03A091EB03B091EC030196A11DB11D25
:102C50008093E9039093EA03A093EB03B093EC0312
:102C6000BF91AF919F918F913F912F910F900FBE88
:102C70000F901F90189526E8230F0296A11DB11DF5
:102C8000D2CF1F920F920FB60F9211240BB60F9254
:102C90002F933F934F935F936F937F938F939F9364
:102CA000AF93BF93EF93FF93E0911202F091130261
:102CB0001995FF91EF91BF91AF919F918F917F9166
:102CC0006F915F914F913F912F910F900BBE0F909D
:102CD0000FBE0F901F9018951F920F920FB60F9274
:102CE00011240BB60F922F933F934F935F936F93E3
:102CF0007F938F939F93AF93BF93EF93FF93E09155
:102D00001002F09111021995FF91EF91BF91AF91CF
:102D10009F918F917F916F915F914F913F912F91F3
:102D20000F900BBE0F900FBE0F901F9018951F9223
:102D30000F920FB60F9211240BB60F922F933F9361
:102D40004F935F936F937F938F939F93AF93BF93B3
:102D5000EF93FF93E0910602F09107021995FF911E
:102D6000EF91BF91AF919F918F917F916F915F9103
:102D70004F913F912F910F900BBE0F900FBE0F9070
:102D80001F9018951F920F920FB60F9211240BB639
:102D90000F922F933F934F935F936F937F938F93F4
:102DA0009F93AF93BF93EF93FF93E0910402F09151
:102DB00005021995FF91EF91BF91AF919F918F916E
:102DC0007F916F915F914F913F912F910F900BBE2B
:102DD0000F900FBE0F901F9018951F920F920FB675
:102DE0000F9211240BB60F922F933F934F935F9343
:102DF0006F937F938F939F93AF93BF93EF93FF93C3
:102E0000E0910E02F0910F021995FF91EF91BF91A1
:102E1000AF919F918F917F916F915F914F913F9172
:102E20002F910F900BBE0F900FBE0F901F90189513
:102E30001F920F920FB60F9211240BB60F922F9381
:102E40003F934F935F936F937F938F939F93AF9332
:102E5000BF93EF93FF93E0910C02F0910D0219954F
:102E6000FF91EF91BF91AF919F918F917F916F9162
:102E70005F914F913F912F910F900BBE0F900FBE1E
:102E80000F901F9018951F920F920FB60F9211245A
:102E90000BB60F922F933F934F935F936F937F9354
:102EA0008F939F93AF93BF93EF93FF93E0910A02A9
:102EB000F0910B021995FF91EF91BF91AF919F9106
:102EC0008F917F916F915F914F913F912F910F90D3
:102ED0000BBE0F900FBE0F901F9018951F920F9270
:102EE0000FB60F9211240BB60F922F933F934F936F
:102EF0005F936F937F938F939F93AF93BF93EF9362
:102F0000FF93E0910802F09109021995FF91EF916A
:102F1000BF91AF919F918F917F916F915F914F91F1
:102F20003F912F910F900BBE0F900FBE0F901F90EF
:102F300018951F920F920FB60F9211240BB60F9295
:102F40002F933F934F935F936F937F938F939F93B1
:102F5000AF93BF93EF93FF938091B900887F803642
:102F600009F44CC008F03FC0883209F4A8C028F525
:102F7000803109F49CC0C8F4882309F4FAC0883071
:102F800009F495C0FF91EF91BF91AF919F918F91FF
:102F90007F916F915F914F913F912F910F900BBE59
:102FA0000F900FBE0F901F901895883109F487C0BD
:102FB000803241F78093BD0314C0803409F49CC073
:102FC00040F48033B9F38833E9F68093BD0385EC90
:102FD000AFC0803509F484C0883509F495C08834C1
:102FE00089F691DACFCF883909F48CC038F5883763
:102FF00029F050F4883611F0803721F683E0809371
:10300000BE031092BC0357C0883809F47BC08039D6
:1030100019F0803809F0B6CF8091BC03803208F0F7
:1030200071C0E091BC0381E08E0F8093BC0380915E
:10303000BB00F0E0E456FC4F80833DC0803B39F09C
:10304000E0F4803A09F479C0883A09F09BCF84E033
:103050008093BE0310929B0310929A03E091EF03BA
:10306000F091F003199580919A0381110FC081E0CE
:1030700080939A0310927A0309C0803C09F4A7CF89
:10308000883C09F4A4CF883B09F07CCFE0919B03F6
:1030900081E08E0F80939B03F0E0E658FC4F808127
:1030A0008093BB0090919B0380919A0329C08091EB
:1030B000E3038093BB0085EC8093BC0063CF9091C9
:1030C000E2038091E103981758F5E091E20381E073
:1030D0008E0F8093E203F0E0EF53FC4F8081E9CF45
:1030E000E091E20381E08E0F8093E2038091BB00C8
:1030F000F0E0EF53FC4F80839091E2038091E10375
:103100009817C8F285E8D8CFE091E20381E08E0FEE
:103110008093E2038091BB00F0E0EF53FC4F80838B
:103120008091C00381115DCF81E08093BF0384EA69
:103130008093BC001092BE0325CF85EC8093BC0029
:103140001092BE038091BC03803230F4E091BC0346
:10315000F0E0E456FC4F10826091BC0370E0E09117
:10316000ED03F091EE038CE993E019951092BC0306
:1031700009CF1092BD0335CF1F920F920FB60F9259
:1031800011240BB60F922F933F934F935F938F931E
:103190009F93AF93BF93CF93DF93EF93FF93809170
:1031A000160286FD4CC04091F405242F042E000C1D
:1031B000330B8091510890E0880F991FFC01E45A6D
:1031C000FD4F0190F081E02D8C599D4FEC01A881BD
:1031D000B98147FF52C08091F7034091F603DEEFBB
:1031E0008D9FC001112488509C4F840F911DEC01CC
:1031F000888190E031952195310902C09595879598
:103200002A95E2F79183808311969C938E93809107
:10321000F6038F5F8093F6038091F6038E3FD0F024
:103220001092F603E091F703F0E0EC5EFD4F91E0C1
:1032300090838091F70389278093F7030BC08091D7
:103240002A0391E0892780932A0380912A03882307
:1032500009F4A9CFFF91EF91DF91CF91BF91AF9189
:103260009F918F915F914F913F912F910F900BBE46
:103270000F900FBE0F901F9018958091F70320912B
:10328000F603DEEF8D9FC001112488509C4F820F02
:10329000911DEC01888190E002C0880F991F4A952A
:1032A000E2F7B0CF1F920F920FB60F9211240BB618
:1032B0000F922F933F934F935F936F937F938F93CF
:1032C0009F93AF93BF93CF93DF93EF93FF93E091DF
:1032D000F70391E0E927F0E0EC5EFD4F8081882361
:1032E000A1F18091F703892780932903E091510888
:1032F000F0E0EE0FFF1FE459FD4F0190F081E02D4B
:1033000080818F7D8083789486E499E00E94E30F2A
:103310002091F5053091F60528173907D8F1E0918D
:103320005108F0E0EE0FFF1FE459FD4FC081D1813D
:103330008091160283FF1EC06CE270E080E090E096
:103340000E94290B888180628883FF91EF91DF9131
:10335000CF91BF91AF919F918F917F916F915F912D
:103360004F913F912F910F900BBE0F900FBE0F907A
:103370001F90189588818E7D8883E0915F09F09178
:103380006009309721F0858181110E94F61010921A
:10339000F705DBCF6091290380915F099091600967
:1033A000009751F02EEF629FB001112468507C4FBE
:1033B0004EEF50E00E94370CE0912903F0E0EC5E04
:1033C000FD4F1082E0915108F0E0EE0FFF1FE4592D
:1033D000FD4F0190F081E02D808180628083B5CF28
:1033E000E2E5F8E01382128288EE93E0A0E0B0E01C
:1033F00084839583A683B78320E932E031832083D9
:1034000025EC30E03587248724EC30E037872687A9
:1034100020EC30E0318B208B21EC30E0338B228BA1
:1034200022EC30E0358B248B26EC30E0378B268B7A
:10343000118E128E138E148EEFEEF8E0138212822C
:1034400084839583A683B78322EA32E03183208385
:10345000EBEFF8E020E520831182EDEFF8E0158234
:1034600016821186138642E050E060E070E04487E7
:1034700055876687778713A215A614A624EB32E03A
:1034800033A722A717A6E6E4F9E013821282848309
:103490009583A683B78320EC32E031832083128E9C
:1034A000118E1486E1E6F9E01682178210861186E5
:1034B000128613861486158616861786108A118A38
:1034C000128A138A148A158AE2ECF9E013821282B6
:1034D00042ED52E0518340834FE3448340E1418712
:1034E00042E042871386E7EAF9E01382128284837E
:1034F0009583A683B78331832083128E118E148621
:103500000895CF93DF93CDB7DEB76B970FB6F894DE
:10351000DEBF0FBECDBF789484B5826084BD84B514
:10352000816084BD85B5826085BD85B5816085BDBE
:1035300080916E00816080936E0010928100809176
:1035400081008260809381008091810081608093FE
:103550008100809180008160809380008091B10023
:1035600084608093B1008091B00081608093B0004E
:1035700080919100826080939100809191008160A0
:103580008093910080919000816080939000809161
:10359000A10082608093A1008091A100816080934E
:1035A000A1008091A00081608093A0008091210102
:1035B00082608093210180912101816080932101AB
:1035C0008091200181608093200180917A00846045
:1035D00080937A0080917A00826080937A00809153
:1035E0007A00816080937A0080917A00806880936D
:1035F0007A001092C1001092A3091092A4091092AF
:10360000A5091092A60910926309109264091092FC
:103610006509109266090E9496036B017C014B01BB
:103620005C0128EB820E2BE0921EA11CB11C0E94B3
:1036300096036C157D058E059F0528F08616970666
:10364000A806B906A0F768EE73E080E090E00E945B
:103650006603E0916208F091630882E08083E09164
:103660005E08F0915F081082E0916008F0916108B7
:1036700080E1808310926A08E0916608F091670803
:1036800086E08083E0916408F09165088081806124
:103690008083E0916408F091650880818860808370
:1036A000E0916408F0916508808180688083E091F2
:1036B0006408F091650880818F7D80830E94960365
:1036C0006093630970936409809365099093660918
:1036D0006CED72E082E598E00E94A9110E949603C9
:1036E0006B017C014B015C013AE0830E911CA11C33
:1036F000B11C0E9496036C157D058E059F0528F070
:1037000086169706A806B906A0F781E08093770988
:103710000E9496036093630970936409809365091E
:10372000909366096DEE72E082E598E00E94A9111F
:1037300064EF72E088EF95E01FD547E166EF72E035
:10374000CE010196F6D8BE016F5F7F4F87EA99E000
:103750000E94C5101092F4031092F3031092F2032A
:103760001092F1030E94CA038FE791E09093F00357
:103770008093EF0380E891E09093EE038093ED0354
:103780001092C7098091CC09823018F098E090938C
:10379000C7098093CA0962E370E080E090E00E946C
:1037A00066036091CD0982EC99E00E94870468EE7F
:1037B00073E080E090E00E94660360E382EC99E0B1
:1037C0000E94AA110BE416E4C8010197F1F760E327
:1037D00082EC99E00E94AA11C8010197F1F760E319
:1037E00082EC99E00E94AA1183E592E00197F1F73B
:1037F00060E282EC99E00E94AA116091C7096062C0
:1038000040E082EC99E00E94C31184E08093C809F3
:1038100040E06CE082EC99E00E94C3110E94D81154
:1038200082E08093C90940E066E082EC99E00E9462
:10383000C31140E062E082EC99E00E94C3118BE387
:103840009FE10197F1F788E08093CD0960E082EC79
:1038500099E00E94870489E08093490881E0809381
:10386000F40560E082E00E94100360E083E00E94C3
:10387000100384EB90E19093050280930402809101
:103880006A008C7F826080936A00EC9A8AE890E1FB
:10389000909307028093060280916A00837F88607C
:1038A00080936A00ED9A74EF872E99249394A12C4B
:1038B000B12CE3EA2E2EE1E03E2E0E949603672B08
:1038C000682B692B09F4FDC00E9496030091430602
:1038D0001091440620914506309146066017710705
:1038E0008207930708F478C10091430610914406BB
:1038F00020914506309146066B017C01C01AD10A21
:10390000E20AF30A970186010A3F110521053105F4
:1039100008F4DFC060934306709344068093450625
:103920009093460680926F0990927009A092710957
:10393000B09272091092730910927409109275096D
:10394000109276098091670990916809A0916909A0
:10395000B0916A0980936B0990936C09A0936D09EB
:10396000B0936E090E94960360936709709368098B
:103970008093690990936A0982E598E00E94A40106
:10398000843611F40E9408110E9496036093630923
:103990007093640980936509909366090E94960369
:1039A0002B013C0161E073E082E598E00E94A911DF
:1039B0004AE061E070E080E090E00E94641168E01D
:1039C00073E082E598E00E94A9114AE0C301B201C8
:1039D0000E9464116AE073E082E598E00E94A911F8
:1039E0008091670990916809A0916909B0916A096D
:1039F000A3019201281B390B4A0B5B0BCA01B901C9
:103A00004AE00E9464116AE073E082E598E00E9457
:103A1000A911609167097091680980916909909175
:103A20006A0900916B0910916C0920916D09309120
:103A30006E09601B710B820B930B4AE00E946411AC
:103A40006CE073E082E598E00E94A9110E94960361
:103A50004AE00E9464116EE073E082E598E00E9403
:103A6000551165E173E082E598E00E9455110E94CE
:103A700096036B017C012B013C0135E0430E511C88
:103A8000611C711C0E9496036C157D058E059F05B7
:103A900028F04616570668067906A0F782E598E0F2
:103AA0000E94A401843611F40E9408110E9496031A
:103AB00060936709709368098093690990936A0914
:103AC00008C00E949603623071058105910508F0D7
:103AD000FBCE80912C09882321F087E299E00E9497
:103AE000DA0D10920809109206091092030910923B
:103AF00002098AE0809301090E9496038B0161E02C
:103B0000809101090E94100361E0809101090E94E7
:103B10008402FFB6F8948091F503811126C0E9EE86
:103B2000F1E08491F1019491E82FF0E0EE0FFF1F96
:103B3000EC5AFE4FA591B4918C91982321F461E049
:103B400085E30E94840261E085E30E9410038CB546
:103B500080618CBD8CB580648CBD61E084E30E9483
:103B6000100361E083E30E9410038091F5038F5FEF
:103B70008093F503FFBEF2E5F093FB081092FC087A
:103B80008091FB089091FC080E9497055AE0F52E61
:103B90008FEF0E947605FA94F110FACF8DEF98E03E
:103BA0000E949A0520E030E0A90160E08DEF98E0E6
:103BB0000E94AE05F82E80930709CC24C3948C157F
:103BC000A1F00E949603601B710B613D774050F39A
:103BD00081E0809302094CC06093430670934406D1
:103BE00080934506909346067FCE2AEA31E040E076
:103BF00050E068E08DEF98E00E94AE0582FF2AC099
:103C0000F092080980910809412C512C612C30E474
:103C1000732E823019F0412C512C320120E030E01B
:103C2000A90167E38DEF98E00E94AE05A301920120
:103C300069E28DEF98E00E94AE0580930709882322
:103C400069F10E949603601B710B613D774030F370
:103C500088E0BFCF44E0F42E0E947D0580930709E1
:103C6000FA94F110F9CF8A3AA9F032E030930209C0
:103C70008DEF98E00E946C0560E080E00E94E21108
:103C800068E173E082EC99E00E94A91181E08093E1
:103C9000420637C042E040930809B4CF809108093A
:103CA0008230D1F420E030E0A9016AE38DEF98E0A2
:103CB0000E94AE05882311F086E08BCF0E947D051F
:103CC000807C803C19F493E0909308090E947D0564
:103CD0000E947D050E947D058DEF98E00E946C0595
:103CE000A0E5A093FB081092FC0881E00E949107D8
:103CF0008823C1F187E299E00E94430A882309F4EE
:103D0000BBCF809140069091410620914C023091AA
:103D10004D022817390761F430914B0220913F067C
:103D2000321306C030913E0620913D063217B9F09D
:103D300020914206222399F08130910539F1C8F093
:103D4000029709F46FC080914006909141069093CC
:103D50004D0280934C0280913F0680934B020E945B
:103D60005402ABCD80E00E949107882309F484CFF0
:103D7000C1CF0E94D81160E082E00E94E21168E3A6
:103D800072E082EC99E00E94A911DDCFE0903D063F
:103D900070903F0680913E068E1103C0B1E07B1209
:103DA000D2CF01E010E0F12CE016F10654F041E032
:103DB00050E067E372E087E396E0E5D10F5F1F4FC5
:103DC000F3CF0E94D81160E080E00E94E211E5E1AB
:103DD0007E9EB001112468507A4F82EC99E00E94D7
:103DE000A91161E080E00E94E21167E376E082ECD5
:103DF00099E00E94A91180913D06E0913F0695E16E
:103E0000C92ECE9EF0011124E850FA4F848B809386
:103E10003E06E7E3F6E0DF0125E0C22E1D92CA94DC
:103E2000E9F791CF0E94D81167E172E0AACFFC01B7
:103E300088279927E89421912032E9F3293010F05E
:103E40002E30C8F32B3239F02D3231F4689403C090
:103E50000BD0820F911D219120532A30C8F31EF4FC
:103E6000909581959F4F08957AE0979F902D879F19
:103E7000802D910D11240895A1E21A2EAA1BBB1BBF
:103E8000FD010DC0AA1FBB1FEE1FFF1FA217B30726
:103E9000E407F50720F0A21BB30BE40BF50B661F3C
:103EA000771F881F991F1A9469F760957095809500
:103EB00090959B01AC01BD01CF01089509D0A59F4C
:103EC000900DB49F900DA49F800D911D1124089515
:103ED000A29FB001B39FC001A39F700D811D11244B
:103EE000911DB29F700D811D1124911D0895EE0F3B
:103EF000FF1F881F8BBF0790F691E02D19940F9339
:103F00001F93CF93DF938230910510F482E090E00D
:103F1000E091D009F091D10930E020E0B0E0A0E0DC
:103F2000309799F42115310509F44AC0281B390B43
:103F300024303105D8F58A819B816115710589F19D
:103F4000FB0193838283FE0111C040815181028174
:103F5000138148175907E0F04817590799F410974B
:103F600061F012960C93129713961C933296CF0120
:103F7000DF91CF911F910F9108950093D009109375
:103F8000D109F4CF2115310551F04217530738F00C
:103F9000A901DB019A01BD01DF01F801C1CFEF01E9
:103FA000F9CF9093D1098093D009CDCFFE01E20FD4
:103FB000F31F819391932250310939832883D7CFFE
:103FC0002091CE093091CF09232B41F4209150024A
:103FD000309151023093CF092093CE0920914E02A7
:103FE00030914F022115310541F42DB73EB7409174
:103FF000520250915302241B350BE091CE09F091EF
:10400000CF09E217F307A0F42E1B3F0B281739073F
:1040100078F0AC014E5F5F4F2417350748F04E0F24
:104020005F1F5093CF094093CE09819391939FCF07
:10403000F0E0E0E09CCFCF93DF930097E9F0FC0144
:10404000329713821282A091D009B091D109ED016B
:1040500030E020E01097A1F420813181820F931F7E
:104060002091CE093091CF092817390709F061C096
:10407000F093CF09E093CE09DF91CF910895EA0143
:10408000CE17DF07E8F54A815B819E014115510596
:10409000B1F7E901FB83EA8349915991C40FD51F18
:1040A000EC17FD0761F4808191810296840F951FC2
:1040B000E90199838883828193819B838A83F0E0DD
:1040C000E0E012968D919C9113970097B9F52D9190
:1040D0003C911197CD010296820F931F2091CE093A
:1040E0003091CF092817390739F6309751F51092DA
:1040F000D1091092D009B093CF09A093CE09BCCFBB
:10410000D383C28340815181840F951FC817D9077B
:1041100061F44E5F5F4F88819981480F591F518329
:1041200040838A819B81938382832115310509F025
:10413000B0CFF093D109E093D0099ECFFD01DC010F
:10414000C0CF13821282D7CFFB01DC0104C08D9156
:104150000190801921F441505040C8F7881B990BF9
:104160000895FC018191861721F08823D9F79927BA
:1041700008953197CF010895FB01DC0101900D9264
:104180000020E1F70895FB01DC010D900020E9F724
:1041900011974150504028F0019000200D92C9F72E
:1041A00008951C920895FB01DC014150504048F0F5
:1041B00001900D920020C9F701C01D92415050405E
:0841C000E0F70895F894FFCF29
:1041C800FFFFFFFFA203A203A203A203A203A2030D
:1041D800A203A20301016043616D206F6E2062613A
:1041E8006E206461207468616D20676961206B6866
:1041F800616F20736174002A48656C6C6F206D6F65
:10420800746865726661636B657200FF0200000086
:10421800D209800000004000140054008A009A006F
:10422800AA002A0188009800A80028016F007100E0
:104238007200730081009100A100210180009000AC
:10424800A000200186009600A600260100000000BC
:10425800E901510181013502B2019001A401000078
:10426800000059042D0487107E0126041304040459
:10427800000000007B0F51017F0D86100000000038
:104288002F1013100310DB0FE30F5B1064100000F6
:10429800000012125101871086102F00564D44500D
:1042A800565F317C315F564D4450560A00564D4496
:1042B80050525F0061007265636F72642E74787487
:1042C80000564D4450455F003A323A007C005F5634
:1042D8004D445045000D0A005344206E6F7420660B
:0842E8006F756E6420210000D7
:00000001FF
